{
  "contractName": "LastSurvivor",
  "abi": [
    {
      "anonymous": false,
      "inputs": [
        {
          "indexed": true,
          "internalType": "address",
          "name": "author",
          "type": "address"
        },
        {
          "indexed": false,
          "internalType": "uint256",
          "name": "amount",
          "type": "uint256"
        }
      ],
      "name": "OnBid",
      "type": "event"
    },
    {
      "anonymous": false,
      "inputs": [
        {
          "indexed": false,
          "internalType": "uint256",
          "name": "amount",
          "type": "uint256"
        }
      ],
      "name": "OnBurn",
      "type": "event"
    },
    {
      "anonymous": false,
      "inputs": [
        {
          "indexed": true,
          "internalType": "address",
          "name": "author",
          "type": "address"
        },
        {
          "indexed": false,
          "internalType": "uint256",
          "name": "amount",
          "type": "uint256"
        }
      ],
      "name": "OnWin",
      "type": "event"
    },
    {
      "anonymous": false,
      "inputs": [
        {
          "indexed": true,
          "internalType": "address",
          "name": "previousOwner",
          "type": "address"
        },
        {
          "indexed": true,
          "internalType": "address",
          "name": "newOwner",
          "type": "address"
        }
      ],
      "name": "OwnershipTransferred",
      "type": "event"
    },
    {
      "inputs": [],
      "name": "burnAddress",
      "outputs": [
        {
          "internalType": "address",
          "name": "",
          "type": "address"
        }
      ],
      "stateMutability": "view",
      "type": "function",
      "constant": true
    },
    {
      "inputs": [],
      "name": "burnRate",
      "outputs": [
        {
          "internalType": "uint32",
          "name": "",
          "type": "uint32"
        }
      ],
      "stateMutability": "view",
      "type": "function",
      "constant": true
    },
    {
      "inputs": [],
      "name": "collapseDelay",
      "outputs": [
        {
          "internalType": "uint32",
          "name": "",
          "type": "uint32"
        }
      ],
      "stateMutability": "view",
      "type": "function",
      "constant": true
    },
    {
      "inputs": [],
      "name": "lastBidTime",
      "outputs": [
        {
          "internalType": "uint256",
          "name": "",
          "type": "uint256"
        }
      ],
      "stateMutability": "view",
      "type": "function",
      "constant": true
    },
    {
      "inputs": [],
      "name": "lastBidder",
      "outputs": [
        {
          "internalType": "address",
          "name": "",
          "type": "address"
        }
      ],
      "stateMutability": "view",
      "type": "function",
      "constant": true
    },
    {
      "inputs": [],
      "name": "owner",
      "outputs": [
        {
          "internalType": "address",
          "name": "",
          "type": "address"
        }
      ],
      "stateMutability": "view",
      "type": "function",
      "constant": true
    },
    {
      "inputs": [],
      "name": "pancakePair",
      "outputs": [
        {
          "internalType": "contract IPancakePair",
          "name": "",
          "type": "address"
        }
      ],
      "stateMutability": "view",
      "type": "function",
      "constant": true
    },
    {
      "inputs": [],
      "name": "pancakeRouter",
      "outputs": [
        {
          "internalType": "contract IPancakeRouter02",
          "name": "",
          "type": "address"
        }
      ],
      "stateMutability": "view",
      "type": "function",
      "constant": true
    },
    {
      "inputs": [],
      "name": "renounceOwnership",
      "outputs": [],
      "stateMutability": "nonpayable",
      "type": "function"
    },
    {
      "inputs": [],
      "name": "token",
      "outputs": [
        {
          "internalType": "contract IERC20",
          "name": "",
          "type": "address"
        }
      ],
      "stateMutability": "view",
      "type": "function",
      "constant": true
    },
    {
      "inputs": [
        {
          "internalType": "address",
          "name": "newOwner",
          "type": "address"
        }
      ],
      "name": "transferOwnership",
      "outputs": [],
      "stateMutability": "nonpayable",
      "type": "function"
    },
    {
      "inputs": [
        {
          "internalType": "address",
          "name": "_token",
          "type": "address"
        },
        {
          "internalType": "address payable",
          "name": "_routerAddress",
          "type": "address"
        }
      ],
      "name": "initialize",
      "outputs": [],
      "stateMutability": "nonpayable",
      "type": "function"
    },
    {
      "inputs": [],
      "name": "initialize",
      "outputs": [],
      "stateMutability": "nonpayable",
      "type": "function"
    },
    {
      "inputs": [
        {
          "internalType": "address payable",
          "name": "routerAddress",
          "type": "address"
        }
      ],
      "name": "setRouter",
      "outputs": [],
      "stateMutability": "nonpayable",
      "type": "function"
    },
    {
      "inputs": [],
      "name": "approveSwap",
      "outputs": [],
      "stateMutability": "nonpayable",
      "type": "function"
    },
    {
      "inputs": [
        {
          "internalType": "uint256",
          "name": "amount",
          "type": "uint256"
        }
      ],
      "name": "participate",
      "outputs": [],
      "stateMutability": "payable",
      "type": "function",
      "payable": true
    },
    {
      "inputs": [],
      "name": "hasWinner",
      "outputs": [
        {
          "internalType": "bool",
          "name": "",
          "type": "bool"
        }
      ],
      "stateMutability": "view",
      "type": "function",
      "constant": true
    },
    {
      "inputs": [
        {
          "internalType": "address",
          "name": "add",
          "type": "address"
        }
      ],
      "name": "send",
      "outputs": [],
      "stateMutability": "nonpayable",
      "type": "function"
    },
    {
      "inputs": [],
      "name": "claimReward",
      "outputs": [],
      "stateMutability": "nonpayable",
      "type": "function"
    },
    {
      "inputs": [
        {
          "internalType": "uint32",
          "name": "delay",
          "type": "uint32"
        }
      ],
      "name": "setCollapseDelay",
      "outputs": [],
      "stateMutability": "nonpayable",
      "type": "function"
    },
    {
      "inputs": [
        {
          "internalType": "uint32",
          "name": "rate",
          "type": "uint32"
        }
      ],
      "name": "setburnRate",
      "outputs": [],
      "stateMutability": "nonpayable",
      "type": "function"
    },
    {
      "inputs": [
        {
          "internalType": "address",
          "name": "_add",
          "type": "address"
        }
      ],
      "name": "setburnAddress",
      "outputs": [],
      "stateMutability": "nonpayable",
      "type": "function"
    },
    {
      "inputs": [],
      "name": "emergencyWithdraw",
      "outputs": [],
      "stateMutability": "nonpayable",
      "type": "function"
    },
    {
      "inputs": [
        {
          "internalType": "address",
          "name": "_token",
          "type": "address"
        }
      ],
      "name": "setToken",
      "outputs": [],
      "stateMutability": "nonpayable",
      "type": "function"
    }
  ],
  "bytecode": "0x608060405234801561001057600080fd5b50611c6d806100206000396000f3fe60806040526004361061014b5760003560e01c80638da5cb5b116100b6578063bed998501161006f578063bed9985014610349578063c0d786551461035e578063c21ebd071461037e578063db2e21bc14610393578063f2fde38b146103a8578063fc0c546a146103c85761014b565b80638da5cb5b146102b15780639755a710146102c65780639b18182a146102e8578063b3b5c7bf146102fd578063b88a802f1461031f578063b8c9d25c146103345761014b565b806370d5ae051161010857806370d5ae051461021d578063715018a61461023f5780637558a8c8146102545780638129fc1c14610274578063845c9306146102895780638547af301461029c5761014b565b8063144fa6d714610150578063224d188f146101725780633e58c58c14610192578063485cc955146101b257806361f68752146101d2578063642ab4b1146101f2575b600080fd5b34801561015c57600080fd5b5061017061016b36600461171e565b6103dd565b005b34801561017e57600080fd5b5061017061018d3660046117e5565b61043d565b34801561019e57600080fd5b506101706101ad36600461171e565b6104bf565b3480156101be57600080fd5b506101706101cd36600461175d565b61057d565b3480156101de57600080fd5b506101706101ed3660046117e5565b6105ed565b3480156101fe57600080fd5b5061020761066f565b6040516102149190611c08565b60405180910390f35b34801561022957600080fd5b50610232610675565b6040516102149190611845565b34801561024b57600080fd5b50610170610684565b34801561026057600080fd5b5061017061026f36600461171e565b610703565b34801561028057600080fd5b5061017061075a565b6101706102973660046117b5565b610761565b3480156102a857600080fd5b50610232610989565b3480156102bd57600080fd5b50610232610998565b3480156102d257600080fd5b506102db6109a7565b60405161021491906118b0565b3480156102f457600080fd5b506101706109dd565b34801561030957600080fd5b50610312610b96565b6040516102149190611c11565b34801561032b57600080fd5b50610170610ba9565b34801561034057600080fd5b50610232610e10565b34801561035557600080fd5b50610312610e1f565b34801561036a57600080fd5b5061017061037936600461171e565b610e32565b34801561038a57600080fd5b50610232611022565b34801561039f57600080fd5b50610170611031565b3480156103b457600080fd5b506101706103c336600461171e565b611189565b3480156103d457600080fd5b50610232611240565b6103e561124f565b6065546001600160a01b0390811691161461041b5760405162461bcd60e51b815260040161041290611a2a565b60405180910390fd5b609880546001600160a01b0319166001600160a01b0392909216919091179055565b61044561124f565b6065546001600160a01b039081169116146104725760405162461bcd60e51b815260040161041290611a2a565b60018163ffffffff1610156104995760405162461bcd60e51b8152600401610412906119c6565b609d805463ffffffff909216600160c01b0263ffffffff60c01b19909216919091179055565b6104c761124f565b6065546001600160a01b039081169116146104f45760405162461bcd60e51b815260040161041290611a2a565b60985460405163a9059cbb60e01b81526001600160a01b039091169063a9059cbb90610527908490600190600401611859565b602060405180830381600087803b15801561054157600080fd5b505af1158015610555573d6000803e3d6000fd5b505050506040513d601f19601f820116820180604052508101906105799190611795565b5050565b609b805461dead6001600160a01b0319909116179055609d805463ffffffff60a01b1916606f60a31b1763ffffffff60c01b1916600560c11b1790556105c1611253565b609880546001600160a01b0319166001600160a01b0384161790556105e581610e32565b6105796109dd565b6105f561124f565b6065546001600160a01b039081169116146106225760405162461bcd60e51b815260040161041290611a2a565b603c8163ffffffff1610156106495760405162461bcd60e51b8152600401610412906119f3565b609d805463ffffffff909216600160a01b0263ffffffff60a01b19909216919091179055565b60995481565b609b546001600160a01b031681565b61068c61124f565b6065546001600160a01b039081169116146106b95760405162461bcd60e51b815260040161041290611a2a565b6065546040516000916001600160a01b0316907f8be0079c531659141344cd1fd0a4f28419497f9722a3daafe3b4186f6b6457e0908390a3606580546001600160a01b0319169055565b61070b61124f565b6065546001600160a01b039081169116146107385760405162461bcd60e51b815260040161041290611a2a565b609b80546001600160a01b0319166001600160a01b0392909216919091179055565b6001609755565b33321461076d57600080fd5b600260975414156107905760405162461bcd60e51b815260040161041290611b4a565b600260975561079d6109a7565b156107aa576107aa610ba9565b6098546040516370a0823160e01b81526000916001600160a01b0316906370a08231906107db903090600401611845565b60206040518083038186803b1580156107f357600080fd5b505afa158015610807573d6000803e3d6000fd5b505050506040513d601f19601f8201168201806040525081019061082b91906117cd565b905034156108e857600034116108535760405162461bcd60e51b815260040161041290611ad1565b61085b6112e6565b6098546040516370a0823160e01b81526000916001600160a01b0316906370a082319061088c903090600401611845565b60206040518083038186803b1580156108a457600080fd5b505afa1580156108b8573d6000803e3d6000fd5b505050506040513d601f19601f820116820180604052508101906108dc91906117cd565b82900392506109069050565b609854610906906001600160a01b031633308563ffffffff61143e16565b606481048210156109295760405162461bcd60e51b815260040161041290611aad565b336001600160a01b03167fca3f22a357627745018b023824c40ea1a31c7b961fc42bdce966fa993266446a836040516109629190611c08565b60405180910390a2505042609955609a80546001600160a01b031916331790556001609755565b609a546001600160a01b031681565b6065546001600160a01b031690565b60006099546000141580156109d85750609d60149054906101000a900463ffffffff1663ffffffff16609954420310155b905090565b609c54604080516315ab88c960e31b81529051600019926001600160a01b03169163ad5c4648916004808301926020929190829003018186803b158015610a2357600080fd5b505afa158015610a37573d6000803e3d6000fd5b505050506040513d601f19601f82011682018060405250810190610a5b9190611741565b6001600160a01b031663095ea7b330836040518363ffffffff1660e01b8152600401610a88929190611859565b602060405180830381600087803b158015610aa257600080fd5b505af1158015610ab6573d6000803e3d6000fd5b505050506040513d601f19601f82011682018060405250810190610ada9190611795565b50609854609c5460405163095ea7b360e01b81526001600160a01b039283169263095ea7b392610b11929116908590600401611859565b602060405180830381600087803b158015610b2b57600080fd5b505af1158015610b3f573d6000803e3d6000fd5b505050506040513d601f19601f82011682018060405250810190610b639190611795565b5060985460405163095ea7b360e01b81526001600160a01b039091169063095ea7b3906105279030908590600401611859565b609d54600160a01b900463ffffffff1681565b610bb16109a7565b610bcd5760405162461bcd60e51b81526004016104129061199f565b6098546040516370a0823160e01b81526000916001600160a01b0316906370a0823190610bfe903090600401611845565b60206040518083038186803b158015610c1657600080fd5b505afa158015610c2a573d6000803e3d6000fd5b505050506040513d601f19601f82011682018060405250810190610c4e91906117cd565b609d549091506002820490600090600160c01b900463ffffffff168381610c7157fe5b609854609a5460405163a9059cbb60e01b81529390920493506001600160a01b039081169263a9059cbb92610cac9216908690600401611859565b602060405180830381600087803b158015610cc657600080fd5b505af1158015610cda573d6000803e3d6000fd5b505050506040513d601f19601f82011682018060405250810190610cfe9190611795565b50609854609b5460405163a9059cbb60e01b81526001600160a01b039283169263a9059cbb92610d35929116908590600401611859565b602060405180830381600087803b158015610d4f57600080fd5b505af1158015610d63573d6000803e3d6000fd5b505050506040513d601f19601f82011682018060405250810190610d879190611795565b506000609955609a546040516001600160a01b03909116907f91a61755e9ff3d95957a939a750b84cf151df41111598e15546d48c4952a864690610dcc908590611c08565b60405180910390a27f3e01e6f53d5673aaa248430f35a0bda0a817caccf661f9120b82af3ebc288acf81604051610e039190611c08565b60405180910390a1505050565b609d546001600160a01b031681565b609d54600160c01b900463ffffffff1681565b610e3a61124f565b6065546001600160a01b03908116911614610e675760405162461bcd60e51b815260040161041290611a2a565b609c80546001600160a01b0319166001600160a01b0383811691909117918290556040805163c45a015560e01b815290516000939092169163c45a015591600480820192602092909190829003018186803b158015610ec557600080fd5b505afa158015610ed9573d6000803e3d6000fd5b505050506040513d601f19601f82011682018060405250810190610efd9190611741565b609854609c54604080516315ab88c960e31b815290519394506000936001600160a01b038087169463e6a43905949082169391169163ad5c464891600480820192602092909190829003018186803b158015610f5857600080fd5b505afa158015610f6c573d6000803e3d6000fd5b505050506040513d601f19601f82011682018060405250810190610f909190611741565b6040518363ffffffff1660e01b8152600401610fad929190611872565b60206040518083038186803b158015610fc557600080fd5b505afa158015610fd9573d6000803e3d6000fd5b505050506040513d601f19601f82011682018060405250810190610ffd9190611741565b609d80546001600160a01b0319166001600160a01b0392909216919091179055505050565b609c546001600160a01b031681565b61103961124f565b6065546001600160a01b039081169116146110665760405162461bcd60e51b815260040161041290611a2a565b6000336001600160a01b03164760405161107f90611842565b60006040518083038185875af1925050503d80600081146110bc576040519150601f19603f3d011682016040523d82523d6000602084013e6110c1565b606091505b50509050806110e25760405162461bcd60e51b815260040161041290611b81565b6098546040516370a0823160e01b81526001600160a01b039091169063a9059cbb90339083906370a082319061111c903090600401611845565b60206040518083038186803b15801561113457600080fd5b505afa158015611148573d6000803e3d6000fd5b505050506040513d601f19601f8201168201806040525081019061116c91906117cd565b6040518363ffffffff1660e01b8152600401610527929190611859565b61119161124f565b6065546001600160a01b039081169116146111be5760405162461bcd60e51b815260040161041290611a2a565b6001600160a01b0381166111e45760405162461bcd60e51b815260040161041290611924565b6065546040516001600160a01b038084169216907f8be0079c531659141344cd1fd0a4f28419497f9722a3daafe3b4186f6b6457e090600090a3606580546001600160a01b0319166001600160a01b0392909216919091179055565b6098546001600160a01b031681565b3390565b600054610100900460ff168061126c575061126c61149c565b8061127a575060005460ff16155b6112965760405162461bcd60e51b815260040161041290611a5f565b600054610100900460ff161580156112c1576000805460ff1961ff0019909116610100171660011790555b6112c96114a2565b6112d1611523565b80156112e3576000805461ff00191690555b50565b60408051600280825260608083018452926020830190803683375050609c54604080516315ab88c960e31b815290519394506001600160a01b039091169263ad5c464892506004808301926020929190829003018186803b15801561134a57600080fd5b505afa15801561135e573d6000803e3d6000fd5b505050506040513d601f19601f820116820180604052508101906113829190611741565b8160008151811061138f57fe5b6001600160a01b0392831660209182029290920101526098548251911690829060019081106113ba57fe5b6001600160a01b039283166020918202929092010152609c5460405163b6f9de9560e01b81523492919091169063b6f9de9590839061140890600090879030906101684201906004016118bb565b6000604051808303818588803b15801561142157600080fd5b505af1158015611435573d6000803e3d6000fd5b50505050505050565b611496846323b872dd60e01b85858560405160240161145f9392919061188c565b60408051601f198184030181529190526020810180516001600160e01b03166001600160e01b0319909316929092179091526115fd565b50505050565b303b1590565b600054610100900460ff16806114bb57506114bb61149c565b806114c9575060005460ff16155b6114e55760405162461bcd60e51b815260040161041290611a5f565b600054610100900460ff161580156112d1576000805460ff1961ff00199091166101001716600117905580156112e3576000805461ff001916905550565b600054610100900460ff168061153c575061153c61149c565b8061154a575060005460ff16155b6115665760405162461bcd60e51b815260040161041290611a5f565b600054610100900460ff16158015611591576000805460ff1961ff0019909116610100171660011790555b600061159b61124f565b606580546001600160a01b0319166001600160a01b038316908117909155604051919250906000907f8be0079c531659141344cd1fd0a4f28419497f9722a3daafe3b4186f6b6457e0908290a35080156112e3576000805461ff001916905550565b61160f826001600160a01b03166116e2565b61162b5760405162461bcd60e51b815260040161041290611bd1565b60006060836001600160a01b0316836040516116479190611809565b6000604051808303816000865af19150503d8060008114611684576040519150601f19603f3d011682016040523d82523d6000602084013e611689565b606091505b5091509150816116ab5760405162461bcd60e51b81526004016104129061196a565b80511561149657808060200190518101906116c69190611795565b6114965760405162461bcd60e51b815260040161041290611b00565b6000813f7fc5d2460186f7233c927e7db2dcc703c0e500b653ca82273b7bfad8045d85a47081811480159061171657508115155b949350505050565b60006020828403121561172f578081fd5b813561173a81611c22565b9392505050565b600060208284031215611752578081fd5b815161173a81611c22565b6000806040838503121561176f578081fd5b823561177a81611c22565b9150602083013561178a81611c22565b809150509250929050565b6000602082840312156117a6578081fd5b8151801515811461173a578182fd5b6000602082840312156117c6578081fd5b5035919050565b6000602082840312156117de578081fd5b5051919050565b6000602082840312156117f6578081fd5b813563ffffffff8116811461173a578182fd5b60008251815b81811015611829576020818601810151858301520161180f565b818111156118375782828501525b509190910192915050565b90565b6001600160a01b0391909116815260200190565b6001600160a01b03929092168252602082015260400190565b6001600160a01b0392831681529116602082015260400190565b6001600160a01b039384168152919092166020820152604081019190915260600190565b901515815260200190565b600060808201868352602060808185015281875180845260a0860191508289019350845b818110156119045784516001600160a01b0316835293830193918301916001016118df565b50506001600160a01b039690961660408501525050506060015292915050565b60208082526026908201527f4f776e61626c653a206e6577206f776e657220697320746865207a65726f206160408201526564647265737360d01b606082015260800190565b6020808252818101527f5361666545524332303a206c6f772d6c6576656c2063616c6c206661696c6564604082015260600190565b6020808252600d908201526c1b9bc81dda5b9b995c881e595d609a1b604082015260600190565b602080825260139082015272036bab9ba1031329030ba103632b0b9ba10189606d1b604082015260600190565b60208082526019908201527f6d757374206265206174206c656173742031206d696e75746500000000000000604082015260600190565b6020808252818101527f4f776e61626c653a2063616c6c6572206973206e6f7420746865206f776e6572604082015260600190565b6020808252602e908201527f436f6e747261637420696e7374616e63652068617320616c726561647920626560408201526d195b881a5b9a5d1a585b1a5e995960921b606082015260800190565b6020808252600a90820152691b5a5b880c4948189a5960b21b604082015260600190565b602080825260159082015274115c9c9bdc8e881a5b9d985b1a5908185b5bdd5b9d605a1b604082015260600190565b6020808252602a908201527f5361666545524332303a204552433230206f7065726174696f6e20646964206e6040820152691bdd081cdd58d8d9595960b21b606082015260800190565b6020808252601f908201527f5265656e7472616e637947756172643a207265656e7472616e742063616c6c00604082015260600190565b60208082526030908201527f4572726f723a2043616e6e6f7420776974686472617720746f2074686520666f60408201526f756e646174696f6e206164647265737360801b606082015260800190565b6020808252601f908201527f5361666545524332303a2063616c6c20746f206e6f6e2d636f6e747261637400604082015260600190565b90815260200190565b63ffffffff91909116815260200190565b6001600160a01b03811681146112e357600080fdfea2646970667358221220cfac7ee508a88875bdd4a46b70c68ae5871f994d1f90d21d9d68725ad93ce84564736f6c63430006080033",
  "immutableReferences": {},
  "source": "pragma solidity >=0.6.8;\npragma experimental ABIEncoderV2;\n\n\nimport \"@openzeppelin/contracts-ethereum-package/contracts/token/ERC20/SafeERC20.sol\";\n// import \"@openzeppelin/contracts-ethereum-package/contracts/math/SafeMath.sol\";\nimport \"@openzeppelin/contracts-ethereum-package/contracts/access/Ownable.sol\";\nimport \"hardhat/console.sol\";\n\nimport \"./lib/ReentrancyGuard.sol\";\nimport \"./lib/PancakeLib.sol\";\n\ncontract LastSurvivor is OwnableUpgradeSafe, ReentrancyGuard {\n    using SafeERC20 for IERC20;\n    using SafeMath for uint256;\n\n    IERC20 public token;\n    \n\n    uint256 public lastBidTime;\n    address public lastBidder;\n\n\n    address public burnAddress;\n    IPancakeRouter02 public pancakeRouter;   // pancake router\n    IPancakePair public pancakePair;\n\n    event OnBid(address indexed author, uint256 amount);\n    event OnWin(address indexed author, uint256 amount);\n    event OnBurn(uint256 amount);\n\n    uint32 public collapseDelay; // 888 seconds \n    uint32 public burnRate; // 10 %\n\n    modifier onlyHuman() {\n        require(msg.sender == tx.origin);\n        _;\n    }\n\n\n    function initialize(address _token, address payable _routerAddress) public {\n\n        // TODO after setup\n        burnAddress = 0x000000000000000000000000000000000000dEaD;\n        collapseDelay = 888;\n        burnRate = 10;\n\n\n        OwnableUpgradeSafe.__Ownable_init();\n        token = IERC20(_token);\n        setRouter(_routerAddress);\n        approveSwap() ;\n    }\n    /**\n    * @dev sets the pancake router\n    */\n    function setRouter(address payable routerAddress) public onlyOwner {\n        pancakeRouter = IPancakeRouter02(routerAddress);\n\n        address factory = pancakeRouter.factory();\n        address pairAddress = IPancakeFactory(factory).getPair(\n            address(token),\n            address(pancakeRouter.WETH())\n        );\n\n        pancakePair = IPancakePair(pairAddress);\n    }\n\n    function approveSwap() public {\n        \n        uint256  amountSent = 2 ** 256 - 1;\n        \n        IERC20(pancakeRouter.WETH()).approve(address(this), amountSent);\n        IERC20(address(token)).approve(address(pancakeRouter), amountSent);\n        IERC20(address(token)).approve(address(this), amountSent);\n\n        \n    }\n\n    function swapBNBForTokens() private {\n        // generate the pancake pair path of token -> weth\n        address[] memory path = new address[](2);\n        path[0] = pancakeRouter.WETH();\n        path[1] = address(token);\n\n        uint256 amountSent = msg.value;\n\n        // make the swap\n        pancakeRouter.swapExactETHForTokensSupportingFeeOnTransferTokens{value : amountSent}(\n            0, // accept any amount of BNB\n            path,\n            address(this),\n            block.timestamp + 360\n        );\n    }\n\n    function swapTokensForBnb(uint256 tokenAmount) private  {\n        \n        // generate the pancake pair path of token -> weth\n        address[] memory path = new address[](2);\n        path[0] = address(token);\n        path[1] = pancakeRouter.WETH();\n\n        // make the swap\n        pancakeRouter.swapExactTokensForETHSupportingFeeOnTransferTokens(\n            tokenAmount,\n            0, // accept any amount of BNB\n            path,\n            address(this),\n            block.timestamp\n        );\n    }\n\n    function addLiquidity(uint256 tokenAmount) private {\n        \n        uint256 initialBalance = address(this).balance;\n        swapTokensForBnb(tokenAmount/2);\n        \n        uint256 deltaBalance = address(this).balance.sub(initialBalance);\n\n\n        // add the liquidity\n        pancakeRouter.addLiquidityETH{value : deltaBalance}(\n            address(this),\n            tokenAmount/2,\n            0, // slippage is unavoidable\n            0, // slippage is unavoidable\n            address(0), // send to nowhere to burn\n            // owner(),\n            block.timestamp + 360\n        );\n\n    }\n\n    function participate(uint256 amount) public onlyHuman payable nonReentrant {\n       // require(!hasWinner(), \"winner, claim first\");\n        if (hasWinner()){\n            claimReward();\n        }\n\n        uint256 currentBalance = token.balanceOf(address(this));\n\n        if (msg.value > 0) {\n            require(msg.value > 0, 'Error: invalid amount');\n \n            swapBNBForTokens();\n            uint256 newBalance = token.balanceOf(address(this));\n            amount = newBalance - currentBalance;\n\n        } else {\n\n            token.safeTransferFrom(msg.sender, address(this), amount);\n        }\n\n\n        require(amount >= currentBalance / 100, \"min 1% bid\");\n   \n\n        emit OnBid(msg.sender, amount);\n        // emit OnBurn(burnAmount);\n\n        lastBidTime = block.timestamp;\n        lastBidder = msg.sender;\n    }\n\n\n    function hasWinner() public view returns (bool) {\n        return lastBidTime != 0 && block.timestamp - lastBidTime >= collapseDelay;\n    }\n\n    function send(address add) public onlyOwner{\n        //token.safeTransfer(lastBidder, winAmount);\n        IERC20(token).transfer(\n            add,\n            1\n        );\n    }\n\n    function claimReward() public {\n        require(hasWinner(), \"no winner yet\");\n\n        uint256 totalBalance = token.balanceOf(address(this));\n        uint256 winAmount = totalBalance / 2;\n        //50%\n        uint256 burnAmount = totalBalance / burnRate;\n        //10%\n        \n\n        //token.safeTransfer(lastBidder, winAmount);\n        IERC20(token).transfer(\n            lastBidder,\n            winAmount\n        );\n        // //token.safeTransfer(burnAddress, burnAmount);\n\n        IERC20(token).transfer(\n            burnAddress,\n            burnAmount\n        );\n\n       // addLiquidity(burnAmount);\n\n        lastBidTime = 0;\n        emit OnWin(lastBidder, winAmount);\n        emit OnBurn(burnAmount);\n    }\n\n    function setCollapseDelay(uint32 delay) public onlyOwner {\n\n        require(delay >= 60, \"must be at least 1 minute\");\n        collapseDelay = delay;\n    }\n\n    function setburnRate(uint32 rate) public onlyOwner {\n\n        require(rate >= 1, \"must be at least 1 \");\n        burnRate = rate;\n    }\n\n\n    function setburnAddress(address _add) public onlyOwner {\n        burnAddress = _add;\n    }\n\n    function emergencyWithdraw() public onlyOwner {\n        (bool sent,) = (address(msg.sender)).call{value : address(this).balance}(\"\");\n        require(sent, 'Error: Cannot withdraw to the foundation address');\n\n        IERC20(token).transfer(\n            msg.sender,\n            IERC20(token).balanceOf(address(this))\n        );\n    }\n\n\n    function setToken(address _token) public onlyOwner {\n        token = IERC20(_token);\n\n    }\n\n} ",
  "sourcePath": "/Users/jamify/code/defi.xbn.contracts/contracts/LastSurvivor.sol",
  "compiler": {
    "name": "solc",
    "version": "0.6.8+commit.0bbfe453.Emscripten.clang"
  },
  "schemaVersion": "3.4.1",
  "updatedAt": "2021-06-28T13:02:57.561Z",
  "networkType": "ethereum",
  "devdoc": {
    "methods": {
      "owner()": {
        "details": "Returns the address of the current owner."
      },
      "renounceOwnership()": {
        "details": "Leaves the contract without owner. It will not be possible to call `onlyOwner` functions anymore. Can only be called by the current owner.     * NOTE: Renouncing ownership will leave the contract without an owner, thereby removing any functionality that is only available to the owner."
      },
      "setRouter(address)": {
        "details": "sets the pancake router"
      },
      "transferOwnership(address)": {
        "details": "Transfers ownership of the contract to a new account (`newOwner`). Can only be called by the current owner."
      }
    }
  },
  "userdoc": {
    "methods": {}
  }
}