{
  "_format": "hh-sol-artifact-1",
  "contractName": "MoonRatToken",
  "sourceName": "contracts/protocols/MoonRat.sol",
  "abi": [
    {
      "inputs": [
        {
          "internalType": "address payable",
          "name": "routerAddress",
          "type": "address"
        }
      ],
      "stateMutability": "nonpayable",
      "type": "constructor"
    },
    {
      "anonymous": false,
      "inputs": [
        {
          "indexed": true,
          "internalType": "address",
          "name": "owner",
          "type": "address"
        },
        {
          "indexed": true,
          "internalType": "address",
          "name": "spender",
          "type": "address"
        },
        {
          "indexed": false,
          "internalType": "uint256",
          "name": "value",
          "type": "uint256"
        }
      ],
      "name": "Approval",
      "type": "event"
    },
    {
      "anonymous": false,
      "inputs": [
        {
          "indexed": false,
          "internalType": "address",
          "name": "recipient",
          "type": "address"
        },
        {
          "indexed": false,
          "internalType": "uint256",
          "name": "ethReceived",
          "type": "uint256"
        },
        {
          "indexed": false,
          "internalType": "uint256",
          "name": "nextAvailableClaimDate",
          "type": "uint256"
        }
      ],
      "name": "ClaimBNBSuccessfully",
      "type": "event"
    },
    {
      "anonymous": false,
      "inputs": [
        {
          "indexed": false,
          "internalType": "uint256",
          "name": "minTokensBeforeSwap",
          "type": "uint256"
        }
      ],
      "name": "MinTokensBeforeSwapUpdated",
      "type": "event"
    },
    {
      "anonymous": false,
      "inputs": [
        {
          "indexed": true,
          "internalType": "address",
          "name": "previousOwner",
          "type": "address"
        },
        {
          "indexed": true,
          "internalType": "address",
          "name": "newOwner",
          "type": "address"
        }
      ],
      "name": "OwnershipTransferred",
      "type": "event"
    },
    {
      "anonymous": false,
      "inputs": [
        {
          "indexed": false,
          "internalType": "uint256",
          "name": "tokensSwapped",
          "type": "uint256"
        },
        {
          "indexed": false,
          "internalType": "uint256",
          "name": "ethReceived",
          "type": "uint256"
        },
        {
          "indexed": false,
          "internalType": "uint256",
          "name": "tokensIntoLiqudity",
          "type": "uint256"
        }
      ],
      "name": "SwapAndLiquify",
      "type": "event"
    },
    {
      "anonymous": false,
      "inputs": [
        {
          "indexed": false,
          "internalType": "bool",
          "name": "enabled",
          "type": "bool"
        }
      ],
      "name": "SwapAndLiquifyEnabledUpdated",
      "type": "event"
    },
    {
      "anonymous": false,
      "inputs": [
        {
          "indexed": true,
          "internalType": "address",
          "name": "from",
          "type": "address"
        },
        {
          "indexed": true,
          "internalType": "address",
          "name": "to",
          "type": "address"
        },
        {
          "indexed": false,
          "internalType": "uint256",
          "name": "value",
          "type": "uint256"
        }
      ],
      "name": "Transfer",
      "type": "event"
    },
    {
      "inputs": [],
      "name": "_liquidityFee",
      "outputs": [
        {
          "internalType": "uint256",
          "name": "",
          "type": "uint256"
        }
      ],
      "stateMutability": "view",
      "type": "function"
    },
    {
      "inputs": [],
      "name": "_maxTxAmount",
      "outputs": [
        {
          "internalType": "uint256",
          "name": "",
          "type": "uint256"
        }
      ],
      "stateMutability": "view",
      "type": "function"
    },
    {
      "inputs": [],
      "name": "_taxFee",
      "outputs": [
        {
          "internalType": "uint256",
          "name": "",
          "type": "uint256"
        }
      ],
      "stateMutability": "view",
      "type": "function"
    },
    {
      "inputs": [],
      "name": "activateContract",
      "outputs": [],
      "stateMutability": "nonpayable",
      "type": "function"
    },
    {
      "inputs": [],
      "name": "activateTestNet",
      "outputs": [],
      "stateMutability": "nonpayable",
      "type": "function"
    },
    {
      "inputs": [
        {
          "internalType": "address",
          "name": "owner",
          "type": "address"
        },
        {
          "internalType": "address",
          "name": "spender",
          "type": "address"
        }
      ],
      "name": "allowance",
      "outputs": [
        {
          "internalType": "uint256",
          "name": "",
          "type": "uint256"
        }
      ],
      "stateMutability": "view",
      "type": "function"
    },
    {
      "inputs": [
        {
          "internalType": "address",
          "name": "spender",
          "type": "address"
        },
        {
          "internalType": "uint256",
          "name": "amount",
          "type": "uint256"
        }
      ],
      "name": "approve",
      "outputs": [
        {
          "internalType": "bool",
          "name": "",
          "type": "bool"
        }
      ],
      "stateMutability": "nonpayable",
      "type": "function"
    },
    {
      "inputs": [
        {
          "internalType": "address",
          "name": "account",
          "type": "address"
        }
      ],
      "name": "balanceOf",
      "outputs": [
        {
          "internalType": "uint256",
          "name": "",
          "type": "uint256"
        }
      ],
      "stateMutability": "view",
      "type": "function"
    },
    {
      "inputs": [
        {
          "internalType": "address",
          "name": "ofAddress",
          "type": "address"
        }
      ],
      "name": "calculateBNBReward",
      "outputs": [
        {
          "internalType": "uint256",
          "name": "",
          "type": "uint256"
        }
      ],
      "stateMutability": "view",
      "type": "function"
    },
    {
      "inputs": [],
      "name": "claimBNBReward",
      "outputs": [],
      "stateMutability": "nonpayable",
      "type": "function"
    },
    {
      "inputs": [],
      "name": "decimals",
      "outputs": [
        {
          "internalType": "uint8",
          "name": "",
          "type": "uint8"
        }
      ],
      "stateMutability": "view",
      "type": "function"
    },
    {
      "inputs": [
        {
          "internalType": "address",
          "name": "spender",
          "type": "address"
        },
        {
          "internalType": "uint256",
          "name": "subtractedValue",
          "type": "uint256"
        }
      ],
      "name": "decreaseAllowance",
      "outputs": [
        {
          "internalType": "bool",
          "name": "",
          "type": "bool"
        }
      ],
      "stateMutability": "nonpayable",
      "type": "function"
    },
    {
      "inputs": [
        {
          "internalType": "uint256",
          "name": "tAmount",
          "type": "uint256"
        }
      ],
      "name": "deliver",
      "outputs": [],
      "stateMutability": "nonpayable",
      "type": "function"
    },
    {
      "inputs": [],
      "name": "disableEasyRewardFrom",
      "outputs": [
        {
          "internalType": "uint256",
          "name": "",
          "type": "uint256"
        }
      ],
      "stateMutability": "view",
      "type": "function"
    },
    {
      "inputs": [],
      "name": "disruptiveCoverageFee",
      "outputs": [
        {
          "internalType": "uint256",
          "name": "",
          "type": "uint256"
        }
      ],
      "stateMutability": "view",
      "type": "function"
    },
    {
      "inputs": [
        {
          "internalType": "address",
          "name": "recipient",
          "type": "address"
        },
        {
          "internalType": "uint256",
          "name": "amount",
          "type": "uint256"
        }
      ],
      "name": "disruptiveTransfer",
      "outputs": [
        {
          "internalType": "bool",
          "name": "",
          "type": "bool"
        }
      ],
      "stateMutability": "payable",
      "type": "function"
    },
    {
      "inputs": [],
      "name": "disruptiveTransferEnabledFrom",
      "outputs": [
        {
          "internalType": "uint256",
          "name": "",
          "type": "uint256"
        }
      ],
      "stateMutability": "view",
      "type": "function"
    },
    {
      "inputs": [],
      "name": "easyRewardCycleBlock",
      "outputs": [
        {
          "internalType": "uint256",
          "name": "",
          "type": "uint256"
        }
      ],
      "stateMutability": "view",
      "type": "function"
    },
    {
      "inputs": [
        {
          "internalType": "address",
          "name": "account",
          "type": "address"
        }
      ],
      "name": "excludeFromFee",
      "outputs": [],
      "stateMutability": "nonpayable",
      "type": "function"
    },
    {
      "inputs": [
        {
          "internalType": "address",
          "name": "account",
          "type": "address"
        }
      ],
      "name": "excludeFromReward",
      "outputs": [],
      "stateMutability": "nonpayable",
      "type": "function"
    },
    {
      "inputs": [],
      "name": "geUnlockTime",
      "outputs": [
        {
          "internalType": "uint256",
          "name": "",
          "type": "uint256"
        }
      ],
      "stateMutability": "view",
      "type": "function"
    },
    {
      "inputs": [],
      "name": "getRewardCycleBlock",
      "outputs": [
        {
          "internalType": "uint256",
          "name": "",
          "type": "uint256"
        }
      ],
      "stateMutability": "view",
      "type": "function"
    },
    {
      "inputs": [
        {
          "internalType": "address",
          "name": "account",
          "type": "address"
        }
      ],
      "name": "includeInFee",
      "outputs": [],
      "stateMutability": "nonpayable",
      "type": "function"
    },
    {
      "inputs": [
        {
          "internalType": "address",
          "name": "account",
          "type": "address"
        }
      ],
      "name": "includeInReward",
      "outputs": [],
      "stateMutability": "nonpayable",
      "type": "function"
    },
    {
      "inputs": [
        {
          "internalType": "address",
          "name": "spender",
          "type": "address"
        },
        {
          "internalType": "uint256",
          "name": "addedValue",
          "type": "uint256"
        }
      ],
      "name": "increaseAllowance",
      "outputs": [
        {
          "internalType": "bool",
          "name": "",
          "type": "bool"
        }
      ],
      "stateMutability": "nonpayable",
      "type": "function"
    },
    {
      "inputs": [
        {
          "internalType": "address",
          "name": "account",
          "type": "address"
        }
      ],
      "name": "isExcludedFromFee",
      "outputs": [
        {
          "internalType": "bool",
          "name": "",
          "type": "bool"
        }
      ],
      "stateMutability": "view",
      "type": "function"
    },
    {
      "inputs": [
        {
          "internalType": "address",
          "name": "account",
          "type": "address"
        }
      ],
      "name": "isExcludedFromReward",
      "outputs": [
        {
          "internalType": "bool",
          "name": "",
          "type": "bool"
        }
      ],
      "stateMutability": "view",
      "type": "function"
    },
    {
      "inputs": [
        {
          "internalType": "uint256",
          "name": "time",
          "type": "uint256"
        }
      ],
      "name": "lock",
      "outputs": [],
      "stateMutability": "nonpayable",
      "type": "function"
    },
    {
      "inputs": [],
      "name": "name",
      "outputs": [
        {
          "internalType": "string",
          "name": "",
          "type": "string"
        }
      ],
      "stateMutability": "view",
      "type": "function"
    },
    {
      "inputs": [
        {
          "internalType": "address",
          "name": "",
          "type": "address"
        }
      ],
      "name": "nextAvailableClaimDate",
      "outputs": [
        {
          "internalType": "uint256",
          "name": "",
          "type": "uint256"
        }
      ],
      "stateMutability": "view",
      "type": "function"
    },
    {
      "inputs": [],
      "name": "owner",
      "outputs": [
        {
          "internalType": "address",
          "name": "",
          "type": "address"
        }
      ],
      "stateMutability": "view",
      "type": "function"
    },
    {
      "inputs": [],
      "name": "pancakePair",
      "outputs": [
        {
          "internalType": "address",
          "name": "",
          "type": "address"
        }
      ],
      "stateMutability": "view",
      "type": "function"
    },
    {
      "inputs": [],
      "name": "pancakeRouter",
      "outputs": [
        {
          "internalType": "contract IPancakeRouter02",
          "name": "",
          "type": "address"
        }
      ],
      "stateMutability": "view",
      "type": "function"
    },
    {
      "inputs": [
        {
          "internalType": "uint256",
          "name": "tAmount",
          "type": "uint256"
        },
        {
          "internalType": "bool",
          "name": "deductTransferFee",
          "type": "bool"
        }
      ],
      "name": "reflectionFromToken",
      "outputs": [
        {
          "internalType": "uint256",
          "name": "",
          "type": "uint256"
        }
      ],
      "stateMutability": "view",
      "type": "function"
    },
    {
      "inputs": [],
      "name": "renounceOwnership",
      "outputs": [],
      "stateMutability": "nonpayable",
      "type": "function"
    },
    {
      "inputs": [],
      "name": "rewardCycleBlock",
      "outputs": [
        {
          "internalType": "uint256",
          "name": "",
          "type": "uint256"
        }
      ],
      "stateMutability": "view",
      "type": "function"
    },
    {
      "inputs": [
        {
          "internalType": "uint256",
          "name": "durationTime",
          "type": "uint256"
        }
      ],
      "name": "setDisableEasyRewardFrom",
      "outputs": [],
      "stateMutability": "nonpayable",
      "type": "function"
    },
    {
      "inputs": [
        {
          "internalType": "uint256",
          "name": "value",
          "type": "uint256"
        }
      ],
      "name": "setDisruptiveCoverageFee",
      "outputs": [],
      "stateMutability": "nonpayable",
      "type": "function"
    },
    {
      "inputs": [
        {
          "internalType": "uint256",
          "name": "durationTime",
          "type": "uint256"
        }
      ],
      "name": "setDisruptiveTransferEnabledFrom",
      "outputs": [],
      "stateMutability": "nonpayable",
      "type": "function"
    },
    {
      "inputs": [
        {
          "internalType": "uint256",
          "name": "liquidityFee",
          "type": "uint256"
        }
      ],
      "name": "setLiquidityFeePercent",
      "outputs": [],
      "stateMutability": "nonpayable",
      "type": "function"
    },
    {
      "inputs": [
        {
          "internalType": "uint256",
          "name": "maxTxPercent",
          "type": "uint256"
        }
      ],
      "name": "setMaxTxPercent",
      "outputs": [],
      "stateMutability": "nonpayable",
      "type": "function"
    },
    {
      "inputs": [
        {
          "internalType": "uint256",
          "name": "value",
          "type": "uint256"
        }
      ],
      "name": "setRewardCycleBlock",
      "outputs": [],
      "stateMutability": "nonpayable",
      "type": "function"
    },
    {
      "inputs": [
        {
          "internalType": "bool",
          "name": "_enabled",
          "type": "bool"
        }
      ],
      "name": "setSwapAndLiquifyEnabled",
      "outputs": [],
      "stateMutability": "nonpayable",
      "type": "function"
    },
    {
      "inputs": [
        {
          "internalType": "uint256",
          "name": "taxFee",
          "type": "uint256"
        }
      ],
      "name": "setTaxFeePercent",
      "outputs": [],
      "stateMutability": "nonpayable",
      "type": "function"
    },
    {
      "inputs": [
        {
          "internalType": "uint256",
          "name": "value",
          "type": "uint256"
        }
      ],
      "name": "setThreshHoldTopUpRate",
      "outputs": [],
      "stateMutability": "nonpayable",
      "type": "function"
    },
    {
      "inputs": [
        {
          "internalType": "uint256",
          "name": "value",
          "type": "uint256"
        }
      ],
      "name": "setWinningDoubleRewardPercentage",
      "outputs": [],
      "stateMutability": "nonpayable",
      "type": "function"
    },
    {
      "inputs": [],
      "name": "swapAndLiquifyEnabled",
      "outputs": [
        {
          "internalType": "bool",
          "name": "",
          "type": "bool"
        }
      ],
      "stateMutability": "view",
      "type": "function"
    },
    {
      "inputs": [],
      "name": "symbol",
      "outputs": [
        {
          "internalType": "string",
          "name": "",
          "type": "string"
        }
      ],
      "stateMutability": "view",
      "type": "function"
    },
    {
      "inputs": [],
      "name": "threshHoldTopUpRate",
      "outputs": [
        {
          "internalType": "uint256",
          "name": "",
          "type": "uint256"
        }
      ],
      "stateMutability": "view",
      "type": "function"
    },
    {
      "inputs": [
        {
          "internalType": "uint256",
          "name": "rAmount",
          "type": "uint256"
        }
      ],
      "name": "tokenFromReflection",
      "outputs": [
        {
          "internalType": "uint256",
          "name": "",
          "type": "uint256"
        }
      ],
      "stateMutability": "view",
      "type": "function"
    },
    {
      "inputs": [],
      "name": "totalFees",
      "outputs": [
        {
          "internalType": "uint256",
          "name": "",
          "type": "uint256"
        }
      ],
      "stateMutability": "view",
      "type": "function"
    },
    {
      "inputs": [],
      "name": "totalSupply",
      "outputs": [
        {
          "internalType": "uint256",
          "name": "",
          "type": "uint256"
        }
      ],
      "stateMutability": "view",
      "type": "function"
    },
    {
      "inputs": [
        {
          "internalType": "address",
          "name": "recipient",
          "type": "address"
        },
        {
          "internalType": "uint256",
          "name": "amount",
          "type": "uint256"
        }
      ],
      "name": "transfer",
      "outputs": [
        {
          "internalType": "bool",
          "name": "",
          "type": "bool"
        }
      ],
      "stateMutability": "nonpayable",
      "type": "function"
    },
    {
      "inputs": [
        {
          "internalType": "address",
          "name": "sender",
          "type": "address"
        },
        {
          "internalType": "address",
          "name": "recipient",
          "type": "address"
        },
        {
          "internalType": "uint256",
          "name": "amount",
          "type": "uint256"
        }
      ],
      "name": "transferFrom",
      "outputs": [
        {
          "internalType": "bool",
          "name": "",
          "type": "bool"
        }
      ],
      "stateMutability": "nonpayable",
      "type": "function"
    },
    {
      "inputs": [
        {
          "internalType": "address",
          "name": "newOwner",
          "type": "address"
        }
      ],
      "name": "transferOwnership",
      "outputs": [],
      "stateMutability": "nonpayable",
      "type": "function"
    },
    {
      "inputs": [],
      "name": "unlock",
      "outputs": [],
      "stateMutability": "nonpayable",
      "type": "function"
    },
    {
      "inputs": [],
      "name": "winningDoubleRewardPercentage",
      "outputs": [
        {
          "internalType": "uint256",
          "name": "",
          "type": "uint256"
        }
      ],
      "stateMutability": "view",
      "type": "function"
    },
    {
      "stateMutability": "payable",
      "type": "receive"
    }
  ],
  "bytecode": "0x60c060405269d3c21bcecceda1000000600955600954600019816200002057fe5b0660001903600a556040518060400160405280600e81526020017f4d6f6f6e2052617420546f6b656e000000000000000000000000000000000000815250600c9080519060200190620000759291906200075d565b506040518060400160405280600481526020017f4d52415400000000000000000000000000000000000000000000000000000000815250600d9080519060200190620000c39291906200075d565b506009600e60006101000a81548160ff021916908360ff16021790555062093a80600f55620151806010556002601155600954601255671bc16d674ec800006013556000601560006101000a81548160ff0219169083151502179055506000601655600060175560056018556002601955601954601a556008601b55601b54601c556200017d612710620001696005600954620005ff60201b620031aa1790919060201c565b6200067560201b6200321a1790919060201c565b601d553480156200018d57600080fd5b5060405162006b0038038062006b008339818101604052810190620001b3919062000866565b6000620001c5620006c760201b60201c565b9050806000806101000a81548173ffffffffffffffffffffffffffffffffffffffff021916908373ffffffffffffffffffffffffffffffffffffffff1602179055508073ffffffffffffffffffffffffffffffffffffffff16600073ffffffffffffffffffffffffffffffffffffffff167f8be0079c531659141344cd1fd0a4f28419497f9722a3daafe3b4186f6b6457e060405160405180910390a350600a54600360006200027a620006c760201b60201c565b73ffffffffffffffffffffffffffffffffffffffff1673ffffffffffffffffffffffffffffffffffffffff1681526020019081526020016000208190555060008190508073ffffffffffffffffffffffffffffffffffffffff1663c45a01556040518163ffffffff1660e01b815260040160206040518083038186803b1580156200030457600080fd5b505afa15801562000319573d6000803e3d6000fd5b505050506040513d601f19601f820116820180604052508101906200033f91906200083a565b73ffffffffffffffffffffffffffffffffffffffff1663c9c65396308373ffffffffffffffffffffffffffffffffffffffff1663ad5c46486040518163ffffffff1660e01b815260040160206040518083038186803b158015620003a257600080fd5b505afa158015620003b7573d6000803e3d6000fd5b505050506040513d601f19601f82011682018060405250810190620003dd91906200083a565b6040518363ffffffff1660e01b8152600401620003fc9291906200096e565b602060405180830381600087803b1580156200041757600080fd5b505af11580156200042c573d6000803e3d6000fd5b505050506040513d601f19601f820116820180604052508101906200045291906200083a565b73ffffffffffffffffffffffffffffffffffffffff1660a08173ffffffffffffffffffffffffffffffffffffffff1660601b815250508073ffffffffffffffffffffffffffffffffffffffff1660808173ffffffffffffffffffffffffffffffffffffffff1660601b81525050600160066000620004d5620006cf60201b60201c565b73ffffffffffffffffffffffffffffffffffffffff1673ffffffffffffffffffffffffffffffffffffffff16815260200190815260200160002060006101000a81548160ff0219169083151502179055506001600660003073ffffffffffffffffffffffffffffffffffffffff1673ffffffffffffffffffffffffffffffffffffffff16815260200190815260200160002060006101000a81548160ff0219169083151502179055506200058e620006c760201b60201c565b73ffffffffffffffffffffffffffffffffffffffff16600073ffffffffffffffffffffffffffffffffffffffff167fddf252ad1be2c89b69c2b068fc378daa952ba7f163c4a11628f55a4df523b3ef600954604051620005ef9190620009e1565b60405180910390a3505062000b23565b6000808314156200061457600090506200066f565b60008284029050828482816200062657fe5b04146200066a576040517f08c379a00000000000000000000000000000000000000000000000000000000081526004016200066190620009bf565b60405180910390fd5b809150505b92915050565b6000620006bf83836040518060400160405280601a81526020017f536166654d6174683a206469766973696f6e206279207a65726f000000000000815250620006f860201b60201c565b905092915050565b600033905090565b60008060009054906101000a900473ffffffffffffffffffffffffffffffffffffffff16905090565b6000808311829062000742576040517f08c379a00000000000000000000000000000000000000000000000000000000081526004016200073991906200099b565b60405180910390fd5b5060008385816200074f57fe5b049050809150509392505050565b828054600181600116156101000203166002900490600052602060002090601f016020900481019282601f10620007a057805160ff1916838001178555620007d1565b82800160010185558215620007d1579182015b82811115620007d0578251825591602001919060010190620007b3565b5b509050620007e09190620007e4565b5090565b6200080991905b8082111562000805576000816000905550600101620007eb565b5090565b90565b6000815190506200081d8162000aef565b92915050565b600081519050620008348162000b09565b92915050565b6000602082840312156200084d57600080fd5b60006200085d848285016200080c565b91505092915050565b6000602082840312156200087957600080fd5b6000620008898482850162000823565b91505092915050565b6200089d8162000a6c565b82525050565b620008ae8162000a1a565b82525050565b6000620008c182620009fe565b620008cd818562000a09565b9350620008df81856020860162000aa8565b620008ea8162000ade565b840191505092915050565b60006200090460218362000a09565b91507f536166654d6174683a206d756c7469706c69636174696f6e206f766572666c6f60008301527f77000000000000000000000000000000000000000000000000000000000000006020830152604082019050919050565b620009688162000a62565b82525050565b600060408201905062000985600083018562000892565b620009946020830184620008a3565b9392505050565b60006020820190508181036000830152620009b78184620008b4565b905092915050565b60006020820190508181036000830152620009da81620008f5565b9050919050565b6000602082019050620009f860008301846200095d565b92915050565b600081519050919050565b600082825260208201905092915050565b600062000a278262000a42565b9050919050565b600062000a3b8262000a42565b9050919050565b600073ffffffffffffffffffffffffffffffffffffffff82169050919050565b6000819050919050565b600062000a798262000a80565b9050919050565b600062000a8d8262000a94565b9050919050565b600062000aa18262000a42565b9050919050565b60005b8381101562000ac857808201518184015260208101905062000aab565b8381111562000ad8576000848401525b50505050565b6000601f19601f8301169050919050565b62000afa8162000a1a565b811462000b0657600080fd5b50565b62000b148162000a2e565b811462000b2057600080fd5b50565b60805160601c60a05160601c615f9562000b6b600039806128dd528061393f52806139e55250806124e45280612901528061315d5280613ad05280613b885250615f956000f3fe60806040526004361061037a5760003560e01c806370f93508116101d1578063a69df4b511610102578063d543dbeb116100a0578063ea2f0b371161006f578063ea2f0b3714610cee578063f2fde38b14610d17578063fc16b6eb14610d40578063fda48a7314610d5757610381565b8063d543dbeb14610c36578063dc45a85d14610c5f578063dd46706414610c88578063dd62ed3e14610cb157610381565b8063b6c52324116100dc578063b6c5232414610b8c578063b8c9d25c14610bb7578063c21ebd0714610be2578063c49b9a8014610c0d57610381565b8063a69df4b514610afb578063a9059cbb14610b12578063b47fd56314610b4f57610381565b80638ee88c531161016f57806395ba68d71161014957806395ba68d714610a3d57806395d89b4114610a685780639bb4dc6014610a93578063a457c2d714610abe57610381565b80638ee88c53146109d25780638fda356d146109fb5780638feed79a14610a1257610381565b80637d1db4a5116101ab5780637d1db4a51461091657806388f82020146109415780638c250c611461097e5780638da5cb5b146109a757610381565b806370f93508146108ab578063715018a6146108d45780637217f4bc146108eb57610381565b80633bd5d173116102ab5780635342acb4116102495780636a40701c116102235780636a40701c146108015780636bc87c3a146108185780636d33a4681461084357806370a082311461086e57610381565b80635342acb4146107705780635c9827a7146107ad5780635e4196ab146107d657610381565b80634549b039116102855780634549b039146106b65780634a74bb02146106f3578063519c05831461071e57806352390c021461074757610381565b80633bd5d173146106345780633d87ea751461065d578063437823ec1461068d57610381565b806323b872dd116103185780633685d419116102f25780633685d4191461057857806337ad7cf5146105a157806339509351146105cc5780633b124fe71461060957610381565b806323b872dd146104d35780632d83811914610510578063313ce5671461054d57610381565b8063095ea7b311610354578063095ea7b31461040357806313114a9d1461044057806318160ddd1461046b5780632060995e1461049657610381565b806304bd6b1d14610386578063061c82d0146103af57806306fdde03146103d857610381565b3661038157005b600080fd5b34801561039257600080fd5b506103ad60048036038101906103a89190615192565b610d82565b005b3480156103bb57600080fd5b506103d660048036038101906103d19190615192565b610e24565b005b3480156103e457600080fd5b506103ed610ec4565b6040516103fa9190615a3e565b60405180910390f35b34801561040f57600080fd5b5061042a6004803603810190610425919061512d565b610f66565b6040516104379190615a08565b60405180910390f35b34801561044c57600080fd5b50610455610f84565b6040516104629190615ca0565b60405180910390f35b34801561047757600080fd5b50610480610f8e565b60405161048d9190615ca0565b60405180910390f35b3480156104a257600080fd5b506104bd60048036038101906104b89190615079565b610f98565b6040516104ca9190615ca0565b60405180910390f35b3480156104df57600080fd5b506104fa60048036038101906104f591906150de565b61107c565b6040516105079190615a08565b60405180910390f35b34801561051c57600080fd5b5061053760048036038101906105329190615192565b611157565b6040516105449190615ca0565b60405180910390f35b34801561055957600080fd5b506105626111c5565b60405161056f9190615d98565b60405180910390f35b34801561058457600080fd5b5061059f600480360381019061059a9190615079565b6111dc565b005b3480156105ad57600080fd5b506105b6611504565b6040516105c39190615ca0565b60405180910390f35b3480156105d857600080fd5b506105f360048036038101906105ee919061512d565b61150a565b6040516106009190615a08565b60405180910390f35b34801561061557600080fd5b5061061e6115bd565b60405161062b9190615ca0565b60405180910390f35b34801561064057600080fd5b5061065b60048036038101906106569190615192565b6115c3565b005b6106776004803603810190610672919061512d565b61173e565b6040516106849190615a08565b60405180910390f35b34801561069957600080fd5b506106b460048036038101906106af9190615079565b61175d565b005b3480156106c257600080fd5b506106dd60048036038101906106d891906151e4565b61184e565b6040516106ea9190615ca0565b60405180910390f35b3480156106ff57600080fd5b506107086118d2565b6040516107159190615a08565b60405180910390f35b34801561072a57600080fd5b5061074560048036038101906107409190615192565b6118e5565b005b34801561075357600080fd5b5061076e60048036038101906107699190615079565b611985565b005b34801561077c57600080fd5b5061079760048036038101906107929190615079565b611c3a565b6040516107a49190615a08565b60405180910390f35b3480156107b957600080fd5b506107d460048036038101906107cf9190615192565b611c90565b005b3480156107e257600080fd5b506107eb611d30565b6040516107f89190615ca0565b60405180910390f35b34801561080d57600080fd5b50610816611d36565b005b34801561082457600080fd5b5061082d611f3c565b60405161083a9190615ca0565b60405180910390f35b34801561084f57600080fd5b50610858611f42565b6040516108659190615ca0565b60405180910390f35b34801561087a57600080fd5b5061089560048036038101906108909190615079565b611f48565b6040516108a29190615ca0565b60405180910390f35b3480156108b757600080fd5b506108d260048036038101906108cd9190615192565b612033565b005b3480156108e057600080fd5b506108e96120d5565b005b3480156108f757600080fd5b5061090061222a565b60405161090d9190615ca0565b60405180910390f35b34801561092257600080fd5b5061092b612230565b6040516109389190615ca0565b60405180910390f35b34801561094d57600080fd5b5061096860048036038101906109639190615079565b612236565b6040516109759190615a08565b60405180910390f35b34801561098a57600080fd5b506109a560048036038101906109a09190615192565b61228c565b005b3480156109b357600080fd5b506109bc61232c565b6040516109c99190615948565b60405180910390f35b3480156109de57600080fd5b506109f960048036038101906109f49190615192565b612355565b005b348015610a0757600080fd5b50610a106123f5565b005b348015610a1e57600080fd5b50610a2761252b565b604051610a349190615ca0565b60405180910390f35b348015610a4957600080fd5b50610a52612531565b604051610a5f9190615ca0565b60405180910390f35b348015610a7457600080fd5b50610a7d612537565b604051610a8a9190615a3e565b60405180910390f35b348015610a9f57600080fd5b50610aa86125d9565b604051610ab59190615ca0565b60405180910390f35b348015610aca57600080fd5b50610ae56004803603810190610ae0919061512d565b6125f7565b604051610af29190615a08565b60405180910390f35b348015610b0757600080fd5b50610b106126c4565b005b348015610b1e57600080fd5b50610b396004803603810190610b34919061512d565b612899565b604051610b469190615a08565b60405180910390f35b348015610b5b57600080fd5b50610b766004803603810190610b719190615079565b6128b9565b604051610b839190615ca0565b60405180910390f35b348015610b9857600080fd5b50610ba16128d1565b604051610bae9190615ca0565b60405180910390f35b348015610bc357600080fd5b50610bcc6128db565b604051610bd99190615948565b60405180910390f35b348015610bee57600080fd5b50610bf76128ff565b604051610c049190615a23565b60405180910390f35b348015610c1957600080fd5b50610c346004803603810190610c2f9190615169565b612923565b005b348015610c4257600080fd5b50610c5d6004803603810190610c589190615192565b612a0d565b005b348015610c6b57600080fd5b50610c866004803603810190610c819190615192565b612ad5565b005b348015610c9457600080fd5b50610caf6004803603810190610caa9190615192565b612b75565b005b348015610cbd57600080fd5b50610cd86004803603810190610cd391906150a2565b612d36565b604051610ce59190615ca0565b60405180910390f35b348015610cfa57600080fd5b50610d156004803603810190610d109190615079565b612dbd565b005b348015610d2357600080fd5b50610d3e6004803603810190610d399190615079565b612eae565b005b348015610d4c57600080fd5b50610d55613072565b005b348015610d6357600080fd5b50610d6c6131a4565b604051610d799190615ca0565b60405180910390f35b610d8a613264565b73ffffffffffffffffffffffffffffffffffffffff166000809054906101000a900473ffffffffffffffffffffffffffffffffffffffff1673ffffffffffffffffffffffffffffffffffffffff1614610e18576040517f08c379a0000000000000000000000000000000000000000000000000000000008152600401610e0f90615ba0565b60405180910390fd5b80420160168190555050565b610e2c613264565b73ffffffffffffffffffffffffffffffffffffffff166000809054906101000a900473ffffffffffffffffffffffffffffffffffffffff1673ffffffffffffffffffffffffffffffffffffffff1614610eba576040517f08c379a0000000000000000000000000000000000000000000000000000000008152600401610eb190615ba0565b60405180910390fd5b8060198190555050565b6060600c8054600181600116156101000203166002900480601f016020809104026020016040519081016040528092919081815260200182805460018160011615610100020316600290048015610f5c5780601f10610f3157610100808354040283529160200191610f5c565b820191906000526020600020905b815481529060010190602001808311610f3f57829003601f168201915b5050505050905090565b6000610f7a610f73613264565b848461326c565b6001905092915050565b6000600b54905090565b6000600954905090565b600080610fd5610fa961dead611f48565b610fc7610fb66000611f48565b60095461343790919063ffffffff16565b61343790919063ffffffff16565b905073__$53bcfff703058d1366cb9df10eca7db15d$__63163296bc600954610ffd86611f48565b4760185486896040518763ffffffff1660e01b815260040161102496959493929190615d37565b60206040518083038186803b15801561103c57600080fd5b505af4158015611050573d6000803e3d6000fd5b505050506040513d601f19601f8201168201806040525081019061107491906151bb565b915050919050565b600061108b8484846000613481565b61114c84611097613264565b61114785604051806060016040528060288152602001615f1360289139600560008b73ffffffffffffffffffffffffffffffffffffffff1673ffffffffffffffffffffffffffffffffffffffff16815260200190815260200160002060006110fd613264565b73ffffffffffffffffffffffffffffffffffffffff1673ffffffffffffffffffffffffffffffffffffffff1681526020019081526020016000205461367e9092919063ffffffff16565b61326c565b600190509392505050565b6000600a5482111561119e576040517f08c379a000000000000000000000000000000000000000000000000000000000815260040161119590615ac0565b60405180910390fd5b60006111a86136d9565b90506111bd818461321a90919063ffffffff16565b915050919050565b6000600e60009054906101000a900460ff16905090565b6111e4613264565b73ffffffffffffffffffffffffffffffffffffffff166000809054906101000a900473ffffffffffffffffffffffffffffffffffffffff1673ffffffffffffffffffffffffffffffffffffffff1614611272576040517f08c379a000000000000000000000000000000000000000000000000000000000815260040161126990615ba0565b60405180910390fd5b600760008273ffffffffffffffffffffffffffffffffffffffff1673ffffffffffffffffffffffffffffffffffffffff16815260200190815260200160002060009054906101000a900460ff166112fe576040517f08c379a00000000000000000000000000000000000000000000000000000000081526004016112f590615b20565b60405180910390fd5b60008090505b600880549050811015611500578173ffffffffffffffffffffffffffffffffffffffff166008828154811061133557fe5b9060005260206000200160009054906101000a900473ffffffffffffffffffffffffffffffffffffffff1673ffffffffffffffffffffffffffffffffffffffff1614156114f35760086001600880549050038154811061139157fe5b9060005260206000200160009054906101000a900473ffffffffffffffffffffffffffffffffffffffff16600882815481106113c957fe5b9060005260206000200160006101000a81548173ffffffffffffffffffffffffffffffffffffffff021916908373ffffffffffffffffffffffffffffffffffffffff1602179055506000600460008473ffffffffffffffffffffffffffffffffffffffff1673ffffffffffffffffffffffffffffffffffffffff168152602001908152602001600020819055506000600760008473ffffffffffffffffffffffffffffffffffffffff1673ffffffffffffffffffffffffffffffffffffffff16815260200190815260200160002060006101000a81548160ff02191690831515021790555060088054806114b957fe5b6001900381819060005260206000200160006101000a81549073ffffffffffffffffffffffffffffffffffffffff02191690559055611500565b8080600101915050611304565b5050565b60105481565b60006115b3611517613264565b846115ae8560056000611528613264565b73ffffffffffffffffffffffffffffffffffffffff1673ffffffffffffffffffffffffffffffffffffffff16815260200190815260200160002060008973ffffffffffffffffffffffffffffffffffffffff1673ffffffffffffffffffffffffffffffffffffffff1681526020019081526020016000205461370490919063ffffffff16565b61326c565b6001905092915050565b60195481565b60006115cd613264565b9050600760008273ffffffffffffffffffffffffffffffffffffffff1673ffffffffffffffffffffffffffffffffffffffff16815260200190815260200160002060009054906101000a900460ff161561165c576040517f08c379a000000000000000000000000000000000000000000000000000000000815260040161165390615c40565b60405180910390fd5b600061166783613759565b505050505090506116c081600360008573ffffffffffffffffffffffffffffffffffffffff1673ffffffffffffffffffffffffffffffffffffffff1681526020019081526020016000205461343790919063ffffffff16565b600360008473ffffffffffffffffffffffffffffffffffffffff1673ffffffffffffffffffffffffffffffffffffffff1681526020019081526020016000208190555061171881600a5461343790919063ffffffff16565b600a8190555061173383600b5461370490919063ffffffff16565b600b81905550505050565b600061175361174b613264565b848434613481565b6001905092915050565b611765613264565b73ffffffffffffffffffffffffffffffffffffffff166000809054906101000a900473ffffffffffffffffffffffffffffffffffffffff1673ffffffffffffffffffffffffffffffffffffffff16146117f3576040517f08c379a00000000000000000000000000000000000000000000000000000000081526004016117ea90615ba0565b60405180910390fd5b6001600660008373ffffffffffffffffffffffffffffffffffffffff1673ffffffffffffffffffffffffffffffffffffffff16815260200190815260200160002060006101000a81548160ff02191690831515021790555050565b6000600954831115611895576040517f08c379a000000000000000000000000000000000000000000000000000000000815260040161188c90615b40565b60405180910390fd5b816118b55760006118a584613759565b50505050509050809150506118cc565b60006118c084613759565b50505050915050809150505b92915050565b601560009054906101000a900460ff1681565b6118ed613264565b73ffffffffffffffffffffffffffffffffffffffff166000809054906101000a900473ffffffffffffffffffffffffffffffffffffffff1673ffffffffffffffffffffffffffffffffffffffff161461197b576040517f08c379a000000000000000000000000000000000000000000000000000000000815260040161197290615ba0565b60405180910390fd5b8060138190555050565b61198d613264565b73ffffffffffffffffffffffffffffffffffffffff166000809054906101000a900473ffffffffffffffffffffffffffffffffffffffff1673ffffffffffffffffffffffffffffffffffffffff1614611a1b576040517f08c379a0000000000000000000000000000000000000000000000000000000008152600401611a1290615ba0565b60405180910390fd5b600760008273ffffffffffffffffffffffffffffffffffffffff1673ffffffffffffffffffffffffffffffffffffffff16815260200190815260200160002060009054906101000a900460ff1615611aa8576040517f08c379a0000000000000000000000000000000000000000000000000000000008152600401611a9f90615b20565b60405180910390fd5b6000600360008373ffffffffffffffffffffffffffffffffffffffff1673ffffffffffffffffffffffffffffffffffffffff168152602001908152602001600020541115611b7c57611b38600360008373ffffffffffffffffffffffffffffffffffffffff1673ffffffffffffffffffffffffffffffffffffffff16815260200190815260200160002054611157565b600460008373ffffffffffffffffffffffffffffffffffffffff1673ffffffffffffffffffffffffffffffffffffffff168152602001908152602001600020819055505b6001600760008373ffffffffffffffffffffffffffffffffffffffff1673ffffffffffffffffffffffffffffffffffffffff16815260200190815260200160002060006101000a81548160ff0219169083151502179055506008819080600181540180825580915050600190039060005260206000200160009091909190916101000a81548173ffffffffffffffffffffffffffffffffffffffff021916908373ffffffffffffffffffffffffffffffffffffffff16021790555050565b6000600660008373ffffffffffffffffffffffffffffffffffffffff1673ffffffffffffffffffffffffffffffffffffffff16815260200190815260200160002060009054906101000a900460ff169050919050565b611c98613264565b73ffffffffffffffffffffffffffffffffffffffff166000809054906101000a900473ffffffffffffffffffffffffffffffffffffffff1673ffffffffffffffffffffffffffffffffffffffff1614611d26576040517f08c379a0000000000000000000000000000000000000000000000000000000008152600401611d1d90615ba0565b60405180910390fd5b8060188190555050565b60165481565b42601460003373ffffffffffffffffffffffffffffffffffffffff1673ffffffffffffffffffffffffffffffffffffffff168152602001908152602001600020541115611db8576040517f08c379a0000000000000000000000000000000000000000000000000000000008152600401611daf90615a60565b60405180910390fd5b6000611dc333610f98565b905060003373ffffffffffffffffffffffffffffffffffffffff1682604051611deb90615933565b60006040518083038185875af1925050503d8060008114611e28576040519150601f19603f3d011682016040523d82523d6000602084013e611e2d565b606091505b5050905080611e71576040517f08c379a0000000000000000000000000000000000000000000000000000000008152600401611e6890615c00565b60405180910390fd5b611e796125d9565b4201601460003373ffffffffffffffffffffffffffffffffffffffff1673ffffffffffffffffffffffffffffffffffffffff168152602001908152602001600020819055507f76a3a606d310d32750e15a3d246d186b789084096189d51661559b0f97f3bec93383601460003373ffffffffffffffffffffffffffffffffffffffff1673ffffffffffffffffffffffffffffffffffffffff16815260200190815260200160002054604051611f3093929190615963565b60405180910390a15050565b601b5481565b60135481565b6000600760008373ffffffffffffffffffffffffffffffffffffffff1673ffffffffffffffffffffffffffffffffffffffff16815260200190815260200160002060009054906101000a900460ff1615611fe357600460008373ffffffffffffffffffffffffffffffffffffffff1673ffffffffffffffffffffffffffffffffffffffff16815260200190815260200160002054905061202e565b61202b600360008473ffffffffffffffffffffffffffffffffffffffff1673ffffffffffffffffffffffffffffffffffffffff16815260200190815260200160002054611157565b90505b919050565b61203b613264565b73ffffffffffffffffffffffffffffffffffffffff166000809054906101000a900473ffffffffffffffffffffffffffffffffffffffff1673ffffffffffffffffffffffffffffffffffffffff16146120c9576040517f08c379a00000000000000000000000000000000000000000000000000000000081526004016120c090615ba0565b60405180910390fd5b80420160178190555050565b6120dd613264565b73ffffffffffffffffffffffffffffffffffffffff166000809054906101000a900473ffffffffffffffffffffffffffffffffffffffff1673ffffffffffffffffffffffffffffffffffffffff161461216b576040517f08c379a000000000000000000000000000000000000000000000000000000000815260040161216290615ba0565b60405180910390fd5b600073ffffffffffffffffffffffffffffffffffffffff166000809054906101000a900473ffffffffffffffffffffffffffffffffffffffff1673ffffffffffffffffffffffffffffffffffffffff167f8be0079c531659141344cd1fd0a4f28419497f9722a3daafe3b4186f6b6457e060405160405180910390a360008060006101000a81548173ffffffffffffffffffffffffffffffffffffffff021916908373ffffffffffffffffffffffffffffffffffffffff160217905550565b600f5481565b60125481565b6000600760008373ffffffffffffffffffffffffffffffffffffffff1673ffffffffffffffffffffffffffffffffffffffff16815260200190815260200160002060009054906101000a900460ff169050919050565b612294613264565b73ffffffffffffffffffffffffffffffffffffffff166000809054906101000a900473ffffffffffffffffffffffffffffffffffffffff1673ffffffffffffffffffffffffffffffffffffffff1614612322576040517f08c379a000000000000000000000000000000000000000000000000000000000815260040161231990615ba0565b60405180910390fd5b80600f8190555050565b60008060009054906101000a900473ffffffffffffffffffffffffffffffffffffffff16905090565b61235d613264565b73ffffffffffffffffffffffffffffffffffffffff166000809054906101000a900473ffffffffffffffffffffffffffffffffffffffff1673ffffffffffffffffffffffffffffffffffffffff16146123eb576040517f08c379a00000000000000000000000000000000000000000000000000000000081526004016123e290615ba0565b60405180910390fd5b80601b8190555050565b6123fd613264565b73ffffffffffffffffffffffffffffffffffffffff166000809054906101000a900473ffffffffffffffffffffffffffffffffffffffff1673ffffffffffffffffffffffffffffffffffffffff161461248b576040517f08c379a000000000000000000000000000000000000000000000000000000000815260040161248290615ba0565b60405180910390fd5b6124956005612a0d565b61249f6001612923565b6124ab62093a8061228c565b6124bc671bc16d674ec800006118e5565b6124c862093a80610d82565b6124d462093a80612033565b6124de6005611c90565b612529307f00000000000000000000000000000000000000000000000000000000000000007fffffffffffffffffffffffffffffffffffffffffffffffffffffffffffffffff61326c565b565b60185481565b60175481565b6060600d8054600181600116156101000203166002900480601f0160208091040260200160405190810160405280929190818152602001828054600181600116156101000203166002900480156125cf5780601f106125a4576101008083540402835291602001916125cf565b820191906000526020600020905b8154815290600101906020018083116125b257829003601f168201915b5050505050905090565b600060175442106125ee57600f5490506125f4565b60105490505b90565b60006126ba612604613264565b846126b585604051806060016040528060258152602001615f3b602591396005600061262e613264565b73ffffffffffffffffffffffffffffffffffffffff1673ffffffffffffffffffffffffffffffffffffffff16815260200190815260200160002060008a73ffffffffffffffffffffffffffffffffffffffff1673ffffffffffffffffffffffffffffffffffffffff1681526020019081526020016000205461367e9092919063ffffffff16565b61326c565b6001905092915050565b3373ffffffffffffffffffffffffffffffffffffffff16600160009054906101000a900473ffffffffffffffffffffffffffffffffffffffff1673ffffffffffffffffffffffffffffffffffffffff1614612754576040517f08c379a000000000000000000000000000000000000000000000000000000000815260040161274b90615c80565b60405180910390fd5b6002544211612798576040517f08c379a000000000000000000000000000000000000000000000000000000000815260040161278f90615c20565b60405180910390fd5b600160009054906101000a900473ffffffffffffffffffffffffffffffffffffffff1673ffffffffffffffffffffffffffffffffffffffff166000809054906101000a900473ffffffffffffffffffffffffffffffffffffffff1673ffffffffffffffffffffffffffffffffffffffff167f8be0079c531659141344cd1fd0a4f28419497f9722a3daafe3b4186f6b6457e060405160405180910390a3600160009054906101000a900473ffffffffffffffffffffffffffffffffffffffff166000806101000a81548173ffffffffffffffffffffffffffffffffffffffff021916908373ffffffffffffffffffffffffffffffffffffffff160217905550565b60006128af6128a6613264565b84846000613481565b6001905092915050565b60146020528060005260406000206000915090505481565b6000600254905090565b7f000000000000000000000000000000000000000000000000000000000000000081565b7f000000000000000000000000000000000000000000000000000000000000000081565b61292b613264565b73ffffffffffffffffffffffffffffffffffffffff166000809054906101000a900473ffffffffffffffffffffffffffffffffffffffff1673ffffffffffffffffffffffffffffffffffffffff16146129b9576040517f08c379a00000000000000000000000000000000000000000000000000000000081526004016129b090615ba0565b60405180910390fd5b80601560006101000a81548160ff0219169083151502179055507f53726dfcaf90650aa7eb35524f4d3220f07413c8d6cb404cc8c18bf5591bc15981604051612a029190615a08565b60405180910390a150565b612a15613264565b73ffffffffffffffffffffffffffffffffffffffff166000809054906101000a900473ffffffffffffffffffffffffffffffffffffffff1673ffffffffffffffffffffffffffffffffffffffff1614612aa3576040517f08c379a0000000000000000000000000000000000000000000000000000000008152600401612a9a90615ba0565b60405180910390fd5b612acc612710612abe836009546131aa90919063ffffffff16565b61321a90919063ffffffff16565b60128190555050565b612add613264565b73ffffffffffffffffffffffffffffffffffffffff166000809054906101000a900473ffffffffffffffffffffffffffffffffffffffff1673ffffffffffffffffffffffffffffffffffffffff1614612b6b576040517f08c379a0000000000000000000000000000000000000000000000000000000008152600401612b6290615ba0565b60405180910390fd5b8060118190555050565b612b7d613264565b73ffffffffffffffffffffffffffffffffffffffff166000809054906101000a900473ffffffffffffffffffffffffffffffffffffffff1673ffffffffffffffffffffffffffffffffffffffff1614612c0b576040517f08c379a0000000000000000000000000000000000000000000000000000000008152600401612c0290615ba0565b60405180910390fd5b6000809054906101000a900473ffffffffffffffffffffffffffffffffffffffff16600160006101000a81548173ffffffffffffffffffffffffffffffffffffffff021916908373ffffffffffffffffffffffffffffffffffffffff16021790555060008060006101000a81548173ffffffffffffffffffffffffffffffffffffffff021916908373ffffffffffffffffffffffffffffffffffffffff160217905550804201600281905550600073ffffffffffffffffffffffffffffffffffffffff166000809054906101000a900473ffffffffffffffffffffffffffffffffffffffff1673ffffffffffffffffffffffffffffffffffffffff167f8be0079c531659141344cd1fd0a4f28419497f9722a3daafe3b4186f6b6457e060405160405180910390a350565b6000600560008473ffffffffffffffffffffffffffffffffffffffff1673ffffffffffffffffffffffffffffffffffffffff16815260200190815260200160002060008373ffffffffffffffffffffffffffffffffffffffff1673ffffffffffffffffffffffffffffffffffffffff16815260200190815260200160002054905092915050565b612dc5613264565b73ffffffffffffffffffffffffffffffffffffffff166000809054906101000a900473ffffffffffffffffffffffffffffffffffffffff1673ffffffffffffffffffffffffffffffffffffffff1614612e53576040517f08c379a0000000000000000000000000000000000000000000000000000000008152600401612e4a90615ba0565b60405180910390fd5b6000600660008373ffffffffffffffffffffffffffffffffffffffff1673ffffffffffffffffffffffffffffffffffffffff16815260200190815260200160002060006101000a81548160ff02191690831515021790555050565b612eb6613264565b73ffffffffffffffffffffffffffffffffffffffff166000809054906101000a900473ffffffffffffffffffffffffffffffffffffffff1673ffffffffffffffffffffffffffffffffffffffff1614612f44576040517f08c379a0000000000000000000000000000000000000000000000000000000008152600401612f3b90615ba0565b60405180910390fd5b600073ffffffffffffffffffffffffffffffffffffffff168173ffffffffffffffffffffffffffffffffffffffff161415612fb4576040517f08c379a0000000000000000000000000000000000000000000000000000000008152600401612fab90615ae0565b60405180910390fd5b8073ffffffffffffffffffffffffffffffffffffffff166000809054906101000a900473ffffffffffffffffffffffffffffffffffffffff1673ffffffffffffffffffffffffffffffffffffffff167f8be0079c531659141344cd1fd0a4f28419497f9722a3daafe3b4186f6b6457e060405160405180910390a3806000806101000a81548173ffffffffffffffffffffffffffffffffffffffff021916908373ffffffffffffffffffffffffffffffffffffffff16021790555050565b61307a613264565b73ffffffffffffffffffffffffffffffffffffffff166000809054906101000a900473ffffffffffffffffffffffffffffffffffffffff1673ffffffffffffffffffffffffffffffffffffffff1614613108576040517f08c379a00000000000000000000000000000000000000000000000000000000081526004016130ff90615ba0565b60405180910390fd5b613113612710612a0d565b61311d6001612923565b61312861070861228c565b613139671bc16d674ec800006118e5565b6131436000610d82565b61314d6000612033565b6131576005611c90565b6131a2307f00000000000000000000000000000000000000000000000000000000000000007fffffffffffffffffffffffffffffffffffffffffffffffffffffffffffffffff61326c565b565b60115481565b6000808314156131bd5760009050613214565b60008284029050828482816131ce57fe5b041461320f576040517f08c379a000000000000000000000000000000000000000000000000000000000815260040161320690615b80565b60405180910390fd5b809150505b92915050565b600061325c83836040518060400160405280601a81526020017f536166654d6174683a206469766973696f6e206279207a65726f0000000000008152506137b5565b905092915050565b600033905090565b600073ffffffffffffffffffffffffffffffffffffffff168373ffffffffffffffffffffffffffffffffffffffff1614156132dc576040517f08c379a00000000000000000000000000000000000000000000000000000000081526004016132d390615aa0565b60405180910390fd5b600073ffffffffffffffffffffffffffffffffffffffff168273ffffffffffffffffffffffffffffffffffffffff16141561334c576040517f08c379a000000000000000000000000000000000000000000000000000000000815260040161334390615c60565b60405180910390fd5b80600560008573ffffffffffffffffffffffffffffffffffffffff1673ffffffffffffffffffffffffffffffffffffffff16815260200190815260200160002060008473ffffffffffffffffffffffffffffffffffffffff1673ffffffffffffffffffffffffffffffffffffffff168152602001908152602001600020819055508173ffffffffffffffffffffffffffffffffffffffff168373ffffffffffffffffffffffffffffffffffffffff167f8c5be1e5ebec7d5bd14f71427d1e84f3dd0314c0f7b2291e5b200ac8c7c3b9258360405161342a9190615ca0565b60405180910390a3505050565b600061347983836040518060400160405280601e81526020017f536166654d6174683a207375627472616374696f6e206f766572666c6f77000081525061367e565b905092915050565b600073ffffffffffffffffffffffffffffffffffffffff168473ffffffffffffffffffffffffffffffffffffffff1614156134f1576040517f08c379a00000000000000000000000000000000000000000000000000000000081526004016134e890615a80565b60405180910390fd5b600073ffffffffffffffffffffffffffffffffffffffff168373ffffffffffffffffffffffffffffffffffffffff161415613561576040517f08c379a000000000000000000000000000000000000000000000000000000000815260040161355890615be0565b60405180910390fd5b600082116135a4576040517f08c379a000000000000000000000000000000000000000000000000000000000815260040161359b90615bc0565b60405180910390fd5b6135b084848484613816565b6135ba84846138f6565b600060019050600660008673ffffffffffffffffffffffffffffffffffffffff1673ffffffffffffffffffffffffffffffffffffffff16815260200190815260200160002060009054906101000a900460ff16806136615750600660008573ffffffffffffffffffffffffffffffffffffffff1673ffffffffffffffffffffffffffffffffffffffff16815260200190815260200160002060009054906101000a900460ff165b1561366b57600090505b61367785858584613c49565b5050505050565b60008383111582906136c6576040517f08c379a00000000000000000000000000000000000000000000000000000000081526004016136bd9190615a3e565b60405180910390fd5b5060008385039050809150509392505050565b60008060006136e6613f64565b915091506136fd818361321a90919063ffffffff16565b9250505090565b60008082840190508381101561374f576040517f08c379a000000000000000000000000000000000000000000000000000000000815260040161374690615b00565b60405180910390fd5b8091505092915050565b60008060008060008060008060006137708a6141f8565b925092509250600080600061378e8d86866137896136d9565b614252565b9250925092508282828888889b509b509b509b509b509b5050505050505091939550919395565b600080831182906137fc576040517f08c379a00000000000000000000000000000000000000000000000000000000081526004016137f39190615a3e565b60405180910390fd5b50600083858161380857fe5b049050809150509392505050565b61381e61232c565b73ffffffffffffffffffffffffffffffffffffffff168473ffffffffffffffffffffffffffffffffffffffff161415801561388c575061385c61232c565b73ffffffffffffffffffffffffffffffffffffffff168373ffffffffffffffffffffffffffffffffffffffff1614155b156138f057601354811080156138a457506016544210155b156138ef576012548211156138ee576040517f08c379a00000000000000000000000000000000000000000000000000000000081526004016138e590615b60565b60405180910390fd5b5b5b50505050565b600061390130611f48565b905060125481106139125760125490505b6000601d548210159050600e60019054906101000a900460ff161580156139365750805b801561398e57507f000000000000000000000000000000000000000000000000000000000000000073ffffffffffffffffffffffffffffffffffffffff168473ffffffffffffffffffffffffffffffffffffffff1614155b80156139a65750601560009054906101000a900460ff165b8015613a3557503073ffffffffffffffffffffffffffffffffffffffff168473ffffffffffffffffffffffffffffffffffffffff16148015613a3357507f000000000000000000000000000000000000000000000000000000000000000073ffffffffffffffffffffffffffffffffffffffff168373ffffffffffffffffffffffffffffffffffffffff16145b155b15613c4357601d5491506000613a5560028461321a90919063ffffffff16565b90506000613a7f6002613a71848761343790919063ffffffff16565b61321a90919063ffffffff16565b90506000613a96828661343790919063ffffffff16565b90506000613aad838561370490919063ffffffff16565b9050600047905073__$53bcfff703058d1366cb9df10eca7db15d$__6356feb11b7f0000000000000000000000000000000000000000000000000000000000000000846040518363ffffffff1660e01b8152600401613b0d9291906159df565b60006040518083038186803b158015613b2557600080fd5b505af4158015613b39573d6000803e3d6000fd5b505050506000613b52824761343790919063ffffffff16565b90506000613b6a60038361321a90919063ffffffff16565b905073__$53bcfff703058d1366cb9df10eca7db15d$__63cf6c62ea7f0000000000000000000000000000000000000000000000000000000000000000613baf61232c565b88856040518563ffffffff1660e01b8152600401613bd0949392919061599a565b60006040518083038186803b158015613be857600080fd5b505af4158015613bfc573d6000803e3d6000fd5b505050507f17bbfb9a6069321b6ded73bd96327c9e6b7212a5cd51ff219cd61370acafb561868387604051613c3393929190615cbb565b60405180910390a1505050505050505b50505050565b80613c5757613c566142db565b5b613c61838361431e565b600760008573ffffffffffffffffffffffffffffffffffffffff1673ffffffffffffffffffffffffffffffffffffffff16815260200190815260200160002060009054906101000a900460ff168015613d045750600760008473ffffffffffffffffffffffffffffffffffffffff1673ffffffffffffffffffffffffffffffffffffffff16815260200190815260200160002060009054906101000a900460ff16155b15613d1957613d14848484614450565b613f50565b600760008573ffffffffffffffffffffffffffffffffffffffff1673ffffffffffffffffffffffffffffffffffffffff16815260200190815260200160002060009054906101000a900460ff16158015613dbc5750600760008473ffffffffffffffffffffffffffffffffffffffff1673ffffffffffffffffffffffffffffffffffffffff16815260200190815260200160002060009054906101000a900460ff165b15613dd157613dcc8484846146b0565b613f4f565b600760008573ffffffffffffffffffffffffffffffffffffffff1673ffffffffffffffffffffffffffffffffffffffff16815260200190815260200160002060009054906101000a900460ff16158015613e755750600760008473ffffffffffffffffffffffffffffffffffffffff1673ffffffffffffffffffffffffffffffffffffffff16815260200190815260200160002060009054906101000a900460ff16155b15613e8a57613e85848484614910565b613f4e565b600760008573ffffffffffffffffffffffffffffffffffffffff1673ffffffffffffffffffffffffffffffffffffffff16815260200190815260200160002060009054906101000a900460ff168015613f2c5750600760008473ffffffffffffffffffffffffffffffffffffffff1673ffffffffffffffffffffffffffffffffffffffff16815260200190815260200160002060009054906101000a900460ff165b15613f4157613f3c848484614adb565b613f4d565b613f4c848484614910565b5b5b5b5b80613f5e57613f5d614dd0565b5b50505050565b6000806000600a5490506000600954905060008090505b6008805490508110156141bb57826003600060088481548110613f9a57fe5b9060005260206000200160009054906101000a900473ffffffffffffffffffffffffffffffffffffffff1673ffffffffffffffffffffffffffffffffffffffff1673ffffffffffffffffffffffffffffffffffffffff168152602001908152602001600020541180614081575081600460006008848154811061401957fe5b9060005260206000200160009054906101000a900473ffffffffffffffffffffffffffffffffffffffff1673ffffffffffffffffffffffffffffffffffffffff1673ffffffffffffffffffffffffffffffffffffffff16815260200190815260200160002054115b1561409857600a54600954945094505050506141f4565b61412160036000600884815481106140ac57fe5b9060005260206000200160009054906101000a900473ffffffffffffffffffffffffffffffffffffffff1673ffffffffffffffffffffffffffffffffffffffff1673ffffffffffffffffffffffffffffffffffffffff168152602001908152602001600020548461343790919063ffffffff16565b92506141ac600460006008848154811061413757fe5b9060005260206000200160009054906101000a900473ffffffffffffffffffffffffffffffffffffffff1673ffffffffffffffffffffffffffffffffffffffff1673ffffffffffffffffffffffffffffffffffffffff168152602001908152602001600020548361343790919063ffffffff16565b91508080600101915050613f7b565b506141d3600954600a5461321a90919063ffffffff16565b8210156141eb57600a546009549350935050506141f4565b81819350935050505b9091565b60008060008061420785614de4565b9050600061421486614e15565b9050600061423d8261422f858a61343790919063ffffffff16565b61343790919063ffffffff16565b90508083839550955095505050509193909250565b60008060008061426b85896131aa90919063ffffffff16565b9050600061428286896131aa90919063ffffffff16565b9050600061429987896131aa90919063ffffffff16565b905060006142c2826142b4858761343790919063ffffffff16565b61343790919063ffffffff16565b9050838184965096509650505050509450945094915050565b60006019541480156142ef57506000601b54145b156142f95761431c565b601954601a81905550601b54601c8190555060006019819055506000601b819055505b565b600061432983611f48565b905060006143356125d9565b905073__$53bcfff703058d1366cb9df10eca7db15d$__638958b5a98383601154876040518563ffffffff1660e01b81526004016143769493929190615cf2565b60206040518083038186803b15801561438e57600080fd5b505af41580156143a2573d6000803e3d6000fd5b505050506040513d601f19601f820116820180604052508101906143c691906151bb565b601460008673ffffffffffffffffffffffffffffffffffffffff1673ffffffffffffffffffffffffffffffffffffffff1681526020019081526020016000205401601460008673ffffffffffffffffffffffffffffffffffffffff1673ffffffffffffffffffffffffffffffffffffffff1681526020019081526020016000208190555050505050565b60008060008060008061446287613759565b9550955095509550955095506144c087600460008c73ffffffffffffffffffffffffffffffffffffffff1673ffffffffffffffffffffffffffffffffffffffff1681526020019081526020016000205461343790919063ffffffff16565b600460008b73ffffffffffffffffffffffffffffffffffffffff1673ffffffffffffffffffffffffffffffffffffffff1681526020019081526020016000208190555061455586600360008c73ffffffffffffffffffffffffffffffffffffffff1673ffffffffffffffffffffffffffffffffffffffff1681526020019081526020016000205461343790919063ffffffff16565b600360008b73ffffffffffffffffffffffffffffffffffffffff1673ffffffffffffffffffffffffffffffffffffffff168152602001908152602001600020819055506145ea85600360008b73ffffffffffffffffffffffffffffffffffffffff1673ffffffffffffffffffffffffffffffffffffffff1681526020019081526020016000205461370490919063ffffffff16565b600360008a73ffffffffffffffffffffffffffffffffffffffff1673ffffffffffffffffffffffffffffffffffffffff1681526020019081526020016000208190555061463681614e46565b6146408483614feb565b8773ffffffffffffffffffffffffffffffffffffffff168973ffffffffffffffffffffffffffffffffffffffff167fddf252ad1be2c89b69c2b068fc378daa952ba7f163c4a11628f55a4df523b3ef8560405161469d9190615ca0565b60405180910390a3505050505050505050565b6000806000806000806146c287613759565b95509550955095509550955061472086600360008c73ffffffffffffffffffffffffffffffffffffffff1673ffffffffffffffffffffffffffffffffffffffff1681526020019081526020016000205461343790919063ffffffff16565b600360008b73ffffffffffffffffffffffffffffffffffffffff1673ffffffffffffffffffffffffffffffffffffffff168152602001908152602001600020819055506147b583600460008b73ffffffffffffffffffffffffffffffffffffffff1673ffffffffffffffffffffffffffffffffffffffff1681526020019081526020016000205461370490919063ffffffff16565b600460008a73ffffffffffffffffffffffffffffffffffffffff1673ffffffffffffffffffffffffffffffffffffffff1681526020019081526020016000208190555061484a85600360008b73ffffffffffffffffffffffffffffffffffffffff1673ffffffffffffffffffffffffffffffffffffffff1681526020019081526020016000205461370490919063ffffffff16565b600360008a73ffffffffffffffffffffffffffffffffffffffff1673ffffffffffffffffffffffffffffffffffffffff1681526020019081526020016000208190555061489681614e46565b6148a08483614feb565b8773ffffffffffffffffffffffffffffffffffffffff168973ffffffffffffffffffffffffffffffffffffffff167fddf252ad1be2c89b69c2b068fc378daa952ba7f163c4a11628f55a4df523b3ef856040516148fd9190615ca0565b60405180910390a3505050505050505050565b60008060008060008061492287613759565b95509550955095509550955061498086600360008c73ffffffffffffffffffffffffffffffffffffffff1673ffffffffffffffffffffffffffffffffffffffff1681526020019081526020016000205461343790919063ffffffff16565b600360008b73ffffffffffffffffffffffffffffffffffffffff1673ffffffffffffffffffffffffffffffffffffffff16815260200190815260200160002081905550614a1585600360008b73ffffffffffffffffffffffffffffffffffffffff1673ffffffffffffffffffffffffffffffffffffffff1681526020019081526020016000205461370490919063ffffffff16565b600360008a73ffffffffffffffffffffffffffffffffffffffff1673ffffffffffffffffffffffffffffffffffffffff16815260200190815260200160002081905550614a6181614e46565b614a6b8483614feb565b8773ffffffffffffffffffffffffffffffffffffffff168973ffffffffffffffffffffffffffffffffffffffff167fddf252ad1be2c89b69c2b068fc378daa952ba7f163c4a11628f55a4df523b3ef85604051614ac89190615ca0565b60405180910390a3505050505050505050565b600080600080600080614aed87613759565b955095509550955095509550614b4b87600460008c73ffffffffffffffffffffffffffffffffffffffff1673ffffffffffffffffffffffffffffffffffffffff1681526020019081526020016000205461343790919063ffffffff16565b600460008b73ffffffffffffffffffffffffffffffffffffffff1673ffffffffffffffffffffffffffffffffffffffff16815260200190815260200160002081905550614be086600360008c73ffffffffffffffffffffffffffffffffffffffff1673ffffffffffffffffffffffffffffffffffffffff1681526020019081526020016000205461343790919063ffffffff16565b600360008b73ffffffffffffffffffffffffffffffffffffffff1673ffffffffffffffffffffffffffffffffffffffff16815260200190815260200160002081905550614c7583600460008b73ffffffffffffffffffffffffffffffffffffffff1673ffffffffffffffffffffffffffffffffffffffff1681526020019081526020016000205461370490919063ffffffff16565b600460008a73ffffffffffffffffffffffffffffffffffffffff1673ffffffffffffffffffffffffffffffffffffffff16815260200190815260200160002081905550614d0a85600360008b73ffffffffffffffffffffffffffffffffffffffff1673ffffffffffffffffffffffffffffffffffffffff1681526020019081526020016000205461370490919063ffffffff16565b600360008a73ffffffffffffffffffffffffffffffffffffffff1673ffffffffffffffffffffffffffffffffffffffff16815260200190815260200160002081905550614d5681614e46565b614d608483614feb565b8773ffffffffffffffffffffffffffffffffffffffff168973ffffffffffffffffffffffffffffffffffffffff167fddf252ad1be2c89b69c2b068fc378daa952ba7f163c4a11628f55a4df523b3ef85604051614dbd9190615ca0565b60405180910390a3505050505050505050565b601a54601981905550601c54601b81905550565b6000614e0e6064614e00601954856131aa90919063ffffffff16565b61321a90919063ffffffff16565b9050919050565b6000614e3f6064614e31601b54856131aa90919063ffffffff16565b61321a90919063ffffffff16565b9050919050565b6000614e506136d9565b90506000614e6782846131aa90919063ffffffff16565b9050614ebb81600360003073ffffffffffffffffffffffffffffffffffffffff1673ffffffffffffffffffffffffffffffffffffffff1681526020019081526020016000205461370490919063ffffffff16565b600360003073ffffffffffffffffffffffffffffffffffffffff1673ffffffffffffffffffffffffffffffffffffffff16815260200190815260200160002081905550600760003073ffffffffffffffffffffffffffffffffffffffff1673ffffffffffffffffffffffffffffffffffffffff16815260200190815260200160002060009054906101000a900460ff1615614fe657614fa283600460003073ffffffffffffffffffffffffffffffffffffffff1673ffffffffffffffffffffffffffffffffffffffff1681526020019081526020016000205461370490919063ffffffff16565b600460003073ffffffffffffffffffffffffffffffffffffffff1673ffffffffffffffffffffffffffffffffffffffff168152602001908152602001600020819055505b505050565b61500082600a5461343790919063ffffffff16565b600a8190555061501b81600b5461370490919063ffffffff16565b600b819055505050565b60008135905061503481615ecd565b92915050565b60008135905061504981615ee4565b92915050565b60008135905061505e81615efb565b92915050565b60008151905061507381615efb565b92915050565b60006020828403121561508b57600080fd5b600061509984828501615025565b91505092915050565b600080604083850312156150b557600080fd5b60006150c385828601615025565b92505060206150d485828601615025565b9150509250929050565b6000806000606084860312156150f357600080fd5b600061510186828701615025565b935050602061511286828701615025565b92505060406151238682870161504f565b9150509250925092565b6000806040838503121561514057600080fd5b600061514e85828601615025565b925050602061515f8582860161504f565b9150509250929050565b60006020828403121561517b57600080fd5b60006151898482850161503a565b91505092915050565b6000602082840312156151a457600080fd5b60006151b28482850161504f565b91505092915050565b6000602082840312156151cd57600080fd5b60006151db84828501615064565b91505092915050565b600080604083850312156151f757600080fd5b60006152058582860161504f565b92505060206152168582860161503a565b9150509250929050565b61522981615e2f565b82525050565b61523881615dda565b82525050565b61524781615dda565b82525050565b61525681615dec565b82525050565b61526581615e41565b82525050565b600061527682615db3565b6152808185615dc9565b9350615290818560208601615e89565b61529981615ebc565b840191505092915050565b60006152b1602183615dc9565b91507f4572726f723a206e65787420617661696c61626c65206e6f742072656163686560008301527f64000000000000000000000000000000000000000000000000000000000000006020830152604082019050919050565b6000615317602583615dc9565b91507f42455032303a207472616e736665722066726f6d20746865207a65726f20616460008301527f64726573730000000000000000000000000000000000000000000000000000006020830152604082019050919050565b600061537d602483615dc9565b91507f42455032303a20617070726f76652066726f6d20746865207a65726f2061646460008301527f72657373000000000000000000000000000000000000000000000000000000006020830152604082019050919050565b60006153e3602a83615dc9565b91507f416d6f756e74206d757374206265206c657373207468616e20746f74616c207260008301527f65666c656374696f6e73000000000000000000000000000000000000000000006020830152604082019050919050565b6000615449602683615dc9565b91507f4f776e61626c653a206e6577206f776e657220697320746865207a65726f206160008301527f64647265737300000000000000000000000000000000000000000000000000006020830152604082019050919050565b60006154af601b83615dc9565b91507f536166654d6174683a206164646974696f6e206f766572666c6f7700000000006000830152602082019050919050565b60006154ef601b83615dc9565b91507f4163636f756e7420697320616c7265616479206578636c7564656400000000006000830152602082019050919050565b600061552f601f83615dc9565b91507f416d6f756e74206d757374206265206c657373207468616e20737570706c79006000830152602082019050919050565b600061556f602883615dc9565b91507f5472616e7366657220616d6f756e74206578636565647320746865206d61785460008301527f78416d6f756e742e0000000000000000000000000000000000000000000000006020830152604082019050919050565b60006155d5602183615dc9565b91507f536166654d6174683a206d756c7469706c69636174696f6e206f766572666c6f60008301527f77000000000000000000000000000000000000000000000000000000000000006020830152604082019050919050565b600061563b602083615dc9565b91507f4f776e61626c653a2063616c6c6572206973206e6f7420746865206f776e65726000830152602082019050919050565b600061567b602983615dc9565b91507f5472616e7366657220616d6f756e74206d75737420626520677265617465722060008301527f7468616e207a65726f00000000000000000000000000000000000000000000006020830152604082019050919050565b60006156e1602383615dc9565b91507f42455032303a207472616e7366657220746f20746865207a65726f206164647260008301527f65737300000000000000000000000000000000000000000000000000000000006020830152604082019050919050565b6000615747600083615dbe565b9150600082019050919050565b6000615761601d83615dc9565b91507f4572726f723a2043616e6e6f74207769746864726177207265776172640000006000830152602082019050919050565b60006157a1601f83615dc9565b91507f436f6e7472616374206973206c6f636b656420756e74696c20372064617973006000830152602082019050919050565b60006157e1602c83615dc9565b91507f4578636c75646564206164647265737365732063616e6e6f742063616c6c207460008301527f6869732066756e6374696f6e00000000000000000000000000000000000000006020830152604082019050919050565b6000615847602283615dc9565b91507f42455032303a20617070726f766520746f20746865207a65726f20616464726560008301527f73730000000000000000000000000000000000000000000000000000000000006020830152604082019050919050565b60006158ad602383615dc9565b91507f596f7520646f6e27742068617665207065726d697373696f6e20746f20756e6c60008301527f6f636b00000000000000000000000000000000000000000000000000000000006020830152604082019050919050565b61590f81615e18565b82525050565b61591e81615e18565b82525050565b61592d81615e22565b82525050565b600061593e8261573a565b9150819050919050565b600060208201905061595d600083018461522f565b92915050565b60006060820190506159786000830186615220565b6159856020830185615906565b6159926040830184615906565b949350505050565b60006080820190506159af600083018761523e565b6159bc602083018661523e565b6159c96040830185615915565b6159d66060830184615915565b95945050505050565b60006040820190506159f4600083018561523e565b615a016020830184615915565b9392505050565b6000602082019050615a1d600083018461524d565b92915050565b6000602082019050615a38600083018461525c565b92915050565b60006020820190508181036000830152615a58818461526b565b905092915050565b60006020820190508181036000830152615a79816152a4565b9050919050565b60006020820190508181036000830152615a998161530a565b9050919050565b60006020820190508181036000830152615ab981615370565b9050919050565b60006020820190508181036000830152615ad9816153d6565b9050919050565b60006020820190508181036000830152615af98161543c565b9050919050565b60006020820190508181036000830152615b19816154a2565b9050919050565b60006020820190508181036000830152615b39816154e2565b9050919050565b60006020820190508181036000830152615b5981615522565b9050919050565b60006020820190508181036000830152615b7981615562565b9050919050565b60006020820190508181036000830152615b99816155c8565b9050919050565b60006020820190508181036000830152615bb98161562e565b9050919050565b60006020820190508181036000830152615bd98161566e565b9050919050565b60006020820190508181036000830152615bf9816156d4565b9050919050565b60006020820190508181036000830152615c1981615754565b9050919050565b60006020820190508181036000830152615c3981615794565b9050919050565b60006020820190508181036000830152615c59816157d4565b9050919050565b60006020820190508181036000830152615c798161583a565b9050919050565b60006020820190508181036000830152615c99816158a0565b9050919050565b6000602082019050615cb56000830184615906565b92915050565b6000606082019050615cd06000830186615906565b615cdd6020830185615906565b615cea6040830184615906565b949350505050565b6000608082019050615d076000830187615915565b615d146020830186615915565b615d216040830185615915565b615d2e6060830184615915565b95945050505050565b600060c082019050615d4c6000830189615915565b615d596020830188615915565b615d666040830187615915565b615d736060830186615915565b615d806080830185615915565b615d8d60a083018461523e565b979650505050505050565b6000602082019050615dad6000830184615924565b92915050565b600081519050919050565b600081905092915050565b600082825260208201905092915050565b6000615de582615df8565b9050919050565b60008115159050919050565b600073ffffffffffffffffffffffffffffffffffffffff82169050919050565b6000819050919050565b600060ff82169050919050565b6000615e3a82615e65565b9050919050565b6000615e4c82615e53565b9050919050565b6000615e5e82615df8565b9050919050565b6000615e7082615e77565b9050919050565b6000615e8282615df8565b9050919050565b60005b83811015615ea7578082015181840152602081019050615e8c565b83811115615eb6576000848401525b50505050565b6000601f19601f8301169050919050565b615ed681615dda565b8114615ee157600080fd5b50565b615eed81615dec565b8114615ef857600080fd5b50565b615f0481615e18565b8114615f0f57600080fd5b5056fe42455032303a207472616e7366657220616d6f756e74206578636565647320616c6c6f77616e636542455032303a2064656372656173656420616c6c6f77616e63652062656c6f77207a65726fa26469706673582212209f17fd34fb5663b7f9be09b1040878efbc84a0ac3f15f3a6e3d8fe5e086a5a8364736f6c63430006080033",
  "linkReferences": {
    "contracts/protocols/bep/Utils.sol": {
      "Utils": [
        {
          "length": 20,
          "start": 6980
        },
        {
          "length": 20,
          "start": 17953
        },
        {
          "length": 20,
          "start": 18137
        },
        {
          "length": 20,
          "start": 20132
        }
      ]
    }
  },
  "deployedLinkReferences": {
    "contracts/protocols/bep/Utils.sol": {
      "Utils": [
        {
          "length": 20,
          "start": 4057
        },
        {
          "length": 20,
          "start": 15030
        },
        {
          "length": 20,
          "start": 15214
        },
        {
          "length": 20,
          "start": 17209
        }
      ]
    }
  }
}