{
  "contractName": "XbcMigration",
  "abi": [
    {
      "anonymous": false,
      "inputs": [
        {
          "indexed": true,
          "internalType": "address",
          "name": "previousOwner",
          "type": "address"
        },
        {
          "indexed": true,
          "internalType": "address",
          "name": "newOwner",
          "type": "address"
        }
      ],
      "name": "OwnershipTransferred",
      "type": "event"
    },
    {
      "inputs": [],
      "name": "OneBNBtoXBCRate",
      "outputs": [
        {
          "internalType": "uint256",
          "name": "",
          "type": "uint256"
        }
      ],
      "stateMutability": "view",
      "type": "function"
    },
    {
      "inputs": [],
      "name": "PEPE",
      "outputs": [
        {
          "internalType": "contract IBEP20",
          "name": "",
          "type": "address"
        }
      ],
      "stateMutability": "view",
      "type": "function"
    },
    {
      "inputs": [],
      "name": "WBNB",
      "outputs": [
        {
          "internalType": "contract IBEP20",
          "name": "",
          "type": "address"
        }
      ],
      "stateMutability": "view",
      "type": "function"
    },
    {
      "inputs": [],
      "name": "XBC",
      "outputs": [
        {
          "internalType": "contract IBEP20",
          "name": "",
          "type": "address"
        }
      ],
      "stateMutability": "view",
      "type": "function"
    },
    {
      "inputs": [],
      "name": "XBN",
      "outputs": [
        {
          "internalType": "contract IBEP20",
          "name": "",
          "type": "address"
        }
      ],
      "stateMutability": "view",
      "type": "function"
    },
    {
      "inputs": [],
      "name": "maxMigrationSize",
      "outputs": [
        {
          "internalType": "uint256",
          "name": "",
          "type": "uint256"
        }
      ],
      "stateMutability": "view",
      "type": "function"
    },
    {
      "inputs": [],
      "name": "owner",
      "outputs": [
        {
          "internalType": "address",
          "name": "",
          "type": "address"
        }
      ],
      "stateMutability": "view",
      "type": "function"
    },
    {
      "inputs": [],
      "name": "pancakeRouter",
      "outputs": [
        {
          "internalType": "contract IPancakeRouter02",
          "name": "",
          "type": "address"
        }
      ],
      "stateMutability": "view",
      "type": "function"
    },
    {
      "inputs": [],
      "name": "renounceOwnership",
      "outputs": [],
      "stateMutability": "nonpayable",
      "type": "function"
    },
    {
      "inputs": [
        {
          "internalType": "address",
          "name": "newOwner",
          "type": "address"
        }
      ],
      "name": "transferOwnership",
      "outputs": [],
      "stateMutability": "nonpayable",
      "type": "function"
    },
    {
      "inputs": [],
      "name": "initialize",
      "outputs": [],
      "stateMutability": "nonpayable",
      "type": "function"
    },
    {
      "inputs": [],
      "name": "approveAll",
      "outputs": [],
      "stateMutability": "nonpayable",
      "type": "function"
    },
    {
      "inputs": [
        {
          "internalType": "uint256",
          "name": "rate",
          "type": "uint256"
        }
      ],
      "name": "setOneBNBtoXBCRate",
      "outputs": [],
      "stateMutability": "nonpayable",
      "type": "function"
    },
    {
      "inputs": [],
      "name": "OneBNBtoXBNRate",
      "outputs": [
        {
          "internalType": "uint256",
          "name": "",
          "type": "uint256"
        }
      ],
      "stateMutability": "view",
      "type": "function"
    },
    {
      "inputs": [
        {
          "internalType": "uint256",
          "name": "size",
          "type": "uint256"
        }
      ],
      "name": "setMaxMigrationSize",
      "outputs": [],
      "stateMutability": "nonpayable",
      "type": "function"
    },
    {
      "inputs": [],
      "name": "migrate",
      "outputs": [],
      "stateMutability": "nonpayable",
      "type": "function"
    },
    {
      "inputs": [
        {
          "internalType": "uint256",
          "name": "currentWbnbBalance",
          "type": "uint256"
        }
      ],
      "name": "addliquid",
      "outputs": [],
      "stateMutability": "nonpayable",
      "type": "function"
    },
    {
      "inputs": [
        {
          "internalType": "uint256",
          "name": "amount",
          "type": "uint256"
        },
        {
          "internalType": "address",
          "name": "fromToken",
          "type": "address"
        },
        {
          "internalType": "address",
          "name": "toToken",
          "type": "address"
        },
        {
          "internalType": "address",
          "name": "to",
          "type": "address"
        }
      ],
      "name": "swapTokenFor",
      "outputs": [],
      "stateMutability": "nonpayable",
      "type": "function"
    },
    {
      "inputs": [
        {
          "internalType": "address",
          "name": "_token",
          "type": "address"
        },
        {
          "internalType": "uint256",
          "name": "amount",
          "type": "uint256"
        }
      ],
      "name": "recoverToken",
      "outputs": [],
      "stateMutability": "nonpayable",
      "type": "function"
    },
    {
      "inputs": [],
      "name": "emergencyBNBWithdraw",
      "outputs": [],
      "stateMutability": "nonpayable",
      "type": "function"
    },
    {
      "inputs": [
        {
          "internalType": "address payable",
          "name": "routerAddress",
          "type": "address"
        }
      ],
      "name": "setRouter",
      "outputs": [],
      "stateMutability": "nonpayable",
      "type": "function"
    }
  ],
  "bytecode": "0x608060405234801561001057600080fd5b50611c13806100206000396000f3fe608060405234801561001057600080fd5b50600436106101365760003560e01c80638fd3ab80116100b8578063c21ebd071161007c578063c21ebd0714610204578063cb596b561461020c578063e4fbaecb1461021f578063e5867a4c14610227578063f2fde38b1461023a578063fe7c1efc1461024d57610136565b80638fd3ab80146101c657806394b1e358146101ce5780639844f2bf146101d6578063b29a8140146101de578063c0d78655146101f157610136565b80634d74c1b1116100ff5780634d74c1b114610193578063715018a6146101a65780638129fc1c146101ae5780638da5cb5b146101b65780638dd95002146101be57610136565b8062644cb81461013b57806320c410d914610159578063272b950c1461016e578063380d0c08146101765780633e55515014610180575b600080fd5b610143610255565b6040516101509190611859565b60405180910390f35b610161610264565b6040516101509190611ab9565b61016161026a565b61017e6103c5565b005b61017e61018e366004611748565b6105f3565b61017e6101a1366004611748565b61064f565b61017e61084e565b61017e610899565b6101436109d9565b6101436109e8565b61017e6109f7565b610143610e17565b610161610e26565b61017e6101ec366004611643565b610e2c565b61017e6101ff366004611620565b610e8b565b610143610eec565b61017e61021a366004611778565b610efb565b610143611009565b61017e610235366004611748565b611018565b61017e610248366004611620565b61105c565b61017e6110ca565b6099546001600160a01b031681565b609c5481565b604080516002808252606082018352600092839291906020830190803683375050609a5482519293506001600160a01b0316918391506000906102bd57634e487b7160e01b600052603260045260246000fd5b6001600160a01b0392831660209182029290920101526098548251911690829060019081106102fc57634e487b7160e01b600052603260045260246000fd5b6001600160a01b039283166020918202929092010152609b5460405163d06ca61f60e01b815291169063d06ca61f9061034390670de0b6b3a76400009085906004016118f3565b60006040518083038186803b15801561035b57600080fd5b505afa15801561036f573d6000803e3d6000fd5b505050506040513d6000823e601f3d908101601f19168201604052610397919081019061166e565b6001815181106103b757634e487b7160e01b600052603260045260246000fd5b602002602001015191505090565b609754609b5460405163095ea7b360e01b81526001600160a01b039283169263095ea7b3926103fd92911690600019906004016118da565b602060405180830381600087803b15801561041757600080fd5b505af115801561042b573d6000803e3d6000fd5b505050506040513d601f19601f8201168201806040525081019061044f9190611728565b50609954609b5460405163095ea7b360e01b81526001600160a01b039283169263095ea7b39261048892911690600019906004016118da565b602060405180830381600087803b1580156104a257600080fd5b505af11580156104b6573d6000803e3d6000fd5b505050506040513d601f19601f820116820180604052508101906104da9190611728565b50609854609b5460405163095ea7b360e01b81526001600160a01b039283169263095ea7b39261051392911690600019906004016118da565b602060405180830381600087803b15801561052d57600080fd5b505af1158015610541573d6000803e3d6000fd5b505050506040513d601f19601f820116820180604052508101906105659190611728565b50609a54609b5460405163095ea7b360e01b81526001600160a01b039283169263095ea7b39261059e92911690600019906004016118da565b602060405180830381600087803b1580156105b857600080fd5b505af11580156105cc573d6000803e3d6000fd5b505050506040513d601f19601f820116820180604052508101906105f09190611728565b50565b6105fb611185565b6001600160a01b031661060c6109d9565b6001600160a01b03161461063b5760405162461bcd60e51b815260040161063290611a4d565b60405180910390fd5b61064981633b9aca00611b36565b609d5550565b6098546040516370a0823160e01b81526000916001600160a01b0316906370a0823190610680903090600401611859565b60206040518083038186803b15801561069857600080fd5b505afa1580156106ac573d6000803e3d6000fd5b505050506040513d601f19601f820116820180604052508101906106d09190611760565b90506106f96106e0600284611b16565b609a546098546001600160a01b03918216911630610efb565b6098546040516370a0823160e01b815260009183916001600160a01b03909116906370a082319061072e903090600401611859565b60206040518083038186803b15801561074657600080fd5b505afa15801561075a573d6000803e3d6000fd5b505050506040513d601f19601f8201168201806040525081019061077e9190611760565b6107889190611b55565b609b54609a546098549293506001600160a01b039182169263e8e337009291821691166107b6600288611b16565b6107c09088611b55565b85600080306107d142610168611afe565b6040518963ffffffff1660e01b81526004016107f4989796959493929190611891565b606060405180830381600087803b15801561080e57600080fd5b505af1158015610822573d6000803e3d6000fd5b505050506040513d601f19601f8201168201806040525081019061084691906117ca565b505050505050565b610856611185565b6001600160a01b03166108676109d9565b6001600160a01b03161461088d5760405162461bcd60e51b815260040161063290611a4d565b6108976000611189565b565b600054610100900460ff16806108b2575060005460ff16155b6108ce5760405162461bcd60e51b8152600401610632906119cf565b600054610100900460ff161580156108f9576000805460ff1961ff0019909116610100171660011790555b6109016111db565b61090961125f565b609b80546001600160a01b03199081167310ed43c718714eb63d5aa57b78b54704e256024e17909155609780548216730c1b3983d2a4aa002666820de5a0b43293291ea6179055609980548216730321394309cad7e0e424650844c3ab3b659315d317905560988054821673547cbe0f0c25085e7015aa6939b28402eb0ccdac179055609a805490911673bb4cdb9cbd36b01bd1cbaebf2de08d9173bc095c179055681b1ae4d6e2ef500000609c55685150ae84a8cdf00000609d5580156105f0576000805461ff001916905550565b6033546001600160a01b031690565b609a546001600160a01b031681565b6099546040516370a0823160e01b81526000916001600160a01b0316906370a0823190610a28903390600401611859565b60206040518083038186803b158015610a4057600080fd5b505afa158015610a54573d6000803e3d6000fd5b505050506040513d601f19601f82011682018060405250810190610a789190611760565b9050609c54811115610a895750609c545b6099546040516323b872dd60e01b81526001600160a01b03909116906323b872dd90610abd9033903090869060040161186d565b602060405180830381600087803b158015610ad757600080fd5b505af1158015610aeb573d6000803e3d6000fd5b505050506040513d601f19601f82011682018060405250810190610b0f9190611728565b50609a546040516370a0823160e01b81526000916001600160a01b0316906370a0823190610b41903090600401611859565b60206040518083038186803b158015610b5957600080fd5b505afa158015610b6d573d6000803e3d6000fd5b505050506040513d601f19601f82011682018060405250810190610b919190611760565b609954609a54919250610bb39184916001600160a01b03908116911630610efb565b609a546040516370a0823160e01b815260009183916001600160a01b03909116906370a0823190610be8903090600401611859565b60206040518083038186803b158015610c0057600080fd5b505afa158015610c14573d6000803e3d6000fd5b505050506040513d601f19601f82011682018060405250810190610c389190611760565b610c429190611b55565b90506000610c51600283611b16565b609a54609754919250610c739183916001600160a01b03908116911633610efb565b6000610c80600286611b16565b610c8a9086611b55565b905060006064609d54610c9b61026a565b610ca59085611b36565b610caf9190611b16565b610cba906073611b36565b610cc49190611b16565b610cd690673782dace9d900000611afe565b6098546040516323b872dd60e01b81529192506001600160a01b0316906323b872dd90610d1f9073afab058b3798d49562fee9d366e293ad881b6968903390869060040161186d565b602060405180830381600087803b158015610d3957600080fd5b505af1158015610d4d573d6000803e3d6000fd5b505050506040513d601f19601f82011682018060405250810190610d719190611728565b50609a546040516370a0823160e01b81526000916001600160a01b0316906370a0823190610da3903090600401611859565b60206040518083038186803b158015610dbb57600080fd5b505afa158015610dcf573d6000803e3d6000fd5b505050506040513d601f19601f82011682018060405250810190610df39190611760565b90506706f05b59d3b20000811115610e0e57610e0e8161064f565b50505050505050565b6098546001600160a01b031681565b609d5481565b610e34611185565b6001600160a01b0316610e456109d9565b6001600160a01b031614610e6b5760405162461bcd60e51b815260040161063290611a4d565b610e87610e766109d9565b6001600160a01b03841690836112c7565b5050565b610e93611185565b6001600160a01b0316610ea46109d9565b6001600160a01b031614610eca5760405162461bcd60e51b815260040161063290611a4d565b609b80546001600160a01b0319166001600160a01b0392909216919091179055565b609b546001600160a01b031681565b6040805160028082526060820183526000926020830190803683370190505090508381600081518110610f3e57634e487b7160e01b600052603260045260246000fd5b60200260200101906001600160a01b031690816001600160a01b0316815250508281600181518110610f8057634e487b7160e01b600052603260045260246000fd5b6001600160a01b039283166020918202929092010152609b5416635c11d7958660008486610fb042610168611afe565b6040518663ffffffff1660e01b8152600401610fd0959493929190611ac2565b600060405180830381600087803b158015610fea57600080fd5b505af1158015610ffe573d6000803e3d6000fd5b505050505050505050565b6097546001600160a01b031681565b611020611185565b6001600160a01b03166110316109d9565b6001600160a01b0316146110575760405162461bcd60e51b815260040161063290611a4d565b609c55565b611064611185565b6001600160a01b03166110756109d9565b6001600160a01b03161461109b5760405162461bcd60e51b815260040161063290611a4d565b6001600160a01b0381166110c15760405162461bcd60e51b815260040161063290611989565b6105f081611189565b6110d2611185565b6001600160a01b03166110e36109d9565b6001600160a01b0316146111095760405162461bcd60e51b815260040161063290611a4d565b6000336001600160a01b03164760405161112290611856565b60006040518083038185875af1925050503d806000811461115f576040519150601f19603f3d011682016040523d82523d6000602084013e611164565b606091505b50509050806105f05760405162461bcd60e51b815260040161063290611a1d565b3390565b603380546001600160a01b038381166001600160a01b0319831681179093556040519116919082907f8be0079c531659141344cd1fd0a4f28419497f9722a3daafe3b4186f6b6457e090600090a35050565b600054610100900460ff16806111f4575060005460ff16155b6112105760405162461bcd60e51b8152600401610632906119cf565b600054610100900460ff1615801561123b576000805460ff1961ff0019909116610100171660011790555b611243611322565b61124b611395565b80156105f0576000805461ff001916905550565b600054610100900460ff1680611278575060005460ff16155b6112945760405162461bcd60e51b8152600401610632906119cf565b600054610100900460ff161580156112bf576000805460ff1961ff0019909116610100171660011790555b61124b611405565b61131d8363a9059cbb60e01b84846040516024016112e69291906118da565b60408051601f198184030181529190526020810180516001600160e01b03166001600160e01b03199093169290921790915261147e565b505050565b600054610100900460ff168061133b575060005460ff16155b6113575760405162461bcd60e51b8152600401610632906119cf565b600054610100900460ff1615801561124b576000805460ff1961ff00199091166101001716600117905580156105f0576000805461ff001916905550565b600054610100900460ff16806113ae575060005460ff16155b6113ca5760405162461bcd60e51b8152600401610632906119cf565b600054610100900460ff161580156113f5576000805460ff1961ff0019909116610100171660011790555b61124b611400611185565b611189565b600054610100900460ff168061141e575060005460ff16155b61143a5760405162461bcd60e51b8152600401610632906119cf565b600054610100900460ff16158015611465576000805460ff1961ff0019909116610100171660011790555b600160655580156105f0576000805461ff001916905550565b60006114d3826040518060400160405280602081526020017f5361666542455032303a206c6f772d6c6576656c2063616c6c206661696c6564815250856001600160a01b031661150d9092919063ffffffff16565b80519091501561131d57808060200190518101906114f19190611728565b61131d5760405162461bcd60e51b81526004016106329061193f565b606061151c8484600085611524565b949350505050565b606061152f856115e7565b61154b5760405162461bcd60e51b815260040161063290611a82565b600080866001600160a01b03168587604051611567919061183a565b60006040518083038185875af1925050503d80600081146115a4576040519150601f19603f3d011682016040523d82523d6000602084013e6115a9565b606091505b509150915081156115bd57915061151c9050565b8051156115cd5780518082602001fd5b8360405162461bcd60e51b8152600401610632919061190c565b6000813f7fc5d2460186f7233c927e7db2dcc703c0e500b653ca82273b7bfad8045d85a47081811480159061151c575050151592915050565b600060208284031215611631578081fd5b813561163c81611bc8565b9392505050565b60008060408385031215611655578081fd5b823561166081611bc8565b946020939093013593505050565b60006020808385031215611680578182fd5b825167ffffffffffffffff80821115611697578384fd5b818501915085601f8301126116aa578384fd5b8151818111156116bc576116bc611bb2565b838102604051858282010181811085821117156116db576116db611bb2565b604052828152858101935084860182860187018a10156116f9578788fd5b8795505b8386101561171b5780518552600195909501949386019386016116fd565b5098975050505050505050565b600060208284031215611739578081fd5b8151801515811461163c578182fd5b600060208284031215611759578081fd5b5035919050565b600060208284031215611771578081fd5b5051919050565b6000806000806080858703121561178d578182fd5b84359350602085013561179f81611bc8565b925060408501356117af81611bc8565b915060608501356117bf81611bc8565b939692955090935050565b6000806000606084860312156117de578283fd5b8351925060208401519150604084015190509250925092565b6000815180845260208085019450808401835b8381101561182f5781516001600160a01b03168752958201959082019060010161180a565b509495945050505050565b6000825161184c818460208701611b6c565b9190910192915050565b90565b6001600160a01b0391909116815260200190565b6001600160a01b039384168152919092166020820152604081019190915260600190565b6001600160a01b039889168152968816602088015260408701959095526060860193909352608085019190915260a084015290921660c082015260e08101919091526101000190565b6001600160a01b03929092168252602082015260400190565b60008382526040602083015261151c60408301846117f7565b600060208252825180602084015261192b816040850160208701611b6c565b601f01601f19169190910160400192915050565b6020808252602a908201527f5361666542455032303a204245503230206f7065726174696f6e20646964206e6040820152691bdd081cdd58d8d9595960b21b606082015260800190565b60208082526026908201527f4f776e61626c653a206e6577206f776e657220697320746865207a65726f206160408201526564647265737360d01b606082015260800190565b6020808252602e908201527f496e697469616c697a61626c653a20636f6e747261637420697320616c72656160408201526d191e481a5b9a5d1a585b1a5e995960921b606082015260800190565b6020808252601690820152754572726f723a2043616e6e6f7420776974686472617760501b604082015260600190565b6020808252818101527f4f776e61626c653a2063616c6c6572206973206e6f7420746865206f776e6572604082015260600190565b6020808252601d908201527f416464726573733a2063616c6c20746f206e6f6e2d636f6e7472616374000000604082015260600190565b90815260200190565b600086825285602083015260a06040830152611ae160a08301866117f7565b6001600160a01b0394909416606083015250608001529392505050565b60008219821115611b1157611b11611b9c565b500190565b600082611b3157634e487b7160e01b81526012600452602481fd5b500490565b6000816000190483118215151615611b5057611b50611b9c565b500290565b600082821015611b6757611b67611b9c565b500390565b60005b83811015611b87578181015183820152602001611b6f565b83811115611b96576000848401525b50505050565b634e487b7160e01b600052601160045260246000fd5b634e487b7160e01b600052604160045260246000fd5b6001600160a01b03811681146105f057600080fdfea2646970667358221220b3bf0261e9d19c1bee61a8df4a677a1849f80b44af778cb88bf3cc27b724a13d64736f6c63430008000033",
  "immutableReferences": {},
  "source": "pragma solidity ^0.8.0;\npragma experimental ABIEncoderV2;\n\n// import \"./lib/Utils.sol\";\n// import \"./lib/BepLib.sol\";\n// import \"@openzeppelin/contracts-ethereum-package/contracts/access/Ownable.sol\";\nimport \"@openzeppelin/contracts-upgradeable/access/OwnableUpgradeable.sol\";\n\nimport \"@openzeppelin/contracts-upgradeable/security/ReentrancyGuardUpgradeable.sol\";\nimport \"@openzeppelin/contracts/utils/math/Math.sol\";\nimport \"./lib/IBEP20.sol\";\nimport \"./lib/SafeBEP20.sol\";\nimport \"./lib/SafeMath.sol\";\nimport \"./lib/IPancakeRouter02.sol\";\n\nimport \"./lib/WhitelistUpgradeable.sol\";\n\ncontract XbcMigration is OwnableUpgradeable, ReentrancyGuardUpgradeable {\n    using SafeMath for uint256;\n\n\n    using SafeBEP20 for IBEP20;\n    using SafeMath for uint;\n\n    /* ========== CONSTANTS ============= */\n\n    IBEP20 public PEPE ;//= IBEP20(0x0E09FaBB73Bd3Ade0a17ECC321fD13a19e81cE82);\n    IBEP20 public XBN;// = IBEP20(0x547CBE0f0c25085e7015Aa6939b28402EB0CcDAC);\n    IBEP20 public XBC;// = IBEP20(0x547CBE0f0c25085e7015Aa6939b28402EB0CcDAC);\n    IBEP20 public WBNB;// = IBEP20(0x547CBE0f0c25085e7015Aa6939b28402EB0CcDAC);\n    IPancakeRouter02 public pancakeRouter;\n    uint public maxMigrationSize;\n    uint public OneBNBtoXBCRate;\n    /* ========== INITIALIZER ========== */\n\n    function initialize() external initializer {\n\n\n        OwnableUpgradeable.__Ownable_init();\n        ReentrancyGuardUpgradeable.__ReentrancyGuard_init();\n\n        pancakeRouter = IPancakeRouter02(0x10ED43C718714eb63d5aA57B78B54704E256024E);\n        \n        PEPE = IBEP20(0x0c1b3983D2a4Aa002666820DE5a0B43293291Ea6);\n        XBC = IBEP20(0x0321394309CaD7E0E424650844c3AB3b659315d3);\n        XBN = IBEP20(0x547CBE0f0c25085e7015Aa6939b28402EB0CcDAC);\n        WBNB = IBEP20(0xbb4CdB9CBd36B01bD1cBaEBF2De08d9173bc095c);\n\n        maxMigrationSize = 500 * 10 ** 18;\n        OneBNBtoXBCRate = 1500 * 10 ** 9 * 10 ** 9;     \n        \n    }\n\n    function approveAll() public {\n        PEPE.approve(address(pancakeRouter), ~uint(0));\n        XBC.approve(address(pancakeRouter), ~uint(0));\n        XBN.approve(address(pancakeRouter), ~uint(0));\n        WBNB.approve(address(pancakeRouter), ~uint(0));\n    }\n\n\n    function setOneBNBtoXBCRate(uint rate) public onlyOwner{\n        OneBNBtoXBCRate = rate * 10 ** 9;\n    }\n\n    function OneBNBtoXBNRate() public view returns (uint){\n\n        address[] memory path = new address[](2);\n        path[0] = address(WBNB);\n        path[1] = address(XBN); \n\n        return pancakeRouter.getAmountsOut(10** 18, path)[1];\n    }\n\n    function setMaxMigrationSize(uint size) public onlyOwner{\n        maxMigrationSize = size;\n    }\n\n  \n    /* ========== MUTATIVE FUNCTIONS ========== */\n    function migrate() public {\n\n        uint xbcSize = XBC.balanceOf(msg.sender);\n\n        if ( xbcSize > maxMigrationSize){\n            xbcSize = maxMigrationSize;\n            \n        }\n\n        // to avoid tax\n        XBC.transferFrom(msg.sender, address(this), xbcSize);\n\n        // convert to WBNB\n        uint wbnbBalanceBefore = WBNB.balanceOf(address(this));\n        swapTokenFor(xbcSize, address(XBC), address(WBNB), address(this));\n        uint wbnbAmount = WBNB.balanceOf(address(this)) - wbnbBalanceBefore;\n\n        uint pepeWbnbSize = wbnbAmount/2;        \n\n        //swap and transfer PePe\n        swapTokenFor(pepeWbnbSize, address(WBNB), address(PEPE) , msg.sender);\n\n        //transfer XBN\n        \n        uint xbcRemain = xbcSize - xbcSize/2;\n        uint xbnAmountToTransfer = xbcRemain   * OneBNBtoXBNRate() / OneBNBtoXBCRate *  115 /100 + 4 * 10 ** 18; // bonus 15% XBN + 4 XBN\n        XBN.transferFrom(0xAfaB058b3798D49562fEe9d366e293AD881b6968, msg.sender, xbnAmountToTransfer);\n\n        //add liquidity\n        uint currentWbnbBalance = WBNB.balanceOf(address(this));\n        if (currentWbnbBalance > 5* 10 ** 17){ // 0.5 BNB\n            addliquid(currentWbnbBalance);           \n\n        }\n        \n    }\n\n    function addliquid(uint currentWbnbBalance) public {\n\n        uint xbnBalanceBefore = XBN.balanceOf(address(this));\n        swapTokenFor(currentWbnbBalance/2, address(WBNB), address(XBN) , address(this));\n        uint xbnAmount = XBN.balanceOf(address(this)) - xbnBalanceBefore;\n\n\n        pancakeRouter.addLiquidity(\n            address(WBNB),\n            address(XBN),\n            currentWbnbBalance - currentWbnbBalance/2,\n            xbnAmount,\n            0, // slippage is unavoidable\n            0, // slippage is unavoidable\n            address(this),\n            block.timestamp + 360\n            \n        );\n    }\n\n    function swapTokenFor(uint amount, address fromToken, address toToken, address to) public {\n        \n        address[] memory path = new address[](2);\n        path[0] = address(fromToken);\n        path[1] = address(toToken); \n        \n        // make the swap\n        pancakeRouter.swapExactTokensForTokensSupportingFeeOnTransferTokens(\n            amount,\n            0, // accept any amount of XBN\n            path,\n            to,\n            block.timestamp + 360\n        );\n    }\n\n\n    /* ========== SALVAGE PURPOSE ONLY ========== */\n\n    // @dev _stakingToken(CAKE) must not remain balance in this contract. So dev should be able to salvage staking token transferred by mistake.\n    function recoverToken(address _token, uint amount) public onlyOwner {\n        IBEP20(_token).safeTransfer(owner(), amount);\n\n        // emit Recovered(_token, amount);\n    }\n\n    // @dev _stakingToken(CAKE) must not remain BNB balance in this contract. So dev should be able to salvage BNB transferred by mistake.\n    function emergencyBNBWithdraw() public onlyOwner {\n        (bool sent,) = (address(msg.sender)).call{value : address(this).balance}(\"\");\n        require(sent, 'Error: Cannot withdraw');\n\n    }\n\n\n    function setRouter(address payable routerAddress) public onlyOwner {\n        pancakeRouter = IPancakeRouter02(routerAddress);\n    }\n  \n\n\n}\n",
  "sourcePath": "/Users/jamify/code/xbc_migration/contracts/XbcMigration.sol",
  "compiler": {
    "name": "solc",
    "version": "0.8.0+commit.c7dfd78e.Emscripten.clang"
  },
  "schemaVersion": "3.4.1",
  "updatedAt": "2021-09-14T05:45:42.548Z",
  "devdoc": {
    "kind": "dev",
    "methods": {
      "owner()": {
        "details": "Returns the address of the current owner."
      },
      "renounceOwnership()": {
        "details": "Leaves the contract without owner. It will not be possible to call `onlyOwner` functions anymore. Can only be called by the current owner. NOTE: Renouncing ownership will leave the contract without an owner, thereby removing any functionality that is only available to the owner."
      },
      "transferOwnership(address)": {
        "details": "Transfers ownership of the contract to a new account (`newOwner`). Can only be called by the current owner."
      }
    },
    "version": 1
  },
  "userdoc": {
    "kind": "user",
    "methods": {},
    "version": 1
  }
}