{
  "_format": "hh-sol-artifact-1",
  "contractName": "XBCToken",
  "sourceName": "contracts/protocols/XBCToken.sol",
  "abi": [
    {
      "inputs": [
        {
          "internalType": "address payable",
          "name": "routerAddress",
          "type": "address"
        }
      ],
      "stateMutability": "nonpayable",
      "type": "constructor"
    },
    {
      "anonymous": false,
      "inputs": [
        {
          "indexed": true,
          "internalType": "address",
          "name": "owner",
          "type": "address"
        },
        {
          "indexed": true,
          "internalType": "address",
          "name": "spender",
          "type": "address"
        },
        {
          "indexed": false,
          "internalType": "uint256",
          "name": "value",
          "type": "uint256"
        }
      ],
      "name": "Approval",
      "type": "event"
    },
    {
      "anonymous": false,
      "inputs": [
        {
          "indexed": false,
          "internalType": "address",
          "name": "recipient",
          "type": "address"
        },
        {
          "indexed": false,
          "internalType": "uint256",
          "name": "ethReceived",
          "type": "uint256"
        },
        {
          "indexed": false,
          "internalType": "uint256",
          "name": "nextAvailableClaimDate",
          "type": "uint256"
        }
      ],
      "name": "ClaimBNBSuccessfully",
      "type": "event"
    },
    {
      "anonymous": false,
      "inputs": [
        {
          "indexed": true,
          "internalType": "address",
          "name": "previousOwner",
          "type": "address"
        },
        {
          "indexed": true,
          "internalType": "address",
          "name": "newOwner",
          "type": "address"
        }
      ],
      "name": "OwnershipTransferred",
      "type": "event"
    },
    {
      "anonymous": false,
      "inputs": [
        {
          "indexed": false,
          "internalType": "uint256",
          "name": "tokensSwapped",
          "type": "uint256"
        },
        {
          "indexed": false,
          "internalType": "uint256",
          "name": "ethReceived",
          "type": "uint256"
        },
        {
          "indexed": false,
          "internalType": "uint256",
          "name": "tokensIntoLiqudity",
          "type": "uint256"
        }
      ],
      "name": "SwapAndLiquify",
      "type": "event"
    },
    {
      "anonymous": false,
      "inputs": [
        {
          "indexed": false,
          "internalType": "bool",
          "name": "enabled",
          "type": "bool"
        }
      ],
      "name": "SwapAndLiquifyEnabledUpdated",
      "type": "event"
    },
    {
      "anonymous": false,
      "inputs": [
        {
          "indexed": true,
          "internalType": "address",
          "name": "from",
          "type": "address"
        },
        {
          "indexed": true,
          "internalType": "address",
          "name": "to",
          "type": "address"
        },
        {
          "indexed": false,
          "internalType": "uint256",
          "name": "value",
          "type": "uint256"
        }
      ],
      "name": "Transfer",
      "type": "event"
    },
    {
      "inputs": [],
      "name": "_liquidityFee",
      "outputs": [
        {
          "internalType": "uint256",
          "name": "",
          "type": "uint256"
        }
      ],
      "stateMutability": "view",
      "type": "function"
    },
    {
      "inputs": [],
      "name": "_maxTxAmount",
      "outputs": [
        {
          "internalType": "uint256",
          "name": "",
          "type": "uint256"
        }
      ],
      "stateMutability": "view",
      "type": "function"
    },
    {
      "inputs": [],
      "name": "_taxFee",
      "outputs": [
        {
          "internalType": "uint256",
          "name": "",
          "type": "uint256"
        }
      ],
      "stateMutability": "view",
      "type": "function"
    },
    {
      "inputs": [],
      "name": "activateContract",
      "outputs": [],
      "stateMutability": "nonpayable",
      "type": "function"
    },
    {
      "inputs": [],
      "name": "activateTestnet",
      "outputs": [],
      "stateMutability": "nonpayable",
      "type": "function"
    },
    {
      "inputs": [
        {
          "internalType": "address",
          "name": "owner",
          "type": "address"
        },
        {
          "internalType": "address",
          "name": "spender",
          "type": "address"
        }
      ],
      "name": "allowance",
      "outputs": [
        {
          "internalType": "uint256",
          "name": "",
          "type": "uint256"
        }
      ],
      "stateMutability": "view",
      "type": "function"
    },
    {
      "inputs": [
        {
          "internalType": "address",
          "name": "spender",
          "type": "address"
        },
        {
          "internalType": "uint256",
          "name": "amount",
          "type": "uint256"
        }
      ],
      "name": "approve",
      "outputs": [
        {
          "internalType": "bool",
          "name": "",
          "type": "bool"
        }
      ],
      "stateMutability": "nonpayable",
      "type": "function"
    },
    {
      "inputs": [
        {
          "internalType": "address",
          "name": "account",
          "type": "address"
        }
      ],
      "name": "balanceOf",
      "outputs": [
        {
          "internalType": "uint256",
          "name": "",
          "type": "uint256"
        }
      ],
      "stateMutability": "view",
      "type": "function"
    },
    {
      "inputs": [
        {
          "internalType": "address",
          "name": "ofAddress",
          "type": "address"
        }
      ],
      "name": "calculateBNBReward",
      "outputs": [
        {
          "internalType": "uint256",
          "name": "",
          "type": "uint256"
        }
      ],
      "stateMutability": "view",
      "type": "function"
    },
    {
      "inputs": [],
      "name": "claimBNBReward",
      "outputs": [],
      "stateMutability": "nonpayable",
      "type": "function"
    },
    {
      "inputs": [],
      "name": "decimals",
      "outputs": [
        {
          "internalType": "uint8",
          "name": "",
          "type": "uint8"
        }
      ],
      "stateMutability": "view",
      "type": "function"
    },
    {
      "inputs": [
        {
          "internalType": "address",
          "name": "spender",
          "type": "address"
        },
        {
          "internalType": "uint256",
          "name": "subtractedValue",
          "type": "uint256"
        }
      ],
      "name": "decreaseAllowance",
      "outputs": [
        {
          "internalType": "bool",
          "name": "",
          "type": "bool"
        }
      ],
      "stateMutability": "nonpayable",
      "type": "function"
    },
    {
      "inputs": [
        {
          "internalType": "uint256",
          "name": "tAmount",
          "type": "uint256"
        }
      ],
      "name": "deliver",
      "outputs": [],
      "stateMutability": "nonpayable",
      "type": "function"
    },
    {
      "inputs": [],
      "name": "disableEasyRewardFrom",
      "outputs": [
        {
          "internalType": "uint256",
          "name": "",
          "type": "uint256"
        }
      ],
      "stateMutability": "view",
      "type": "function"
    },
    {
      "inputs": [],
      "name": "disruptiveCoverageFee",
      "outputs": [
        {
          "internalType": "uint256",
          "name": "",
          "type": "uint256"
        }
      ],
      "stateMutability": "view",
      "type": "function"
    },
    {
      "inputs": [
        {
          "internalType": "address",
          "name": "recipient",
          "type": "address"
        },
        {
          "internalType": "uint256",
          "name": "amount",
          "type": "uint256"
        }
      ],
      "name": "disruptiveTransfer",
      "outputs": [
        {
          "internalType": "bool",
          "name": "",
          "type": "bool"
        }
      ],
      "stateMutability": "payable",
      "type": "function"
    },
    {
      "inputs": [],
      "name": "disruptiveTransferEnabledFrom",
      "outputs": [
        {
          "internalType": "uint256",
          "name": "",
          "type": "uint256"
        }
      ],
      "stateMutability": "view",
      "type": "function"
    },
    {
      "inputs": [],
      "name": "easyRewardCycleBlock",
      "outputs": [
        {
          "internalType": "uint256",
          "name": "",
          "type": "uint256"
        }
      ],
      "stateMutability": "view",
      "type": "function"
    },
    {
      "inputs": [
        {
          "internalType": "address",
          "name": "account",
          "type": "address"
        }
      ],
      "name": "excludeFromFee",
      "outputs": [],
      "stateMutability": "nonpayable",
      "type": "function"
    },
    {
      "inputs": [
        {
          "internalType": "address",
          "name": "account",
          "type": "address"
        }
      ],
      "name": "excludeFromReward",
      "outputs": [],
      "stateMutability": "nonpayable",
      "type": "function"
    },
    {
      "inputs": [],
      "name": "geUnlockTime",
      "outputs": [
        {
          "internalType": "uint256",
          "name": "",
          "type": "uint256"
        }
      ],
      "stateMutability": "view",
      "type": "function"
    },
    {
      "inputs": [],
      "name": "getRewardCycleBlock",
      "outputs": [
        {
          "internalType": "uint256",
          "name": "",
          "type": "uint256"
        }
      ],
      "stateMutability": "view",
      "type": "function"
    },
    {
      "inputs": [
        {
          "internalType": "address",
          "name": "account",
          "type": "address"
        }
      ],
      "name": "includeInFee",
      "outputs": [],
      "stateMutability": "nonpayable",
      "type": "function"
    },
    {
      "inputs": [
        {
          "internalType": "address",
          "name": "account",
          "type": "address"
        }
      ],
      "name": "includeInReward",
      "outputs": [],
      "stateMutability": "nonpayable",
      "type": "function"
    },
    {
      "inputs": [
        {
          "internalType": "address",
          "name": "spender",
          "type": "address"
        },
        {
          "internalType": "uint256",
          "name": "addedValue",
          "type": "uint256"
        }
      ],
      "name": "increaseAllowance",
      "outputs": [
        {
          "internalType": "bool",
          "name": "",
          "type": "bool"
        }
      ],
      "stateMutability": "nonpayable",
      "type": "function"
    },
    {
      "inputs": [
        {
          "internalType": "address",
          "name": "account",
          "type": "address"
        }
      ],
      "name": "isExcludedFromFee",
      "outputs": [
        {
          "internalType": "bool",
          "name": "",
          "type": "bool"
        }
      ],
      "stateMutability": "view",
      "type": "function"
    },
    {
      "inputs": [
        {
          "internalType": "address",
          "name": "account",
          "type": "address"
        }
      ],
      "name": "isExcludedFromReward",
      "outputs": [
        {
          "internalType": "bool",
          "name": "",
          "type": "bool"
        }
      ],
      "stateMutability": "view",
      "type": "function"
    },
    {
      "inputs": [
        {
          "internalType": "uint256",
          "name": "time",
          "type": "uint256"
        }
      ],
      "name": "lock",
      "outputs": [],
      "stateMutability": "nonpayable",
      "type": "function"
    },
    {
      "inputs": [],
      "name": "name",
      "outputs": [
        {
          "internalType": "string",
          "name": "",
          "type": "string"
        }
      ],
      "stateMutability": "view",
      "type": "function"
    },
    {
      "inputs": [
        {
          "internalType": "address",
          "name": "",
          "type": "address"
        }
      ],
      "name": "nextAvailableClaimDate",
      "outputs": [
        {
          "internalType": "uint256",
          "name": "",
          "type": "uint256"
        }
      ],
      "stateMutability": "view",
      "type": "function"
    },
    {
      "inputs": [],
      "name": "owner",
      "outputs": [
        {
          "internalType": "address",
          "name": "",
          "type": "address"
        }
      ],
      "stateMutability": "view",
      "type": "function"
    },
    {
      "inputs": [],
      "name": "pancakePair",
      "outputs": [
        {
          "internalType": "address",
          "name": "",
          "type": "address"
        }
      ],
      "stateMutability": "view",
      "type": "function"
    },
    {
      "inputs": [],
      "name": "pancakeRouter",
      "outputs": [
        {
          "internalType": "contract IPancakeRouter02",
          "name": "",
          "type": "address"
        }
      ],
      "stateMutability": "view",
      "type": "function"
    },
    {
      "inputs": [
        {
          "internalType": "uint256",
          "name": "tAmount",
          "type": "uint256"
        },
        {
          "internalType": "bool",
          "name": "deductTransferFee",
          "type": "bool"
        }
      ],
      "name": "reflectionFromToken",
      "outputs": [
        {
          "internalType": "uint256",
          "name": "",
          "type": "uint256"
        }
      ],
      "stateMutability": "view",
      "type": "function"
    },
    {
      "inputs": [],
      "name": "renounceOwnership",
      "outputs": [],
      "stateMutability": "nonpayable",
      "type": "function"
    },
    {
      "inputs": [],
      "name": "rewardCycleBlock",
      "outputs": [
        {
          "internalType": "uint256",
          "name": "",
          "type": "uint256"
        }
      ],
      "stateMutability": "view",
      "type": "function"
    },
    {
      "inputs": [],
      "name": "rewardThreshold",
      "outputs": [
        {
          "internalType": "uint256",
          "name": "",
          "type": "uint256"
        }
      ],
      "stateMutability": "view",
      "type": "function"
    },
    {
      "inputs": [
        {
          "internalType": "uint256",
          "name": "liquidityFee",
          "type": "uint256"
        }
      ],
      "name": "setLiquidityFeePercent",
      "outputs": [],
      "stateMutability": "nonpayable",
      "type": "function"
    },
    {
      "inputs": [
        {
          "internalType": "uint256",
          "name": "maxTxPercent",
          "type": "uint256"
        }
      ],
      "name": "setMaxTxPercent",
      "outputs": [],
      "stateMutability": "nonpayable",
      "type": "function"
    },
    {
      "inputs": [
        {
          "internalType": "bool",
          "name": "_enabled",
          "type": "bool"
        }
      ],
      "name": "setSwapAndLiquifyEnabled",
      "outputs": [],
      "stateMutability": "nonpayable",
      "type": "function"
    },
    {
      "inputs": [
        {
          "internalType": "uint256",
          "name": "taxFee",
          "type": "uint256"
        }
      ],
      "name": "setTaxFeePercent",
      "outputs": [],
      "stateMutability": "nonpayable",
      "type": "function"
    },
    {
      "inputs": [],
      "name": "swapAndLiquifyEnabled",
      "outputs": [
        {
          "internalType": "bool",
          "name": "",
          "type": "bool"
        }
      ],
      "stateMutability": "view",
      "type": "function"
    },
    {
      "inputs": [],
      "name": "symbol",
      "outputs": [
        {
          "internalType": "string",
          "name": "",
          "type": "string"
        }
      ],
      "stateMutability": "view",
      "type": "function"
    },
    {
      "inputs": [],
      "name": "threshHoldTopUpRate",
      "outputs": [
        {
          "internalType": "uint256",
          "name": "",
          "type": "uint256"
        }
      ],
      "stateMutability": "view",
      "type": "function"
    },
    {
      "inputs": [
        {
          "internalType": "uint256",
          "name": "rAmount",
          "type": "uint256"
        }
      ],
      "name": "tokenFromReflection",
      "outputs": [
        {
          "internalType": "uint256",
          "name": "",
          "type": "uint256"
        }
      ],
      "stateMutability": "view",
      "type": "function"
    },
    {
      "inputs": [],
      "name": "totalFees",
      "outputs": [
        {
          "internalType": "uint256",
          "name": "",
          "type": "uint256"
        }
      ],
      "stateMutability": "view",
      "type": "function"
    },
    {
      "inputs": [],
      "name": "totalSupply",
      "outputs": [
        {
          "internalType": "uint256",
          "name": "",
          "type": "uint256"
        }
      ],
      "stateMutability": "view",
      "type": "function"
    },
    {
      "inputs": [
        {
          "internalType": "address",
          "name": "recipient",
          "type": "address"
        },
        {
          "internalType": "uint256",
          "name": "amount",
          "type": "uint256"
        }
      ],
      "name": "transfer",
      "outputs": [
        {
          "internalType": "bool",
          "name": "",
          "type": "bool"
        }
      ],
      "stateMutability": "nonpayable",
      "type": "function"
    },
    {
      "inputs": [
        {
          "internalType": "address",
          "name": "sender",
          "type": "address"
        },
        {
          "internalType": "address",
          "name": "recipient",
          "type": "address"
        },
        {
          "internalType": "uint256",
          "name": "amount",
          "type": "uint256"
        }
      ],
      "name": "transferFrom",
      "outputs": [
        {
          "internalType": "bool",
          "name": "",
          "type": "bool"
        }
      ],
      "stateMutability": "nonpayable",
      "type": "function"
    },
    {
      "inputs": [
        {
          "internalType": "address",
          "name": "newOwner",
          "type": "address"
        }
      ],
      "name": "transferOwnership",
      "outputs": [],
      "stateMutability": "nonpayable",
      "type": "function"
    },
    {
      "inputs": [],
      "name": "unlock",
      "outputs": [],
      "stateMutability": "nonpayable",
      "type": "function"
    },
    {
      "inputs": [],
      "name": "winningDoubleRewardPercentage",
      "outputs": [
        {
          "internalType": "uint256",
          "name": "",
          "type": "uint256"
        }
      ],
      "stateMutability": "view",
      "type": "function"
    },
    {
      "stateMutability": "payable",
      "type": "receive"
    }
  ],
  "bytecode": "0x60c060405269d3c21bcecceda1000000600a55600a54600019816200002057fe5b0660001903600b556040518060400160405280601381526020017f58424e20436f6d6d756e69747920546f6b656e00000000000000000000000000815250600d90805190602001906200007592919062000771565b506040518060400160405280600381526020017f5842430000000000000000000000000000000000000000000000000000000000815250600e9080519060200190620000c392919062000771565b506009600f60006101000a81548160ff021916908360ff16021790555062093a80601055620151806011556002601255600a54601355671bc16d674ec800006014556000601660006101000a81548160ff0219169083151502179055506000601755600060185560056019556002601a55601a54601b556008601c55601c54601d55671bc16d674ec80000601e5562000189612710620001756001600a546200061360201b62002e1a1790919060201c565b6200068960201b62002e8a1790919060201c565b601f553480156200019957600080fd5b5060405162006919380380620069198339818101604052810190620001bf91906200087a565b6000620001d1620006db60201b60201c565b9050806000806101000a81548173ffffffffffffffffffffffffffffffffffffffff021916908373ffffffffffffffffffffffffffffffffffffffff1602179055508073ffffffffffffffffffffffffffffffffffffffff16600073ffffffffffffffffffffffffffffffffffffffff167f8be0079c531659141344cd1fd0a4f28419497f9722a3daafe3b4186f6b6457e060405160405180910390a3506001600381905550600b54600460006200028e620006db60201b60201c565b73ffffffffffffffffffffffffffffffffffffffff1673ffffffffffffffffffffffffffffffffffffffff1681526020019081526020016000208190555060008190508073ffffffffffffffffffffffffffffffffffffffff1663c45a01556040518163ffffffff1660e01b815260040160206040518083038186803b1580156200031857600080fd5b505afa1580156200032d573d6000803e3d6000fd5b505050506040513d601f19601f820116820180604052508101906200035391906200084e565b73ffffffffffffffffffffffffffffffffffffffff1663c9c65396308373ffffffffffffffffffffffffffffffffffffffff1663ad5c46486040518163ffffffff1660e01b815260040160206040518083038186803b158015620003b657600080fd5b505afa158015620003cb573d6000803e3d6000fd5b505050506040513d601f19601f82011682018060405250810190620003f191906200084e565b6040518363ffffffff1660e01b81526004016200041092919062000982565b602060405180830381600087803b1580156200042b57600080fd5b505af115801562000440573d6000803e3d6000fd5b505050506040513d601f19601f820116820180604052508101906200046691906200084e565b73ffffffffffffffffffffffffffffffffffffffff1660a08173ffffffffffffffffffffffffffffffffffffffff1660601b815250508073ffffffffffffffffffffffffffffffffffffffff1660808173ffffffffffffffffffffffffffffffffffffffff1660601b81525050600160076000620004e9620006e360201b60201c565b73ffffffffffffffffffffffffffffffffffffffff1673ffffffffffffffffffffffffffffffffffffffff16815260200190815260200160002060006101000a81548160ff0219169083151502179055506001600760003073ffffffffffffffffffffffffffffffffffffffff1673ffffffffffffffffffffffffffffffffffffffff16815260200190815260200160002060006101000a81548160ff021916908315150217905550620005a2620006db60201b60201c565b73ffffffffffffffffffffffffffffffffffffffff16600073ffffffffffffffffffffffffffffffffffffffff167fddf252ad1be2c89b69c2b068fc378daa952ba7f163c4a11628f55a4df523b3ef600a54604051620006039190620009f5565b60405180910390a3505062000b37565b60008083141562000628576000905062000683565b60008284029050828482816200063a57fe5b04146200067e576040517f08c379a00000000000000000000000000000000000000000000000000000000081526004016200067590620009d3565b60405180910390fd5b809150505b92915050565b6000620006d383836040518060400160405280601a81526020017f536166654d6174683a206469766973696f6e206279207a65726f0000000000008152506200070c60201b60201c565b905092915050565b600033905090565b60008060009054906101000a900473ffffffffffffffffffffffffffffffffffffffff16905090565b6000808311829062000756576040517f08c379a00000000000000000000000000000000000000000000000000000000081526004016200074d9190620009af565b60405180910390fd5b5060008385816200076357fe5b049050809150509392505050565b828054600181600116156101000203166002900490600052602060002090601f016020900481019282601f10620007b457805160ff1916838001178555620007e5565b82800160010185558215620007e5579182015b82811115620007e4578251825591602001919060010190620007c7565b5b509050620007f49190620007f8565b5090565b6200081d91905b8082111562000819576000816000905550600101620007ff565b5090565b90565b600081519050620008318162000b03565b92915050565b600081519050620008488162000b1d565b92915050565b6000602082840312156200086157600080fd5b6000620008718482850162000820565b91505092915050565b6000602082840312156200088d57600080fd5b60006200089d8482850162000837565b91505092915050565b620008b18162000a80565b82525050565b620008c28162000a2e565b82525050565b6000620008d58262000a12565b620008e1818562000a1d565b9350620008f381856020860162000abc565b620008fe8162000af2565b840191505092915050565b60006200091860218362000a1d565b91507f536166654d6174683a206d756c7469706c69636174696f6e206f766572666c6f60008301527f77000000000000000000000000000000000000000000000000000000000000006020830152604082019050919050565b6200097c8162000a76565b82525050565b6000604082019050620009996000830185620008a6565b620009a86020830184620008b7565b9392505050565b60006020820190508181036000830152620009cb8184620008c8565b905092915050565b60006020820190508181036000830152620009ee8162000909565b9050919050565b600060208201905062000a0c600083018462000971565b92915050565b600081519050919050565b600082825260208201905092915050565b600062000a3b8262000a56565b9050919050565b600062000a4f8262000a56565b9050919050565b600073ffffffffffffffffffffffffffffffffffffffff82169050919050565b6000819050919050565b600062000a8d8262000a94565b9050919050565b600062000aa18262000aa8565b9050919050565b600062000ab58262000a56565b9050919050565b60005b8381101562000adc57808201518184015260208101905062000abf565b8381111562000aec576000848401525b50505050565b6000601f19601f8301169050919050565b62000b0e8162000a2e565b811462000b1a57600080fd5b50565b62000b288162000a42565b811462000b3457600080fd5b50565b60805160601c60a05160601c615d9562000b846000398061271f528061362252806136c8525080611b6652806121f752806126b4528061274352806137b3528061386b5250615d956000f3fe6080604052600436106103035760003560e01c8063715018a611610190578063a9059cbb116100dc578063c49b9a8011610095578063dd62ed3e1161006f578063dd62ed3e14610b86578063ea2f0b3714610bc3578063f2fde38b14610bec578063fda48a7314610c155761030a565b8063c49b9a8014610b0b578063d543dbeb14610b34578063dd46706414610b5d5761030a565b8063a9059cbb146109f9578063b2644c0714610a36578063b47fd56314610a4d578063b6c5232414610a8a578063b8c9d25c14610ab5578063c21ebd0714610ae05761030a565b80638fda356d1161014957806395d89b411161012357806395d89b411461094f5780639bb4dc601461097a578063a457c2d7146109a5578063a69df4b5146109e25761030a565b80638fda356d146108e25780638feed79a146108f957806395ba68d7146109245761030a565b8063715018a6146107e45780637217f4bc146107fb5780637d1db4a51461082657806388f82020146108515780638da5cb5b1461088e5780638ee88c53146108b95761030a565b80633bd5d1731161024f5780635342acb4116102085780636a40701c116101e25780636a40701c1461073a5780636bc87c3a146107515780636d33a4681461077c57806370a08231146107a75761030a565b80635342acb4146106a75780635e4196ab146106e45780635ea4d29c1461070f5761030a565b80633bd5d173146105945780633d87ea75146105bd578063437823ec146105ed5780634549b039146106165780634a74bb021461065357806352390c021461067e5761030a565b806323b872dd116102bc5780633685d419116102965780633685d419146104d857806337ad7cf514610501578063395093511461052c5780633b124fe7146105695761030a565b806323b872dd146104335780632d83811914610470578063313ce567146104ad5761030a565b8063061c82d01461030f57806306fdde0314610338578063095ea7b31461036357806313114a9d146103a057806318160ddd146103cb5780632060995e146103f65761030a565b3661030a57005b600080fd5b34801561031b57600080fd5b5061033660048036038101906103319190614e75565b610c40565b005b34801561034457600080fd5b5061034d610ce0565b60405161035a91906157fe565b60405180910390f35b34801561036f57600080fd5b5061038a60048036038101906103859190614e10565b610d82565b60405161039791906157c8565b60405180910390f35b3480156103ac57600080fd5b506103b5610da0565b6040516103c29190615aa0565b60405180910390f35b3480156103d757600080fd5b506103e0610daa565b6040516103ed9190615aa0565b60405180910390f35b34801561040257600080fd5b5061041d60048036038101906104189190614d5c565b610db4565b60405161042a9190615aa0565b60405180910390f35b34801561043f57600080fd5b5061045a60048036038101906104559190614dc1565b610e98565b60405161046791906157c8565b60405180910390f35b34801561047c57600080fd5b5061049760048036038101906104929190614e75565b610f73565b6040516104a49190615aa0565b60405180910390f35b3480156104b957600080fd5b506104c2610fe1565b6040516104cf9190615b98565b60405180910390f35b3480156104e457600080fd5b506104ff60048036038101906104fa9190614d5c565b610ff8565b005b34801561050d57600080fd5b50610516611320565b6040516105239190615aa0565b60405180910390f35b34801561053857600080fd5b50610553600480360381019061054e9190614e10565b611326565b60405161056091906157c8565b60405180910390f35b34801561057557600080fd5b5061057e6113d9565b60405161058b9190615aa0565b60405180910390f35b3480156105a057600080fd5b506105bb60048036038101906105b69190614e75565b6113df565b005b6105d760048036038101906105d29190614e10565b61155a565b6040516105e491906157c8565b60405180910390f35b3480156105f957600080fd5b50610614600480360381019061060f9190614d5c565b611579565b005b34801561062257600080fd5b5061063d60048036038101906106389190614ec7565b61166a565b60405161064a9190615aa0565b60405180910390f35b34801561065f57600080fd5b506106686116ee565b60405161067591906157c8565b60405180910390f35b34801561068a57600080fd5b506106a560048036038101906106a09190614d5c565b611701565b005b3480156106b357600080fd5b506106ce60048036038101906106c99190614d5c565b6119b6565b6040516106db91906157c8565b60405180910390f35b3480156106f057600080fd5b506106f9611a0c565b6040516107069190615aa0565b60405180910390f35b34801561071b57600080fd5b50610724611a12565b6040516107319190615aa0565b60405180910390f35b34801561074657600080fd5b5061074f611a18565b005b34801561075d57600080fd5b50610766611d92565b6040516107739190615aa0565b60405180910390f35b34801561078857600080fd5b50610791611d98565b60405161079e9190615aa0565b60405180910390f35b3480156107b357600080fd5b506107ce60048036038101906107c99190614d5c565b611d9e565b6040516107db9190615aa0565b60405180910390f35b3480156107f057600080fd5b506107f9611e89565b005b34801561080757600080fd5b50610810611fde565b60405161081d9190615aa0565b60405180910390f35b34801561083257600080fd5b5061083b611fe4565b6040516108489190615aa0565b60405180910390f35b34801561085d57600080fd5b5061087860048036038101906108739190614d5c565b611fea565b60405161088591906157c8565b60405180910390f35b34801561089a57600080fd5b506108a3612040565b6040516108b091906156d1565b60405180910390f35b3480156108c557600080fd5b506108e060048036038101906108db9190614e75565b612069565b005b3480156108ee57600080fd5b506108f7612109565b005b34801561090557600080fd5b5061090e61223e565b60405161091b9190615aa0565b60405180910390f35b34801561093057600080fd5b50610939612244565b6040516109469190615aa0565b60405180910390f35b34801561095b57600080fd5b5061096461224a565b60405161097191906157fe565b60405180910390f35b34801561098657600080fd5b5061098f6122ec565b60405161099c9190615aa0565b60405180910390f35b3480156109b157600080fd5b506109cc60048036038101906109c79190614e10565b61230a565b6040516109d991906157c8565b60405180910390f35b3480156109ee57600080fd5b506109f76123d7565b005b348015610a0557600080fd5b50610a206004803603810190610a1b9190614e10565b6125ac565b604051610a2d91906157c8565b60405180910390f35b348015610a4257600080fd5b50610a4b6125cc565b005b348015610a5957600080fd5b50610a746004803603810190610a6f9190614d5c565b6126fb565b604051610a819190615aa0565b60405180910390f35b348015610a9657600080fd5b50610a9f612713565b604051610aac9190615aa0565b60405180910390f35b348015610ac157600080fd5b50610aca61271d565b604051610ad791906156d1565b60405180910390f35b348015610aec57600080fd5b50610af5612741565b604051610b0291906157e3565b60405180910390f35b348015610b1757600080fd5b50610b326004803603810190610b2d9190614e4c565b612765565b005b348015610b4057600080fd5b50610b5b6004803603810190610b569190614e75565b61284f565b005b348015610b6957600080fd5b50610b846004803603810190610b7f9190614e75565b612917565b005b348015610b9257600080fd5b50610bad6004803603810190610ba89190614d85565b612ad8565b604051610bba9190615aa0565b60405180910390f35b348015610bcf57600080fd5b50610bea6004803603810190610be59190614d5c565b612b5f565b005b348015610bf857600080fd5b50610c136004803603810190610c0e9190614d5c565b612c50565b005b348015610c2157600080fd5b50610c2a612e14565b604051610c379190615aa0565b60405180910390f35b610c48612ed4565b73ffffffffffffffffffffffffffffffffffffffff166000809054906101000a900473ffffffffffffffffffffffffffffffffffffffff1673ffffffffffffffffffffffffffffffffffffffff1614610cd6576040517f08c379a0000000000000000000000000000000000000000000000000000000008152600401610ccd90615980565b60405180910390fd5b80601a8190555050565b6060600d8054600181600116156101000203166002900480601f016020809104026020016040519081016040528092919081815260200182805460018160011615610100020316600290048015610d785780601f10610d4d57610100808354040283529160200191610d78565b820191906000526020600020905b815481529060010190602001808311610d5b57829003601f168201915b5050505050905090565b6000610d96610d8f612ed4565b8484612edc565b6001905092915050565b6000600c54905090565b6000600a54905090565b600080610df1610dc561dead611d9e565b610de3610dd26000611d9e565b600a546130a790919063ffffffff16565b6130a790919063ffffffff16565b905073__$53bcfff703058d1366cb9df10eca7db15d$__63163296bc600a54610e1986611d9e565b4760195486896040518763ffffffff1660e01b8152600401610e4096959493929190615b37565b60206040518083038186803b158015610e5857600080fd5b505af4158015610e6c573d6000803e3d6000fd5b505050506040513d601f19601f82011682018060405250810190610e909190614e9e565b915050919050565b6000610ea784848460006130f1565b610f6884610eb3612ed4565b610f6385604051806060016040528060288152602001615d1360289139600660008b73ffffffffffffffffffffffffffffffffffffffff1673ffffffffffffffffffffffffffffffffffffffff1681526020019081526020016000206000610f19612ed4565b73ffffffffffffffffffffffffffffffffffffffff1673ffffffffffffffffffffffffffffffffffffffff168152602001908152602001600020546132ee9092919063ffffffff16565b612edc565b600190509392505050565b6000600b54821115610fba576040517f08c379a0000000000000000000000000000000000000000000000000000000008152600401610fb190615880565b60405180910390fd5b6000610fc4613349565b9050610fd98184612e8a90919063ffffffff16565b915050919050565b6000600f60009054906101000a900460ff16905090565b611000612ed4565b73ffffffffffffffffffffffffffffffffffffffff166000809054906101000a900473ffffffffffffffffffffffffffffffffffffffff1673ffffffffffffffffffffffffffffffffffffffff161461108e576040517f08c379a000000000000000000000000000000000000000000000000000000000815260040161108590615980565b60405180910390fd5b600860008273ffffffffffffffffffffffffffffffffffffffff1673ffffffffffffffffffffffffffffffffffffffff16815260200190815260200160002060009054906101000a900460ff1661111a576040517f08c379a0000000000000000000000000000000000000000000000000000000008152600401611111906158e0565b60405180910390fd5b60008090505b60098054905081101561131c578173ffffffffffffffffffffffffffffffffffffffff166009828154811061115157fe5b9060005260206000200160009054906101000a900473ffffffffffffffffffffffffffffffffffffffff1673ffffffffffffffffffffffffffffffffffffffff16141561130f576009600160098054905003815481106111ad57fe5b9060005260206000200160009054906101000a900473ffffffffffffffffffffffffffffffffffffffff16600982815481106111e557fe5b9060005260206000200160006101000a81548173ffffffffffffffffffffffffffffffffffffffff021916908373ffffffffffffffffffffffffffffffffffffffff1602179055506000600560008473ffffffffffffffffffffffffffffffffffffffff1673ffffffffffffffffffffffffffffffffffffffff168152602001908152602001600020819055506000600860008473ffffffffffffffffffffffffffffffffffffffff1673ffffffffffffffffffffffffffffffffffffffff16815260200190815260200160002060006101000a81548160ff02191690831515021790555060098054806112d557fe5b6001900381819060005260206000200160006101000a81549073ffffffffffffffffffffffffffffffffffffffff0219169055905561131c565b8080600101915050611120565b5050565b60115481565b60006113cf611333612ed4565b846113ca8560066000611344612ed4565b73ffffffffffffffffffffffffffffffffffffffff1673ffffffffffffffffffffffffffffffffffffffff16815260200190815260200160002060008973ffffffffffffffffffffffffffffffffffffffff1673ffffffffffffffffffffffffffffffffffffffff1681526020019081526020016000205461337490919063ffffffff16565b612edc565b6001905092915050565b601a5481565b60006113e9612ed4565b9050600860008273ffffffffffffffffffffffffffffffffffffffff1673ffffffffffffffffffffffffffffffffffffffff16815260200190815260200160002060009054906101000a900460ff1615611478576040517f08c379a000000000000000000000000000000000000000000000000000000000815260040161146f90615a40565b60405180910390fd5b6000611483836133c9565b505050505090506114dc81600460008573ffffffffffffffffffffffffffffffffffffffff1673ffffffffffffffffffffffffffffffffffffffff168152602001908152602001600020546130a790919063ffffffff16565b600460008473ffffffffffffffffffffffffffffffffffffffff1673ffffffffffffffffffffffffffffffffffffffff1681526020019081526020016000208190555061153481600b546130a790919063ffffffff16565b600b8190555061154f83600c5461337490919063ffffffff16565b600c81905550505050565b600061156f611567612ed4565b8484346130f1565b6001905092915050565b611581612ed4565b73ffffffffffffffffffffffffffffffffffffffff166000809054906101000a900473ffffffffffffffffffffffffffffffffffffffff1673ffffffffffffffffffffffffffffffffffffffff161461160f576040517f08c379a000000000000000000000000000000000000000000000000000000000815260040161160690615980565b60405180910390fd5b6001600760008373ffffffffffffffffffffffffffffffffffffffff1673ffffffffffffffffffffffffffffffffffffffff16815260200190815260200160002060006101000a81548160ff02191690831515021790555050565b6000600a548311156116b1576040517f08c379a00000000000000000000000000000000000000000000000000000000081526004016116a890615920565b60405180910390fd5b816116d15760006116c1846133c9565b50505050509050809150506116e8565b60006116dc846133c9565b50505050915050809150505b92915050565b601660009054906101000a900460ff1681565b611709612ed4565b73ffffffffffffffffffffffffffffffffffffffff166000809054906101000a900473ffffffffffffffffffffffffffffffffffffffff1673ffffffffffffffffffffffffffffffffffffffff1614611797576040517f08c379a000000000000000000000000000000000000000000000000000000000815260040161178e90615980565b60405180910390fd5b600860008273ffffffffffffffffffffffffffffffffffffffff1673ffffffffffffffffffffffffffffffffffffffff16815260200190815260200160002060009054906101000a900460ff1615611824576040517f08c379a000000000000000000000000000000000000000000000000000000000815260040161181b906158e0565b60405180910390fd5b6000600460008373ffffffffffffffffffffffffffffffffffffffff1673ffffffffffffffffffffffffffffffffffffffff1681526020019081526020016000205411156118f8576118b4600460008373ffffffffffffffffffffffffffffffffffffffff1673ffffffffffffffffffffffffffffffffffffffff16815260200190815260200160002054610f73565b600560008373ffffffffffffffffffffffffffffffffffffffff1673ffffffffffffffffffffffffffffffffffffffff168152602001908152602001600020819055505b6001600860008373ffffffffffffffffffffffffffffffffffffffff1673ffffffffffffffffffffffffffffffffffffffff16815260200190815260200160002060006101000a81548160ff0219169083151502179055506009819080600181540180825580915050600190039060005260206000200160009091909190916101000a81548173ffffffffffffffffffffffffffffffffffffffff021916908373ffffffffffffffffffffffffffffffffffffffff16021790555050565b6000600760008373ffffffffffffffffffffffffffffffffffffffff1673ffffffffffffffffffffffffffffffffffffffff16815260200190815260200160002060009054906101000a900460ff169050919050565b60175481565b601e5481565b60026003541415611a5e576040517f08c379a0000000000000000000000000000000000000000000000000000000008152600401611a5590615a20565b60405180910390fd5b600260038190555042601560003373ffffffffffffffffffffffffffffffffffffffff1673ffffffffffffffffffffffffffffffffffffffff168152602001908152602001600020541115611ae8576040517f08c379a0000000000000000000000000000000000000000000000000000000008152600401611adf90615820565b60405180910390fd5b6000611af333611d9e565b1015611b34576040517f08c379a0000000000000000000000000000000000000000000000000000000008152600401611b2b90615900565b60405180910390fd5b6000611b3f33610db4565b9050601e548110611c135773__$53bcfff703058d1366cb9df10eca7db15d$__63c549d3ae7f000000000000000000000000000000000000000000000000000000000000000061dead611b9c600586612e8a90919063ffffffff16565b6040518463ffffffff1660e01b8152600401611bba93929190615723565b60006040518083038186803b158015611bd257600080fd5b505af4158015611be6573d6000803e3d6000fd5b50505050611c10611c01600583612e8a90919063ffffffff16565b826130a790919063ffffffff16565b90505b611c1b6122ec565b4201601560003373ffffffffffffffffffffffffffffffffffffffff1673ffffffffffffffffffffffffffffffffffffffff168152602001908152602001600020819055507f76a3a606d310d32750e15a3d246d186b789084096189d51661559b0f97f3bec93382601560003373ffffffffffffffffffffffffffffffffffffffff1673ffffffffffffffffffffffffffffffffffffffff16815260200190815260200160002054604051611cd2939291906156ec565b60405180910390a160003373ffffffffffffffffffffffffffffffffffffffff1682604051611d00906156bc565b60006040518083038185875af1925050503d8060008114611d3d576040519150601f19603f3d011682016040523d82523d6000602084013e611d42565b606091505b5050905080611d86576040517f08c379a0000000000000000000000000000000000000000000000000000000008152600401611d7d906159e0565b60405180910390fd5b50506001600381905550565b601c5481565b60145481565b6000600860008373ffffffffffffffffffffffffffffffffffffffff1673ffffffffffffffffffffffffffffffffffffffff16815260200190815260200160002060009054906101000a900460ff1615611e3957600560008373ffffffffffffffffffffffffffffffffffffffff1673ffffffffffffffffffffffffffffffffffffffff168152602001908152602001600020549050611e84565b611e81600460008473ffffffffffffffffffffffffffffffffffffffff1673ffffffffffffffffffffffffffffffffffffffff16815260200190815260200160002054610f73565b90505b919050565b611e91612ed4565b73ffffffffffffffffffffffffffffffffffffffff166000809054906101000a900473ffffffffffffffffffffffffffffffffffffffff1673ffffffffffffffffffffffffffffffffffffffff1614611f1f576040517f08c379a0000000000000000000000000000000000000000000000000000000008152600401611f1690615980565b60405180910390fd5b600073ffffffffffffffffffffffffffffffffffffffff166000809054906101000a900473ffffffffffffffffffffffffffffffffffffffff1673ffffffffffffffffffffffffffffffffffffffff167f8be0079c531659141344cd1fd0a4f28419497f9722a3daafe3b4186f6b6457e060405160405180910390a360008060006101000a81548173ffffffffffffffffffffffffffffffffffffffff021916908373ffffffffffffffffffffffffffffffffffffffff160217905550565b60105481565b60135481565b6000600860008373ffffffffffffffffffffffffffffffffffffffff1673ffffffffffffffffffffffffffffffffffffffff16815260200190815260200160002060009054906101000a900460ff169050919050565b60008060009054906101000a900473ffffffffffffffffffffffffffffffffffffffff16905090565b612071612ed4565b73ffffffffffffffffffffffffffffffffffffffff166000809054906101000a900473ffffffffffffffffffffffffffffffffffffffff1673ffffffffffffffffffffffffffffffffffffffff16146120ff576040517f08c379a00000000000000000000000000000000000000000000000000000000081526004016120f690615980565b60405180910390fd5b80601c8190555050565b612111612ed4565b73ffffffffffffffffffffffffffffffffffffffff166000809054906101000a900473ffffffffffffffffffffffffffffffffffffffff1673ffffffffffffffffffffffffffffffffffffffff161461219f576040517f08c379a000000000000000000000000000000000000000000000000000000000815260040161219690615980565b60405180910390fd5b62093a80420160188190555062093a80601081905550620151806011819055506005601981905550671bc16d674ec80000601481905550426017819055506121e7600561284f565b6121f16001612765565b61223c307f00000000000000000000000000000000000000000000000000000000000000007fffffffffffffffffffffffffffffffffffffffffffffffffffffffffffffffff612edc565b565b60195481565b60185481565b6060600e8054600181600116156101000203166002900480601f0160208091040260200160405190810160405280929190818152602001828054600181600116156101000203166002900480156122e25780601f106122b7576101008083540402835291602001916122e2565b820191906000526020600020905b8154815290600101906020018083116122c557829003601f168201915b5050505050905090565b60006018544210612301576010549050612307565b60115490505b90565b60006123cd612317612ed4565b846123c885604051806060016040528060258152602001615d3b6025913960066000612341612ed4565b73ffffffffffffffffffffffffffffffffffffffff1673ffffffffffffffffffffffffffffffffffffffff16815260200190815260200160002060008a73ffffffffffffffffffffffffffffffffffffffff1673ffffffffffffffffffffffffffffffffffffffff168152602001908152602001600020546132ee9092919063ffffffff16565b612edc565b6001905092915050565b3373ffffffffffffffffffffffffffffffffffffffff16600160009054906101000a900473ffffffffffffffffffffffffffffffffffffffff1673ffffffffffffffffffffffffffffffffffffffff1614612467576040517f08c379a000000000000000000000000000000000000000000000000000000000815260040161245e90615a80565b60405180910390fd5b60025442116124ab576040517f08c379a00000000000000000000000000000000000000000000000000000000081526004016124a290615a00565b60405180910390fd5b600160009054906101000a900473ffffffffffffffffffffffffffffffffffffffff1673ffffffffffffffffffffffffffffffffffffffff166000809054906101000a900473ffffffffffffffffffffffffffffffffffffffff1673ffffffffffffffffffffffffffffffffffffffff167f8be0079c531659141344cd1fd0a4f28419497f9722a3daafe3b4186f6b6457e060405160405180910390a3600160009054906101000a900473ffffffffffffffffffffffffffffffffffffffff166000806101000a81548173ffffffffffffffffffffffffffffffffffffffff021916908373ffffffffffffffffffffffffffffffffffffffff160217905550565b60006125c26125b9612ed4565b848460006130f1565b6001905092915050565b6125d4612ed4565b73ffffffffffffffffffffffffffffffffffffffff166000809054906101000a900473ffffffffffffffffffffffffffffffffffffffff1673ffffffffffffffffffffffffffffffffffffffff1614612662576040517f08c379a000000000000000000000000000000000000000000000000000000000815260040161265990615980565b60405180910390fd5b42601881905550610708601081905550620151806011819055506005601981905550671bc16d674ec80000601481905550426017819055506126a4600561284f565b6126ae6001612765565b6126f9307f00000000000000000000000000000000000000000000000000000000000000007fffffffffffffffffffffffffffffffffffffffffffffffffffffffffffffffff612edc565b565b60156020528060005260406000206000915090505481565b6000600254905090565b7f000000000000000000000000000000000000000000000000000000000000000081565b7f000000000000000000000000000000000000000000000000000000000000000081565b61276d612ed4565b73ffffffffffffffffffffffffffffffffffffffff166000809054906101000a900473ffffffffffffffffffffffffffffffffffffffff1673ffffffffffffffffffffffffffffffffffffffff16146127fb576040517f08c379a00000000000000000000000000000000000000000000000000000000081526004016127f290615980565b60405180910390fd5b80601660006101000a81548160ff0219169083151502179055507f53726dfcaf90650aa7eb35524f4d3220f07413c8d6cb404cc8c18bf5591bc1598160405161284491906157c8565b60405180910390a150565b612857612ed4565b73ffffffffffffffffffffffffffffffffffffffff166000809054906101000a900473ffffffffffffffffffffffffffffffffffffffff1673ffffffffffffffffffffffffffffffffffffffff16146128e5576040517f08c379a00000000000000000000000000000000000000000000000000000000081526004016128dc90615980565b60405180910390fd5b61290e61271061290083600a54612e1a90919063ffffffff16565b612e8a90919063ffffffff16565b60138190555050565b61291f612ed4565b73ffffffffffffffffffffffffffffffffffffffff166000809054906101000a900473ffffffffffffffffffffffffffffffffffffffff1673ffffffffffffffffffffffffffffffffffffffff16146129ad576040517f08c379a00000000000000000000000000000000000000000000000000000000081526004016129a490615980565b60405180910390fd5b6000809054906101000a900473ffffffffffffffffffffffffffffffffffffffff16600160006101000a81548173ffffffffffffffffffffffffffffffffffffffff021916908373ffffffffffffffffffffffffffffffffffffffff16021790555060008060006101000a81548173ffffffffffffffffffffffffffffffffffffffff021916908373ffffffffffffffffffffffffffffffffffffffff160217905550804201600281905550600073ffffffffffffffffffffffffffffffffffffffff166000809054906101000a900473ffffffffffffffffffffffffffffffffffffffff1673ffffffffffffffffffffffffffffffffffffffff167f8be0079c531659141344cd1fd0a4f28419497f9722a3daafe3b4186f6b6457e060405160405180910390a350565b6000600660008473ffffffffffffffffffffffffffffffffffffffff1673ffffffffffffffffffffffffffffffffffffffff16815260200190815260200160002060008373ffffffffffffffffffffffffffffffffffffffff1673ffffffffffffffffffffffffffffffffffffffff16815260200190815260200160002054905092915050565b612b67612ed4565b73ffffffffffffffffffffffffffffffffffffffff166000809054906101000a900473ffffffffffffffffffffffffffffffffffffffff1673ffffffffffffffffffffffffffffffffffffffff1614612bf5576040517f08c379a0000000000000000000000000000000000000000000000000000000008152600401612bec90615980565b60405180910390fd5b6000600760008373ffffffffffffffffffffffffffffffffffffffff1673ffffffffffffffffffffffffffffffffffffffff16815260200190815260200160002060006101000a81548160ff02191690831515021790555050565b612c58612ed4565b73ffffffffffffffffffffffffffffffffffffffff166000809054906101000a900473ffffffffffffffffffffffffffffffffffffffff1673ffffffffffffffffffffffffffffffffffffffff1614612ce6576040517f08c379a0000000000000000000000000000000000000000000000000000000008152600401612cdd90615980565b60405180910390fd5b600073ffffffffffffffffffffffffffffffffffffffff168173ffffffffffffffffffffffffffffffffffffffff161415612d56576040517f08c379a0000000000000000000000000000000000000000000000000000000008152600401612d4d906158a0565b60405180910390fd5b8073ffffffffffffffffffffffffffffffffffffffff166000809054906101000a900473ffffffffffffffffffffffffffffffffffffffff1673ffffffffffffffffffffffffffffffffffffffff167f8be0079c531659141344cd1fd0a4f28419497f9722a3daafe3b4186f6b6457e060405160405180910390a3806000806101000a81548173ffffffffffffffffffffffffffffffffffffffff021916908373ffffffffffffffffffffffffffffffffffffffff16021790555050565b60125481565b600080831415612e2d5760009050612e84565b6000828402905082848281612e3e57fe5b0414612e7f576040517f08c379a0000000000000000000000000000000000000000000000000000000008152600401612e7690615960565b60405180910390fd5b809150505b92915050565b6000612ecc83836040518060400160405280601a81526020017f536166654d6174683a206469766973696f6e206279207a65726f000000000000815250613425565b905092915050565b600033905090565b600073ffffffffffffffffffffffffffffffffffffffff168373ffffffffffffffffffffffffffffffffffffffff161415612f4c576040517f08c379a0000000000000000000000000000000000000000000000000000000008152600401612f4390615860565b60405180910390fd5b600073ffffffffffffffffffffffffffffffffffffffff168273ffffffffffffffffffffffffffffffffffffffff161415612fbc576040517f08c379a0000000000000000000000000000000000000000000000000000000008152600401612fb390615a60565b60405180910390fd5b80600660008573ffffffffffffffffffffffffffffffffffffffff1673ffffffffffffffffffffffffffffffffffffffff16815260200190815260200160002060008473ffffffffffffffffffffffffffffffffffffffff1673ffffffffffffffffffffffffffffffffffffffff168152602001908152602001600020819055508173ffffffffffffffffffffffffffffffffffffffff168373ffffffffffffffffffffffffffffffffffffffff167f8c5be1e5ebec7d5bd14f71427d1e84f3dd0314c0f7b2291e5b200ac8c7c3b9258360405161309a9190615aa0565b60405180910390a3505050565b60006130e983836040518060400160405280601e81526020017f536166654d6174683a207375627472616374696f6e206f766572666c6f7700008152506132ee565b905092915050565b600073ffffffffffffffffffffffffffffffffffffffff168473ffffffffffffffffffffffffffffffffffffffff161415613161576040517f08c379a000000000000000000000000000000000000000000000000000000000815260040161315890615840565b60405180910390fd5b600073ffffffffffffffffffffffffffffffffffffffff168373ffffffffffffffffffffffffffffffffffffffff1614156131d1576040517f08c379a00000000000000000000000000000000000000000000000000000000081526004016131c8906159c0565b60405180910390fd5b60008211613214576040517f08c379a000000000000000000000000000000000000000000000000000000000815260040161320b906159a0565b60405180910390fd5b61322084848484613486565b61322a84846135d9565b600060019050600760008673ffffffffffffffffffffffffffffffffffffffff1673ffffffffffffffffffffffffffffffffffffffff16815260200190815260200160002060009054906101000a900460ff16806132d15750600760008573ffffffffffffffffffffffffffffffffffffffff1673ffffffffffffffffffffffffffffffffffffffff16815260200190815260200160002060009054906101000a900460ff165b156132db57600090505b6132e78585858461392c565b5050505050565b6000838311158290613336576040517f08c379a000000000000000000000000000000000000000000000000000000000815260040161332d91906157fe565b60405180910390fd5b5060008385039050809150509392505050565b6000806000613356613c47565b9150915061336d8183612e8a90919063ffffffff16565b9250505090565b6000808284019050838110156133bf576040517f08c379a00000000000000000000000000000000000000000000000000000000081526004016133b6906158c0565b60405180910390fd5b8091505092915050565b60008060008060008060008060006133e08a613edb565b92509250925060008060006133fe8d86866133f9613349565b613f35565b9250925092508282828888889b509b509b509b509b509b5050505050505091939550919395565b6000808311829061346c576040517f08c379a000000000000000000000000000000000000000000000000000000000815260040161346391906157fe565b60405180910390fd5b50600083858161347857fe5b049050809150509392505050565b61348e612040565b73ffffffffffffffffffffffffffffffffffffffff168473ffffffffffffffffffffffffffffffffffffffff16141580156134fc57506134cc612040565b73ffffffffffffffffffffffffffffffffffffffff168373ffffffffffffffffffffffffffffffffffffffff1614155b80156135355750600073ffffffffffffffffffffffffffffffffffffffff168373ffffffffffffffffffffffffffffffffffffffff1614155b801561356f575061dead73ffffffffffffffffffffffffffffffffffffffff168373ffffffffffffffffffffffffffffffffffffffff1614155b156135d3576014548110801561358757506017544210155b156135d2576013548211156135d1576040517f08c379a00000000000000000000000000000000000000000000000000000000081526004016135c890615940565b60405180910390fd5b5b5b50505050565b60006135e430611d9e565b905060135481106135f55760135490505b6000601f548210159050600f60019054906101000a900460ff161580156136195750805b801561367157507f000000000000000000000000000000000000000000000000000000000000000073ffffffffffffffffffffffffffffffffffffffff168473ffffffffffffffffffffffffffffffffffffffff1614155b80156136895750601660009054906101000a900460ff165b801561371857503073ffffffffffffffffffffffffffffffffffffffff168473ffffffffffffffffffffffffffffffffffffffff1614801561371657507f000000000000000000000000000000000000000000000000000000000000000073ffffffffffffffffffffffffffffffffffffffff168373ffffffffffffffffffffffffffffffffffffffff16145b155b1561392657601f5491506000613738600284612e8a90919063ffffffff16565b90506000613762600261375484876130a790919063ffffffff16565b612e8a90919063ffffffff16565b9050600061377982866130a790919063ffffffff16565b90506000613790838561337490919063ffffffff16565b9050600047905073__$53bcfff703058d1366cb9df10eca7db15d$__6356feb11b7f0000000000000000000000000000000000000000000000000000000000000000846040518363ffffffff1660e01b81526004016137f092919061579f565b60006040518083038186803b15801561380857600080fd5b505af415801561381c573d6000803e3d6000fd5b50505050600061383582476130a790919063ffffffff16565b9050600061384d600383612e8a90919063ffffffff16565b905073__$53bcfff703058d1366cb9df10eca7db15d$__63cf6c62ea7f0000000000000000000000000000000000000000000000000000000000000000613892612040565b88856040518563ffffffff1660e01b81526004016138b3949392919061575a565b60006040518083038186803b1580156138cb57600080fd5b505af41580156138df573d6000803e3d6000fd5b505050507f17bbfb9a6069321b6ded73bd96327c9e6b7212a5cd51ff219cd61370acafb56186838760405161391693929190615abb565b60405180910390a1505050505050505b50505050565b8061393a57613939613fbe565b5b6139448383614001565b600860008573ffffffffffffffffffffffffffffffffffffffff1673ffffffffffffffffffffffffffffffffffffffff16815260200190815260200160002060009054906101000a900460ff1680156139e75750600860008473ffffffffffffffffffffffffffffffffffffffff1673ffffffffffffffffffffffffffffffffffffffff16815260200190815260200160002060009054906101000a900460ff16155b156139fc576139f7848484614133565b613c33565b600860008573ffffffffffffffffffffffffffffffffffffffff1673ffffffffffffffffffffffffffffffffffffffff16815260200190815260200160002060009054906101000a900460ff16158015613a9f5750600860008473ffffffffffffffffffffffffffffffffffffffff1673ffffffffffffffffffffffffffffffffffffffff16815260200190815260200160002060009054906101000a900460ff165b15613ab457613aaf848484614393565b613c32565b600860008573ffffffffffffffffffffffffffffffffffffffff1673ffffffffffffffffffffffffffffffffffffffff16815260200190815260200160002060009054906101000a900460ff16158015613b585750600860008473ffffffffffffffffffffffffffffffffffffffff1673ffffffffffffffffffffffffffffffffffffffff16815260200190815260200160002060009054906101000a900460ff16155b15613b6d57613b688484846145f3565b613c31565b600860008573ffffffffffffffffffffffffffffffffffffffff1673ffffffffffffffffffffffffffffffffffffffff16815260200190815260200160002060009054906101000a900460ff168015613c0f5750600860008473ffffffffffffffffffffffffffffffffffffffff1673ffffffffffffffffffffffffffffffffffffffff16815260200190815260200160002060009054906101000a900460ff165b15613c2457613c1f8484846147be565b613c30565b613c2f8484846145f3565b5b5b5b5b80613c4157613c40614ab3565b5b50505050565b6000806000600b5490506000600a54905060008090505b600980549050811015613e9e57826004600060098481548110613c7d57fe5b9060005260206000200160009054906101000a900473ffffffffffffffffffffffffffffffffffffffff1673ffffffffffffffffffffffffffffffffffffffff1673ffffffffffffffffffffffffffffffffffffffff168152602001908152602001600020541180613d645750816005600060098481548110613cfc57fe5b9060005260206000200160009054906101000a900473ffffffffffffffffffffffffffffffffffffffff1673ffffffffffffffffffffffffffffffffffffffff1673ffffffffffffffffffffffffffffffffffffffff16815260200190815260200160002054115b15613d7b57600b54600a5494509450505050613ed7565b613e046004600060098481548110613d8f57fe5b9060005260206000200160009054906101000a900473ffffffffffffffffffffffffffffffffffffffff1673ffffffffffffffffffffffffffffffffffffffff1673ffffffffffffffffffffffffffffffffffffffff16815260200190815260200160002054846130a790919063ffffffff16565b9250613e8f6005600060098481548110613e1a57fe5b9060005260206000200160009054906101000a900473ffffffffffffffffffffffffffffffffffffffff1673ffffffffffffffffffffffffffffffffffffffff1673ffffffffffffffffffffffffffffffffffffffff16815260200190815260200160002054836130a790919063ffffffff16565b91508080600101915050613c5e565b50613eb6600a54600b54612e8a90919063ffffffff16565b821015613ece57600b54600a54935093505050613ed7565b81819350935050505b9091565b600080600080613eea85614ac7565b90506000613ef786614af8565b90506000613f2082613f12858a6130a790919063ffffffff16565b6130a790919063ffffffff16565b90508083839550955095505050509193909250565b600080600080613f4e8589612e1a90919063ffffffff16565b90506000613f658689612e1a90919063ffffffff16565b90506000613f7c8789612e1a90919063ffffffff16565b90506000613fa582613f9785876130a790919063ffffffff16565b6130a790919063ffffffff16565b9050838184965096509650505050509450945094915050565b6000601a54148015613fd257506000601c54145b15613fdc57613fff565b601a54601b81905550601c54601d819055506000601a819055506000601c819055505b565b600061400c83611d9e565b905060006140186122ec565b905073__$53bcfff703058d1366cb9df10eca7db15d$__638958b5a98383601254876040518563ffffffff1660e01b81526004016140599493929190615af2565b60206040518083038186803b15801561407157600080fd5b505af4158015614085573d6000803e3d6000fd5b505050506040513d601f19601f820116820180604052508101906140a99190614e9e565b601560008673ffffffffffffffffffffffffffffffffffffffff1673ffffffffffffffffffffffffffffffffffffffff1681526020019081526020016000205401601560008673ffffffffffffffffffffffffffffffffffffffff1673ffffffffffffffffffffffffffffffffffffffff1681526020019081526020016000208190555050505050565b600080600080600080614145876133c9565b9550955095509550955095506141a387600560008c73ffffffffffffffffffffffffffffffffffffffff1673ffffffffffffffffffffffffffffffffffffffff168152602001908152602001600020546130a790919063ffffffff16565b600560008b73ffffffffffffffffffffffffffffffffffffffff1673ffffffffffffffffffffffffffffffffffffffff1681526020019081526020016000208190555061423886600460008c73ffffffffffffffffffffffffffffffffffffffff1673ffffffffffffffffffffffffffffffffffffffff168152602001908152602001600020546130a790919063ffffffff16565b600460008b73ffffffffffffffffffffffffffffffffffffffff1673ffffffffffffffffffffffffffffffffffffffff168152602001908152602001600020819055506142cd85600460008b73ffffffffffffffffffffffffffffffffffffffff1673ffffffffffffffffffffffffffffffffffffffff1681526020019081526020016000205461337490919063ffffffff16565b600460008a73ffffffffffffffffffffffffffffffffffffffff1673ffffffffffffffffffffffffffffffffffffffff1681526020019081526020016000208190555061431981614b29565b6143238483614cce565b8773ffffffffffffffffffffffffffffffffffffffff168973ffffffffffffffffffffffffffffffffffffffff167fddf252ad1be2c89b69c2b068fc378daa952ba7f163c4a11628f55a4df523b3ef856040516143809190615aa0565b60405180910390a3505050505050505050565b6000806000806000806143a5876133c9565b95509550955095509550955061440386600460008c73ffffffffffffffffffffffffffffffffffffffff1673ffffffffffffffffffffffffffffffffffffffff168152602001908152602001600020546130a790919063ffffffff16565b600460008b73ffffffffffffffffffffffffffffffffffffffff1673ffffffffffffffffffffffffffffffffffffffff1681526020019081526020016000208190555061449883600560008b73ffffffffffffffffffffffffffffffffffffffff1673ffffffffffffffffffffffffffffffffffffffff1681526020019081526020016000205461337490919063ffffffff16565b600560008a73ffffffffffffffffffffffffffffffffffffffff1673ffffffffffffffffffffffffffffffffffffffff1681526020019081526020016000208190555061452d85600460008b73ffffffffffffffffffffffffffffffffffffffff1673ffffffffffffffffffffffffffffffffffffffff1681526020019081526020016000205461337490919063ffffffff16565b600460008a73ffffffffffffffffffffffffffffffffffffffff1673ffffffffffffffffffffffffffffffffffffffff1681526020019081526020016000208190555061457981614b29565b6145838483614cce565b8773ffffffffffffffffffffffffffffffffffffffff168973ffffffffffffffffffffffffffffffffffffffff167fddf252ad1be2c89b69c2b068fc378daa952ba7f163c4a11628f55a4df523b3ef856040516145e09190615aa0565b60405180910390a3505050505050505050565b600080600080600080614605876133c9565b95509550955095509550955061466386600460008c73ffffffffffffffffffffffffffffffffffffffff1673ffffffffffffffffffffffffffffffffffffffff168152602001908152602001600020546130a790919063ffffffff16565b600460008b73ffffffffffffffffffffffffffffffffffffffff1673ffffffffffffffffffffffffffffffffffffffff168152602001908152602001600020819055506146f885600460008b73ffffffffffffffffffffffffffffffffffffffff1673ffffffffffffffffffffffffffffffffffffffff1681526020019081526020016000205461337490919063ffffffff16565b600460008a73ffffffffffffffffffffffffffffffffffffffff1673ffffffffffffffffffffffffffffffffffffffff1681526020019081526020016000208190555061474481614b29565b61474e8483614cce565b8773ffffffffffffffffffffffffffffffffffffffff168973ffffffffffffffffffffffffffffffffffffffff167fddf252ad1be2c89b69c2b068fc378daa952ba7f163c4a11628f55a4df523b3ef856040516147ab9190615aa0565b60405180910390a3505050505050505050565b6000806000806000806147d0876133c9565b95509550955095509550955061482e87600560008c73ffffffffffffffffffffffffffffffffffffffff1673ffffffffffffffffffffffffffffffffffffffff168152602001908152602001600020546130a790919063ffffffff16565b600560008b73ffffffffffffffffffffffffffffffffffffffff1673ffffffffffffffffffffffffffffffffffffffff168152602001908152602001600020819055506148c386600460008c73ffffffffffffffffffffffffffffffffffffffff1673ffffffffffffffffffffffffffffffffffffffff168152602001908152602001600020546130a790919063ffffffff16565b600460008b73ffffffffffffffffffffffffffffffffffffffff1673ffffffffffffffffffffffffffffffffffffffff1681526020019081526020016000208190555061495883600560008b73ffffffffffffffffffffffffffffffffffffffff1673ffffffffffffffffffffffffffffffffffffffff1681526020019081526020016000205461337490919063ffffffff16565b600560008a73ffffffffffffffffffffffffffffffffffffffff1673ffffffffffffffffffffffffffffffffffffffff168152602001908152602001600020819055506149ed85600460008b73ffffffffffffffffffffffffffffffffffffffff1673ffffffffffffffffffffffffffffffffffffffff1681526020019081526020016000205461337490919063ffffffff16565b600460008a73ffffffffffffffffffffffffffffffffffffffff1673ffffffffffffffffffffffffffffffffffffffff16815260200190815260200160002081905550614a3981614b29565b614a438483614cce565b8773ffffffffffffffffffffffffffffffffffffffff168973ffffffffffffffffffffffffffffffffffffffff167fddf252ad1be2c89b69c2b068fc378daa952ba7f163c4a11628f55a4df523b3ef85604051614aa09190615aa0565b60405180910390a3505050505050505050565b601b54601a81905550601d54601c81905550565b6000614af16064614ae3601a5485612e1a90919063ffffffff16565b612e8a90919063ffffffff16565b9050919050565b6000614b226064614b14601c5485612e1a90919063ffffffff16565b612e8a90919063ffffffff16565b9050919050565b6000614b33613349565b90506000614b4a8284612e1a90919063ffffffff16565b9050614b9e81600460003073ffffffffffffffffffffffffffffffffffffffff1673ffffffffffffffffffffffffffffffffffffffff1681526020019081526020016000205461337490919063ffffffff16565b600460003073ffffffffffffffffffffffffffffffffffffffff1673ffffffffffffffffffffffffffffffffffffffff16815260200190815260200160002081905550600860003073ffffffffffffffffffffffffffffffffffffffff1673ffffffffffffffffffffffffffffffffffffffff16815260200190815260200160002060009054906101000a900460ff1615614cc957614c8583600560003073ffffffffffffffffffffffffffffffffffffffff1673ffffffffffffffffffffffffffffffffffffffff1681526020019081526020016000205461337490919063ffffffff16565b600560003073ffffffffffffffffffffffffffffffffffffffff1673ffffffffffffffffffffffffffffffffffffffff168152602001908152602001600020819055505b505050565b614ce382600b546130a790919063ffffffff16565b600b81905550614cfe81600c5461337490919063ffffffff16565b600c819055505050565b600081359050614d1781615ccd565b92915050565b600081359050614d2c81615ce4565b92915050565b600081359050614d4181615cfb565b92915050565b600081519050614d5681615cfb565b92915050565b600060208284031215614d6e57600080fd5b6000614d7c84828501614d08565b91505092915050565b60008060408385031215614d9857600080fd5b6000614da685828601614d08565b9250506020614db785828601614d08565b9150509250929050565b600080600060608486031215614dd657600080fd5b6000614de486828701614d08565b9350506020614df586828701614d08565b9250506040614e0686828701614d32565b9150509250925092565b60008060408385031215614e2357600080fd5b6000614e3185828601614d08565b9250506020614e4285828601614d32565b9150509250929050565b600060208284031215614e5e57600080fd5b6000614e6c84828501614d1d565b91505092915050565b600060208284031215614e8757600080fd5b6000614e9584828501614d32565b91505092915050565b600060208284031215614eb057600080fd5b6000614ebe84828501614d47565b91505092915050565b60008060408385031215614eda57600080fd5b6000614ee885828601614d32565b9250506020614ef985828601614d1d565b9150509250929050565b614f0c81615c2f565b82525050565b614f1b81615bda565b82525050565b614f2a81615bda565b82525050565b614f3981615bec565b82525050565b614f4881615c41565b82525050565b6000614f5982615bb3565b614f638185615bc9565b9350614f73818560208601615c89565b614f7c81615cbc565b840191505092915050565b6000614f94602183615bc9565b91507f4572726f723a206e65787420617661696c61626c65206e6f742072656163686560008301527f64000000000000000000000000000000000000000000000000000000000000006020830152604082019050919050565b6000614ffa602583615bc9565b91507f42455032303a207472616e736665722066726f6d20746865207a65726f20616460008301527f64726573730000000000000000000000000000000000000000000000000000006020830152604082019050919050565b6000615060602483615bc9565b91507f42455032303a20617070726f76652066726f6d20746865207a65726f2061646460008301527f72657373000000000000000000000000000000000000000000000000000000006020830152604082019050919050565b60006150c6602a83615bc9565b91507f416d6f756e74206d757374206265206c657373207468616e20746f74616c207260008301527f65666c656374696f6e73000000000000000000000000000000000000000000006020830152604082019050919050565b600061512c602683615bc9565b91507f4f776e61626c653a206e6577206f776e657220697320746865207a65726f206160008301527f64647265737300000000000000000000000000000000000000000000000000006020830152604082019050919050565b6000615192601b83615bc9565b91507f536166654d6174683a206164646974696f6e206f766572666c6f7700000000006000830152602082019050919050565b60006151d2601b83615bc9565b91507f4163636f756e7420697320616c7265616479206578636c7564656400000000006000830152602082019050919050565b6000615212602383615bc9565b91507f4572726f723a206d757374206f776e2058424320746f20636c61696d2072657760008301527f61726400000000000000000000000000000000000000000000000000000000006020830152604082019050919050565b6000615278601f83615bc9565b91507f416d6f756e74206d757374206265206c657373207468616e20737570706c79006000830152602082019050919050565b60006152b8602883615bc9565b91507f5472616e7366657220616d6f756e74206578636565647320746865206d61785460008301527f78416d6f756e742e0000000000000000000000000000000000000000000000006020830152604082019050919050565b600061531e602183615bc9565b91507f536166654d6174683a206d756c7469706c69636174696f6e206f766572666c6f60008301527f77000000000000000000000000000000000000000000000000000000000000006020830152604082019050919050565b6000615384602083615bc9565b91507f4f776e61626c653a2063616c6c6572206973206e6f7420746865206f776e65726000830152602082019050919050565b60006153c4602983615bc9565b91507f5472616e7366657220616d6f756e74206d75737420626520677265617465722060008301527f7468616e207a65726f00000000000000000000000000000000000000000000006020830152604082019050919050565b600061542a602383615bc9565b91507f42455032303a207472616e7366657220746f20746865207a65726f206164647260008301527f65737300000000000000000000000000000000000000000000000000000000006020830152604082019050919050565b6000615490600083615bbe565b9150600082019050919050565b60006154aa601d83615bc9565b91507f4572726f723a2043616e6e6f74207769746864726177207265776172640000006000830152602082019050919050565b60006154ea601f83615bc9565b91507f436f6e7472616374206973206c6f636b656420756e74696c20372064617973006000830152602082019050919050565b600061552a601f83615bc9565b91507f5265656e7472616e637947756172643a207265656e7472616e742063616c6c006000830152602082019050919050565b600061556a602c83615bc9565b91507f4578636c75646564206164647265737365732063616e6e6f742063616c6c207460008301527f6869732066756e6374696f6e00000000000000000000000000000000000000006020830152604082019050919050565b60006155d0602283615bc9565b91507f42455032303a20617070726f766520746f20746865207a65726f20616464726560008301527f73730000000000000000000000000000000000000000000000000000000000006020830152604082019050919050565b6000615636602383615bc9565b91507f596f7520646f6e27742068617665207065726d697373696f6e20746f20756e6c60008301527f6f636b00000000000000000000000000000000000000000000000000000000006020830152604082019050919050565b61569881615c18565b82525050565b6156a781615c18565b82525050565b6156b681615c22565b82525050565b60006156c782615483565b9150819050919050565b60006020820190506156e66000830184614f12565b92915050565b60006060820190506157016000830186614f03565b61570e602083018561568f565b61571b604083018461568f565b949350505050565b60006060820190506157386000830186614f21565b6157456020830185614f21565b615752604083018461569e565b949350505050565b600060808201905061576f6000830187614f21565b61577c6020830186614f21565b615789604083018561569e565b615796606083018461569e565b95945050505050565b60006040820190506157b46000830185614f21565b6157c1602083018461569e565b9392505050565b60006020820190506157dd6000830184614f30565b92915050565b60006020820190506157f86000830184614f3f565b92915050565b600060208201905081810360008301526158188184614f4e565b905092915050565b6000602082019050818103600083015261583981614f87565b9050919050565b6000602082019050818103600083015261585981614fed565b9050919050565b6000602082019050818103600083015261587981615053565b9050919050565b60006020820190508181036000830152615899816150b9565b9050919050565b600060208201905081810360008301526158b98161511f565b9050919050565b600060208201905081810360008301526158d981615185565b9050919050565b600060208201905081810360008301526158f9816151c5565b9050919050565b6000602082019050818103600083015261591981615205565b9050919050565b600060208201905081810360008301526159398161526b565b9050919050565b60006020820190508181036000830152615959816152ab565b9050919050565b6000602082019050818103600083015261597981615311565b9050919050565b6000602082019050818103600083015261599981615377565b9050919050565b600060208201905081810360008301526159b9816153b7565b9050919050565b600060208201905081810360008301526159d98161541d565b9050919050565b600060208201905081810360008301526159f98161549d565b9050919050565b60006020820190508181036000830152615a19816154dd565b9050919050565b60006020820190508181036000830152615a398161551d565b9050919050565b60006020820190508181036000830152615a598161555d565b9050919050565b60006020820190508181036000830152615a79816155c3565b9050919050565b60006020820190508181036000830152615a9981615629565b9050919050565b6000602082019050615ab5600083018461568f565b92915050565b6000606082019050615ad0600083018661568f565b615add602083018561568f565b615aea604083018461568f565b949350505050565b6000608082019050615b07600083018761569e565b615b14602083018661569e565b615b21604083018561569e565b615b2e606083018461569e565b95945050505050565b600060c082019050615b4c600083018961569e565b615b59602083018861569e565b615b66604083018761569e565b615b73606083018661569e565b615b80608083018561569e565b615b8d60a0830184614f21565b979650505050505050565b6000602082019050615bad60008301846156ad565b92915050565b600081519050919050565b600081905092915050565b600082825260208201905092915050565b6000615be582615bf8565b9050919050565b60008115159050919050565b600073ffffffffffffffffffffffffffffffffffffffff82169050919050565b6000819050919050565b600060ff82169050919050565b6000615c3a82615c65565b9050919050565b6000615c4c82615c53565b9050919050565b6000615c5e82615bf8565b9050919050565b6000615c7082615c77565b9050919050565b6000615c8282615bf8565b9050919050565b60005b83811015615ca7578082015181840152602081019050615c8c565b83811115615cb6576000848401525b50505050565b6000601f19601f8301169050919050565b615cd681615bda565b8114615ce157600080fd5b50565b615ced81615bec565b8114615cf857600080fd5b50565b615d0481615c18565b8114615d0f57600080fd5b5056fe42455032303a207472616e7366657220616d6f756e74206578636565647320616c6c6f77616e636542455032303a2064656372656173656420616c6c6f77616e63652062656c6f77207a65726fa2646970667358221220831db8cea1c3432a4e5fe41da22a01780c9811cb3089cc41ae89566d62befa3064736f6c63430006080033",
  "linkReferences": {
    "contracts/protocols/bep/Utils.sol": {
      "Utils": [
        {
          "length": 20,
          "start": 6521
        },
        {
          "length": 20,
          "start": 9936
        },
        {
          "length": 20,
          "start": 17181
        },
        {
          "length": 20,
          "start": 17365
        },
        {
          "length": 20,
          "start": 19360
        }
      ]
    }
  },
  "deployedLinkReferences": {
    "contracts/protocols/bep/Utils.sol": {
      "Utils": [
        {
          "length": 20,
          "start": 3573
        },
        {
          "length": 20,
          "start": 6988
        },
        {
          "length": 20,
          "start": 14233
        },
        {
          "length": 20,
          "start": 14417
        },
        {
          "length": 20,
          "start": 16412
        }
      ]
    }
  }
}